:020000040800F2
:1000000000500020253B00086D3B00086D3B0008B8
:100010006D3B00086D3B00086D3B000800000000D0
:100020000000000000000000000000006D3B000820
:100030006D3B0008000000006D3B00086D3B0008B0
:100040006D3B00086D3B00086D3B00086D3B0008F0
:100050006D3B00086D3B00086D3B00086D3B0008E0
:100060006D3B00086D3B00086D3B00086D3B0008D0
:10007000D51500086D3B0008151400086D3B0008FD
:100080006D3B0008191500086D3B00086D3B00082A
:100090006D3B00086D3B00086D3B00086D3B0008A0
:1000A0006D3B00086D3B00086D3B00086D3B000890
:1000B0006D3B00086D3B00086D3B00086D3B000880
:1000C0006D3B00086D3B00086D3B00086D3B000870
:1000D0006D3B000889160008E91600084117000862
:1000E0006D3B00086D3B00086D3B00080000000000
:1000F0000000000000000000000000000000000000
:0C01000000000000000000005FF808F1A3
:10010C0008B540F29040074BC2F200001B1A062BB8
:10011C0000D808BD40F20003C0F20003002BF8D059
:10012C009847F6E79304002008B540F2904040F25F
:10013C009043C2F20003C2F200001B1A9B1003EBA7
:10014C00D373591000D108BD40F20002C0F2000276
:10015C00002AF8D09047F6E710B540F29044C2F26E
:10016C000004237873B9FFF7CBFF40F20003C0F211
:10017C0000032BB144F2B810C0F60000AFF30080BE
:10018C000123237010BD00BF08B540F20003C0F27C
:10019C0000034BB144F2B81040F29441C0F6000099
:1001AC00C2F20001AFF3008040F28C40C2F20000BA
:1001BC0003682BB140F20003C0F2000303B198476F
:1001CC00BDE80840B0E700BF134B002B08BF114B34
:1001DC009D46A3F5803A00218B460F461148124AE2
:1001EC00121A03F08BFD0D4B002B00D098470C4BD3
:1001FC00002B00D098470020002104000D000B4874
:10020C0003F0B0FC03F0E6FC2000290003F076FCC0
:10021C0003F0B6FC00000800000000000000000025
:10022C000000000090040020D0200020AD3B00080E
:10023C004FF48053C4F202031A68194642F4803218
:10024C001A600A684FF480539003C4F20203F8D585
:10025C004FF40052C4F202021068194640F010002C
:10026C001060106840F0020010605A685A605A68BA
:10027C005A605A6842F480625A605A6822F47C12BE
:10028C005A605A6842F4E8125A601A6842F0807256
:10029C001A600A684FF480539201C4F20203F8D535
:1002AC0059681A4621F003015960596841F002015E
:1002BC005960536803F00C03082BFAD103F046BACB
:1002CC004FF46D42CEF20002D0684FF6FF014FF4AE
:1002DC0000730140C0F2FA530B43D360704700BF68
:1002EC0010B503F00BF940F2AC44031DC2F200044C
:1002FC001846236002F0EEFF20680021BDE8104094
:10030C0003F03EB840F2AC43C2F200030146186859
:10031C0003F036B840F2B043C2F2000358784FF401
:10032C00B84240F08000C4F200020121A2F84C0057
:10033C001970704708B540F2B043C2F200030022B6
:10034C001A705A709A7001F099FABDE8084000F0E2
:10035C005FBA00BF40F2B043C2F200031B78022B1D
:10036C0001D001F055BC704710B540F2B044C2F258
:10037C0000042378022B09D04FF4B843C4F20003D5
:10038C0080210022A3F84C10227010BD01F096FCC5
:10039C00F2E700BF704700BF01F0B0BC01F07EBEB9
:1003AC0030B5408883B0030A022B22D0032B0ED029
:1003BC00012B02D0022003B030BD44F2A423C0F6BE
:1003CC0000031C7800200B60146003B030BDC3B276
:1003DC00032B18D0062BEDD840F20404C2F2000413
:1003EC0054F8235000200D6054F823301B78136010
:1003FC00E1E744F2D413C0F600035C8800200B60E4
:10040C00146003B030BD0191009200F065FD0199BC
:10041C00009A0860037800201360CCE730B544786C
:10042C0083B0092C0AD8DFE804F00C090909091477
:10043C00240935054388DBB2012B35D0022003B0EB
:10044C0030BD0A68002313700A681846537003B055
:10045C0030BD408840F2B04100F07F00C2F2000194
:10046C0040F22132C0F60002487000201A6003B03E
:10047C0030BD4088030A022B36D0032B22D0012B2F
:10048C00DCD144F2A423C0F600031C780B600020DE
:10049C001460D4E740F2B043C2F200030A689B78C0
:1004AC000020137003B030BD40F2B042C2F2000223
:1004BC0011789370022908BF0020C0D001F0A8FB6E
:1004CC000020BCE7C3B2032B17D0062BB6D840F2E2
:1004DC000404C2F2000454F8235000200D6054F8B8
:1004EC0023301B781360AAE744F2D413C0F6000340
:1004FC005C880B6000201460A1E70191009200F071
:10050C00EBFC0199009A086003780020136096E7D1
:10051C0043780BB1022070470A68184613700A68BA
:10052C005370704770B54478838804F0FD0223F053
:10053C007F00012A0E46C1B203F07F0002D044B105
:10054C00022070BDE31E5A425A4100F0BDFB002050
:10055C0070BD356800F002FC2870336820465C7072
:10056C0070BD00BF2DE9F04104460D4617461E46EE
:10057C0001F0F2FC022801D0BDE8F0812378C3F32E
:10058C004118B8F1000FF7D103F01F03012B19D05C
:10059C00022B09D0002BEFD1204629463A46334690
:1005AC00BDE8F041FFF73ABFA288647822F07F01E2
:1005BC0004F0FD06012EC9B202F07F000CD09CB1F4
:1005CC001846D9E76378002BD6D12A6818461370E1
:1005DC002A685370BDE8F081033C6242624100F02E
:1005EC0073FB4046BDE8F0812E6800F0B7FB30701D
:1005FC002B6820465C70BDE8F08100BF10B500216F
:10060C000446012200F060FB01222046802100F00C
:10061C005BFB40F2B043C2F2000300221A7110BD22
:10062C002DE9F0410546F0B901F0FD06012E18D177
:10063C0040F2B044C2F20004032908BF207133D049
:10064C002379012B1FD02FD3062B63D101460246F1
:10065C0000F0CCF9E36B257123B39847E563BDE853
:10066C00F081022903D0BDE8F04100F00BBD40F24F
:10067C00B044C2F200042379023B032BF3D8DFE829
:10068C0003F074747063216B626B00F0AFF9636BF1
:10069C00984200F09180226B1B1A02446363226320
:1006AC00BDE8F081BDE8F08140F2B045C2F2000532
:1006BC006E1D31460020082200F098F9082835D12B
:1006CC0095F80580B5F80B30C8F3C01805F10D028C
:1006DC005FFA88F7AE636B632A63002F64D03046F1
:1006EC0040F2B045C2F2000505F1300100F10807F7
:1006FC0005F1340205F13C03202627636663FFF7FE
:10070C0031FF0146002859D001280FD105232B7148
:10071C00BDE8F0810146324600F0D6FA2846324652
:10072C00802100F0D1FA2571BDE8F081002001464E
:10073C00012200F0C9FA00208021012200F0C4FA45
:10074C0000232B71BDE8F081E36B40F2B04500262D
:10075C00C2F200052671002BA4D09847EE63BDE8C9
:10076C00F08106232371BDE8F081216B626B0020C0
:10077C0000F092F9236B626B1918121A40F2B04315
:10078C0021636263C2F20003002A8BD11B79022B16
:10079C0006D044F25033C0F600035B79984281D006
:1007AC0004232371BDE8F081002B98D0202B1FD897
:1007BC0001232B71BDE8F081A06B91E7AB6B1A782C
:1007CC00D2090ED0DB886A6B9A423CBF03232B7193
:1007DC0004D384BF6B631A46022323710020216B60
:1007EC00C6E7024600F058F905232B71BDE8F081ED
:1007FC0038463946012200F067FA3846802101223A
:10080C0000F062FA85F80480BDE8F08100F06CB865
:10081C002DE9F00700214FF4C04344F2503683B069
:10082C000A460F46C4F20003C0F6000670244FF4CB
:10083C00C06A4FF480694FF40078ADF806707518F3
:10084C001C809F8068794FEA820C0444A4B21C81FE
:10085C0028790CF1804C3E280CF5B84C3FD9450951
:10086C00013DAD02ADB29D819D896FEA45456FEAB0
:10087C005545ADB29D8175580444A4B2032D05D8DD
:10088C00DFE805F02A242702ADF806A0BDF8060023
:10089C00103380B240F4405040F02000104301323D
:1008AC0080B2072A01F10C01ACF80000C5D14FF45D
:1008BC00B843C4F200034FF41E418022A3F8401049
:1008CC00A3F84C2003B0BDE8F0077047ADF80690D4
:1008DC00DCE7ADF80670D9E7ADF80680D6E745023F
:1008EC0005F47C459D81C6E74FF48053C4F20203A6
:1008FC0099694FF4006241F00401C4F2010230B472
:10090C00996151684FF6FF7321F440215160516891
:10091C0041F40031516000BF013BFCD14FF4006346
:10092C00C4F2010359684FF4614221F4403159601B
:10093C005868CEF2000240F480204FF480115860C9
:10094C00C2F88010BFF34F8FBFF36F8F40F2580384
:10095C00C2F200031A684FF42243C0F24A439A428F
:10096C001EBF4FF48053C4F202035A684FF48051F7
:10097C001CBF42F480025A60C4F20201CD694FF4EC
:10098C00B843C4F20003002245F4000501244FF4DF
:10099C008060CD61A3F84040A3F8502030BCA3F890
:1009AC004C20A3F84420A3F840007047000100F14C
:1009BC00804303F5C0439889C0F30900704700BF1A
:1009CC00830003F1804303F5B8431B88420003F016
:1009DC003003202B01BF44F250338018C0F60003C3
:1009EC0003EB80030CBF587900207047030103F11F
:1009FC00804303F5C0432DE9F003B3F80880B3F846
:100A0C000CC01FFA88F81FFA8CFC87004FEA4808C4
:100A1C00CCF3090007F1804708F18046904207F5B6
:100A2C00B84706F5C0464FEA500431D89A8904F10C
:100A3C00FF3902F47C429A811FFA89F9A4B146F27B
:100A4C000405C4F20005454405EB89050A46334606
:100A5C0033F8044BAB4222F8024BF9D109F10109EE
:100A6C0001EB490106EB89061CF0010F1CBF338812
:100A7C000B703B8823F0F0039B049B0C83F44053D6
:100A8C0043F4004343F080033B80BDE8F003704720
:100A9C004FF0FF30F9E700BF2DE9F00103460701E5
:100AAC0044F2503003EB430407F18047C0F60000DA
:100ABC0000EB840007F5C0473D884079ADB2824217
:100ACC0038BF10466D004FEA830CC0F34F0405F19C
:100ADC0080420CF1804C04F1FF3802F5C0420CF559
:100AEC00B84C1FFA88F8A4B146F20406C4F200060A
:100AFC002E4406EB88060C46134634F8025B23F8AA
:100B0C00045BB342F9D108F1010802EB880201EB56
:100B1C004801C30744BF0B78138083B2BB80BCF879
:100B2C000030BDE8F00123F0C0031B051B0D83F062
:100B3C00300343F4004343F08003ACF800307047BB
:100B4C00030103F1804303F5C0432DE9F00F1E8927
:100B5C00B3F80C90B6B29C891FFA89F94FEA800A57
:100B6C007600C9F309000AF1804A04F47C4406F1CA
:100B7C0080484FEA500C0AF5B84A9C8108F5C048E9
:100B8C000CF1FF35BCF1000F1FD046F20403C4F288
:100B9C0000030C683344561E33F804BC0F1987F855
:100BAC0008B033F804BC013434400F19013D4FEA4E
:100BBC001B2B013487F808B06F1C03F1040304EA03
:100BCC000604E9D108EB8C080C6019F0010F08D071
:100BDC000B68B8F800405D1C013A2A400B441C72AB
:100BEC000A60BAF8003023F0F0039B049B0C83F4EA
:100BFC00405343F4004343F08003AAF80030BDE8AF
:100C0C00F00F70472DE9F0074FEA001909F1804900
:100C1C0044F2503400EB400709F5C0494B680D68AD
:100C2C00C0F60004B9F8006004EB87046479013A5B
:100C3C00ED1A1FFA86FC15404FEA80084FEA4C0C5F
:100C4C00A54234BF284620460CF1804C08F1804860
:100C5C004FEA500A0CF5C04C08F5B8480AF1FF34BD
:100C6C00BAF1000F13D066465D1C15404F190B44AA
:100C7C001B7A3F7A013C43EA07276B1C651C26F85C
:100C8C00047B03EA0203EFD10CEB8A0C4B60C40724
:100C9C0006D5CC18247A01331A40ACF800404A60CF
:100CAC0083B2A9F80430B8F8003023F0C0031B0558
:100CBC001B0D83F0300343F4004343F08003A8F88A
:100CCC000030BDE8F0077047800000F1804303F569
:100CDC00B843188800F4C060B0F5806F10D080293C
:100CEC0019880ED001F4405151B1E2B91A8822F0A2
:100CFC00F0025204520C42F4004242F080021A807C
:100D0C00704701F030010029FAD0CAB11A8822F0DC
:100D1C00C0021205120D82F0100242F4004242F0A1
:100D2C0080021A8070471A8822F0F0029204920C0A
:100D3C0082F4805242F4004242F080021A807047E2
:100D4C001A8822F080021205120D82F0200242F461
:100D5C00004242F080021A80704700BF800000F110
:100D6C00804000F5B8408029008808D000F440503D
:100D7C00B0F5805CDCF1000050EB0C00704700F02B
:100D8C003000B0F110035842584170474FF4B8424C
:100D9C00C4F2000238B5B2F8443042F2CC019BB236
:100DAC00C2F200010B8019041BD403F4806080B2E2
:100DBC00002877D11C055BD4D8047DD499050CD5BB
:100DCC004FF6FF5140F2F043A2F84410C2F2000378
:100DDC001A78002A5FD1FFF7DFFABDE83840FFF739
:100DEC00DDBAB2F8440000F00F00830003F1804339
:100DFC0003F5B8431A884400150624D41D881A88B4
:100E0C0044F250310444C0F6000122F0F00201EB30
:100E1C00840152058C68520D15F4006F42F080026B
:100E2C001A8014BF0321012104B1A04740F2F04302
:100E3C00C2F20003142201201A70FFF763FABDE816
:100E4C003840FFF7ABBA1A8844F250310444C0F66C
:100E5C00000122F0F00201EB84015205520D8C6866
:100E6C0042F400421A80002CE0D00221A047DDE7BA
:100E7C004FF2FF73A2F84430B2F840309BB243F00B
:100E8C000803A2F84030FFF73DFAFFF76DFABDE812
:100E9C003840FFF783BA013AD2B210461A70FFF706
:100EAC0031FA98E74FF6FF33A2F84430FFF742FAD5
:100EBC00BDE83840FFF772BA4EF6FF73A2F8443023
:100ECC00B2F8403023F008031B041B0CA2F840308E
:100EDC00FFF760FA81E700BF30B444F6D41486B053
:100EEC0001ADC0F600040FCC0FC522684FF2E873B9
:100EFC002A70C1F6FF73197806A801F00F0202449C
:100F0C0000EB111111F8141C12F8140C40F2200310
:100F1C00C2F200034FF2E97259809880C1F6FF7259
:100F2C00107806AC00F00F02224404EB101010F8FD
:100F3C00140C12F8142C4FF2EA711A81D880C1F6F5
:100F4C00FF7108784FF2EB7100F00F02224404EBB2
:100F5C00101010F8140C12F8142C58819A81C1F648
:100F6C00FF7108784FF2EC7100F00F02224404EB91
:100F7C00101010F8140C12F8142CD8811A82C1F627
:100F8C00FF7108784FF2ED7100F00F02224404EB70
:100F9C00101012F8142C10F8140CC1F6FF715882B2
:100FAC009A8208784FF2EE7100F00F02224404EBA3
:100FBC00101010F8140C12F8142CD8821A83C1F6E5
:100FCC00FF7108784FF2EF7100F00F02224404EB2E
:100FDC00101010F8140C12F8142C58839A83C1F6C4
:100FEC00FF7108784FF2F07100F00F02224404EB0D
:100FFC00101010F8140C12F8142CD8831A84C1F6A3
:10100C00FF7108784FF2F17100F00F02224404EBEB
:10101C00101010F8140C12F8142C58849A84C1F681
:10102C00FF7108784FF2F27100F00F02224404EBCA
:10103C00101010F8140C12F8142CD8841A85C1F660
:10104C00FF7108784FF2F37100F00F02224404EBA9
:10105C00101010F8140C12F8142C58859A85C1F63F
:10106C00FF710978184601F00F02224404EB1111AC
:10107C0012F8142C11F8141CD9851A8606B030BC41
:10108C00704700BF08B572B60120FFF73BF900BFEF
:10109C00FDE700BF02289CBF44F2A433C0F6000356
:1010AC00F0B498BF53F820500B6888BF002583B16B
:1010BC0040F25804C2F200042468A0B97AB140F29C
:1010CC00F444C2F2000440F62C0606FB0044C4F8BB
:1010DC0010380B79022B0AD90220F0BC7047B4FBF4
:1010EC00F3F4AC60EBE76408002AE8D1F7E7012BD6
:1010FC0008BF4FF4405404D0022B0CBF4FF40054E3
:10110C0000244AB340F2F444C2F2000440F62C0628
:10111C0006FB00468F7906F50166A7F1070C5FFA0E
:10112C008CFCBCF1010F33714B791BD9002BD3D143
:10113C00B771002632BB40F62C07E96807FB004468
:10114C0021F4B0510E434FF6FF71EE60104684F857
:10115C001538A4F82218C0E72E6926F440563443FB
:10116C002C61CFE7022BB771B6D8012B16D0022B0E
:10117C0010D14FF480668979082908BF46F480564F
:10118C00002AD8D040F62C0202FB0044002084F840
:10119C001538A2E7002BCCD00026ECE74FF4C06644
:1011AC00E9E700BF2DE9F047814602F0A7F940F2CC
:1011BC00F443B9F1020FC2F200031BDD40F62C0719
:1011CC0009EB490507FB093705EB451546191A3696
:1011DC0070350024301902F07DF802F08FF92844A4
:1011EC00023002F0F7F80B34632CC7F82808F1D161
:1011FC00BDE8F08709EB490808EB481840F62C04C9
:10120C00404404FB093400F11A0708F12E0608F1DA
:10121C004F090025781902F05DF802F06FF994E897
:10122C000C00D2431344C3F309033044B3F5007FDD
:10123C0000F10200D8BF002104DD94F8241800311D
:10124C0018BF012102F09CF802F058F9484494F8B8
:10125C002518023002F094F802F050F908F1700AE7
:10126C00504494F82618023002F08AF802F046F93D
:10127C005044023002F0AEF80B35632DC4F8280848
:10128C00C8D1BDE8F08700BF4FF46050C4F2010034
:10129C0010B5C46840F2F4430022C2F2000324F0FB
:1012AC00040444211A605A60C3F80824C3F80C24BF
:1012BC00C4F20201C4600B6823F001030B6001F05F
:1012CC0009FD41F2EC53C2F20003012283F88C2792
:1012DC0010BD00BF58234FF4605030B4C4F2020369
:1012EC00C4F201005C68C56840F2F44341F2EC5270
:1012FC00C2F20003C4F58064002145F00405C2F27B
:10130C0000021C605C60C3F80814C3F80C14C560C0
:10131C0082F88C1730BC704738B50220FFF746FBBB
:10132C0040F2F444C2F20004D4F80824D4F80C348B
:10133C00D2431344C3F3090398422DD2022004F57F
:10134C0081614FF48062FFF7FBFBD4F80C04D4F8F6
:10135C000854C0F580631D44C5F309059D42A8BF20
:10136C001D46C5B1204400F58260294601F0DAFC27
:10137C00D4F80C04D4F808242844C0F30900C0F5B0
:10138C0080639D18C5F309059D42A8BF1D46C4F88E
:10139C000C04002DE6D138BDFFF774FED5E700BF75
:1013AC002DE9F0410E46074659B340F2F445C2F21E
:1013BC0000052B6840F2FE38C3F57F726C6803326F
:1013CC001444C4F30904A242B8BFC3F5806434B911
:1013DC0042456B60D4BFC3F5806440F2FF34B44225
:1013EC0028BF344603F1080039462844224602F04F
:1013FC00F1F92B68361B2344C3F3090327442B60F4
:10140C00DAD1BDE8F08100BF0022C4F202021168FB
:10141C0070B540F2F444C2F2000401F400514423CC
:10142C005160C4F20203D4F80C14D4F818281868CC
:10143C000A4420F00100C2F30902C4F80C2418601D
:10144C0094F81D382BB1D4F808349B1AC3F3090354
:10145C00ABB141F2EC53C2F2000393F88C37CBB131
:10146C00002584F8265802F049F894F826187230B2
:10147C0001F086FF2846BDE87040FFF74DBF012301
:10148C0084F81E3841F2EC53C2F2000393F88C3707
:10149C00002BE5D14426C4F20206336840F2F44531
:1014AC00DB07D4F80844C2F2000520D4C2F58062F0
:1014BC001444C4F309049442A8BF1446C4B10123D4
:1014CC0085F8263802F01AF895F82618723001F0D3
:1014DC0057FFD5F80C342B4403F58263F36074602A
:1014EC00336843F001033360C5F8184870BD70BD14
:1014FC004FF46053C4F201031A6822F040021A60E0
:10150C00DA6842F04002DA6070BD00BF0022C4F21B
:10151C000202F8B5116840F2F444C2F2000401F082
:10152C00007104F5825680235160C4F20203D4F892
:10153C00381C726818680A4420F00100C2F30902D2
:10154C00C4F8382C1860737A002B32D1D4F8343CA0
:10155C008025C4F202052968C90729D4C2F5806226
:10156C00D718C7F309079742A8BF1746A7B101239D
:10157C00B37401F0C3FFB17CD53001F001FFD4F896
:10158C00383C234403F63C43EB606F602B6843F01C
:10159C0001032B607760F8BD4FF48843C4F200035D
:1015AC001A6822F040021A60DA6842F04002DA60EF
:1015BC00F8BDD4F8343C991AC1F309010029C7D1FC
:1015CC000121B172C4E700BF0022C4F20202F8B5D7
:1015DC001168284C01F0200104F580661C23516031
:1015EC00C4F202036168326918680A4420F00100F1
:1015FC00C2F3090262601860737D002B30D123683E
:10160C001C25C4F202052968C80728D4C2F58062DB
:10161C00D718C7F309079742A8BF17469FB10123F4
:10162C00B37701F06BFFB17F00F59C7001F0A8FE61
:10163C006268114B1344EB606F602B6843F001033D
:10164C002B603761F8BD4FF49043C4F200031A6865
:10165C0022F040021A60DA6842F04002DA60F8BD0B
:10166C002368991AC1F309010029C9D10121B17567
:10167C00C6E700BF541900205C1900204FF46052DB
:10168C00C4F20102116840F2F443C2F2000310B438
:10169C00D3F828084C0641BF01240460D06820F020
:1016AC00400048BFD060CA070FD54FF46052B3F862
:1016BC002008C4F20102116840F02000A3F82008B1
:1016CC008B0602D513689C06FCD44FF46053C4F20D
:1016DC0001035B685DF8044B704700BF4FF488430F
:1016EC00C4F200031A68124910B44869540641BF89
:1016FC0001240460D86820F0400048BFD860D007AF
:10170C000DD54FF488428889C4F20002136840F06A
:10171C0020008881990602D513689B06FCD44FF4EF
:10172C008843C4F200035B685DF8044B704700BF4C
:10173C00341500204FF49043C4F200031A68114989
:10174C005006096841BF01200860D96821F04001AA
:10175C0048BFD960D0070ED50B4B4FF49042C4F262
:10176C000002188B116840F020008906188302D5FE
:10177C0013689B06FCD44FF49043C4F200035B68DF
:10178C00704700BF741D0020541D00200228CCBFE0
:10179C0000230123082988BF002370B505460C4699
:1017AC0003B970BD01F0AAFE05EB450304EB8402FE
:1017BC0004EB420203EB4316931918441A3001F060
:1017CC0089FD022C1DD0052C3DD0082CE9D101F04F
:1017DC0095FE40F2F443C2F2000340F62C0202FBE9
:1017EC0005357036304495F82618023001F0C8FDE6
:1017FC0001F084FE3044023001F0ECFDC5F82808FD
:10180C00CFE701F07BFE40F62C0303FB05F540F21D
:10181C00F443C2F2000359595A195368C9430B4493
:10182C00C3F309033044B3F5007F00F13000D8BF97
:10183C00002104DD92F82418003118BF0121BDE805
:10184C00704001F09DBD01F059FE40F2F443C2F22C
:10185C00000340F62C0202FB05353044513095F85C
:10186C002518ECE708B50020FFF79CFC0120FFF7DA
:10187C0099FCBDE80840022094E400BF2DE9F04F2C
:10188C0083B001F03BFE41F2EC530024C2F20003A2
:10189C004FF46D4183F88D47CEF20001CA684FF4C6
:1018AC006145C2F30222111DC2F10703042B28BFAC
:1018BC000423062988BFD41E012202FA03F3013B3C
:1018CC00134003FA04F44FF461432401CEF20003F5
:1018DC00E4B24FF480514FF46D4283F80C43CEF2D6
:1018EC0000021960D2680124C2F30222C2F107037C
:1018FC00042B28BF04239C40111D062904F1FF343E
:10190C008CBF033A002204F0010494404FF461436D
:10191C002401E4B2CEF200034FF480414FF46D4247
:10192C0083F80E43CEF200021960D368CEF20005A4
:10193C00C3F30223191DC3F10702042A28BF042292
:10194C00062988BFDC1E4FF0010303FA02F101F1F6
:10195C00FF3198BF00241940A1400901C9B24FF4CE
:10196C0000324FF48056C4F2020685F811132A6037
:10197C00B16900221943B161C4F2010251680F3000
:10198C0041F000715160019301F0A4FCB26940F286
:10199C00F44442F48042B261F269C2F2000442F4AF
:1019AC00C022F2617269002142F001027261F26898
:1019BC00204642F48042F260376941F6840247F4D3
:1019CC0000373761D6F810E040F258074EF4802EFD
:1019DC00C6F810E0D6F80CE0C2F200072EF4804EE8
:1019EC00C6F80CE0D6F810E048F2B5182EF4003E1C
:1019FC00C6F810E0D6F810E0C1F64E382EF4802E62
:101A0C00C6F810E002F07AF90020FFF7CBFB4FF498
:101A1C006050C4F20100C2684FF4165A42F40052EE
:101A2C0042F00802C2604269002642F0C1024261E3
:101A3C003A684FF00809A8FB0212920A8260C4F8B7
:101A4C0010A80169582221F440510161C168C4F207
:101A5C00020221F4B05184F8146884F81698C1601D
:101A6C00106843F60401C4F201014FF6FF7B40F409
:101A7C00855E04EB090084F81568A4F822B8C2F856
:101A8C0000E091604FF0440ED0604FF48060C4F2DF
:101A9C00020E5060DEF80020019B184642F09203C3
:101AAC00CEF80030CEF80810FFF77CFB4FF4884CD2
:101ABC00C4F2000CDCF80C3004F5815E43F40053E6
:101ACC0043EA0903CCF80C30DCF8143004F58250EE
:101ADC0043F0C103CCF81430DCF814206C2342F42E
:101AEC000072CCF814203A68C4F202035208A8FB26
:101AFC000212920ACCF80820CEF81CA0DCF81020B8
:101B0C0044F2044122F44052CCF81020DCF80C20B2
:101B1C00067022F4B05280F80290CCF80C201A68AF
:101B2C00C4F200014670A0F80EB042F4855C04F6D5
:101B3C00340E4FF480608022C3F800C0C4F202025D
:101B4C009960C3F80CE058601368022043F09203CC
:101B5C0013609160FFF726FB4FF49043C4F200032F
:101B6C00DA6804F5C35042F4005242EA0902DA6022
:101B7C005969302241F0C10159615969C4F202021C
:101B8C0041F400715961396844F604074FEA510C6D
:101B9C00A8FB0C184FEA98219960C0F808A01969A5
:101BAC00C4F2000721F440511961D968067321F47D
:101BBC00B05180F80E90D960136804F5835443F447
:101BCC0085534673A0F81AB01C2113604FF4806340
:101BDC009760C4F20201D46053600A684FF46D43FD
:101BEC0042F092020A60CEF200038F602022D96884
:101BFC0085F8256340216A60DA6885F82663696098
:101C0C00DB68802285F827636A6003B0BDE8F08F3B
:101C1C0041F2EC52C2F200020121582310B4C4F27A
:101C2C00020382F88D171C6840F2F442C2F20002E3
:101C3C004FF4806102F1080024F001041C60D860AC
:101C4C0059601C684FF4605044F001041C60C4F2ED
:101C5C000100C4686C2344F48A74C460C4F20203A7
:101C6C001C6802F6340024F001041C60D860596032
:101C7C001C684FF4884044F001041C60C4F200005E
:101C8C00C468302344F48A74C460C4F20203186834
:101C9C0002F5835220F001001860DA60596019686F
:101CAC004FF4904241F001011960C4F20002D36874
:101CBC005DF8044B43F48A73D360704741F2EC52E5
:101CCC00C2F2000200214FF4605382F88D17C4F267
:101CDC000103D9684FF4884221F40051D960C4F251
:101CEC000002D1684FF4904321F40051D160C4F24A
:101CFC000003DA6822F40052DA6070472DE9F047ED
:101D0C0041F2EC54C2F2000494F88D370BB9BDE8E3
:101D1C00F08701F0F3FBD4F890578146002D68D181
:101D2C001423464EC4F8903701F0E8FB05EB450848
:101D3C0008EB481808F11808804408F12E0001F04F
:101D4C0039FB002808F1440014BF4FF0030A4FF090
:101D5C00010A14BF0227002701F02CFB002818BF32
:101D6C00574608F14F0001F025FB08B147F0080772
:101D7C0032884FF6F47313403B43BFF35F8FD6E8C2
:101D8C005F1F914203D1C6E8503F0028F7D1BFF343
:101D9C005F8FEDD10135032D06F62C06C4D109F168
:101DAC000F0001F007FB94F88C3741F2EC54984289
:101DBC00C2F20004ABD00BB358234FF46051C4F201
:101DCC000203C4F201015868CD6840F2F443C2F238
:101DDC0000030022C0F5806045F0040518605860CF
:101DEC00C3F80824C3F80C24CD6084F88C27BDE814
:101DFC00F087013DC4F89057BDE8F0874FF4605070
:101E0C00C4F20100C56840F2F442C2F2000225F0AF
:101E1C000405442113605360C2F80834C2F80C3432
:101E2C00C4F20201C5600B6823F001030B6000F0E3
:101E3C0051FF012384F88C37BDE8F087140D002086
:101E4C0002282DE9F843044605D004282BD0062897
:101E5C002BD0BDE8F883002740F2F446C2F200060E
:101E6C0040F62C05012905FB0765F2D1D5F80824AD
:101E7C00D5F80C34D24313442046C3F30908FEF7BB
:101E8C0095FD3FB941F2EC52C2F2000292F88C3748
:101E9C00002B4FD1804502D395F81D383BB185F806
:101EAC001748BDE8F8830127D6E70227D4E705F5E4
:101EBC008168204641464FF48062FEF741FE44F2B1
:101ECC00A433C0F6000303EBC7021469D5F80C0465
:101EDC002268D5F80814D207BBD4C0F5806211442F
:101EEC00C1F309099145A8BF9146B9F1000F26D05D
:101EFC0040F62C0303FB0766012386F8263801F015
:101F0C00FDFA07EB470707EB47173844723095F893
:101F1C00261801F035FAD5F80C3408334344E36045
:101F2C00C4F80490236843F001032360C5F81898A3
:101F3C00BDE8F8833846BDE8F843FFF7EDB953F830
:101F4C0027301A6822F040021A60DA6842F0400228
:101F5C00DA60BDE8F88300BF2DE9F843034600784A
:101F6C0000F07F00212802D00220BDE8F883988879
:101F7C00C0B2002800F08A80022800F08980042872
:101F8C00F2D10226587821286DD022282ED0202874
:101F9C00EAD1DA88072AE7D140F62C0101FB06F1D9
:101FAC0040F2F442C2F2000201F58161501814466D
:101FBC003EB941F2EC55C2F2000595F88C57002D54
:101FCC006AD164584168611AC1F30901002961D0D2
:101FDC0040F62C0101FB0621012281F81D28304618
:101FEC0003F10801BDE8F843FFF754B840F62C079D
:101FFC0007FB06F7B3F8028040F2F445C2F2000585
:10200C00EC1908F0010384F8253801F077FA4FEA4F
:10201C00460909EB060303EB4313184494F82518FF
:10202C00513008F0020801F0ABF984F8248801F073
:10203C0065FAEA596368D2431344C3F30903B3F551
:10204C00007FD8BF002104DD94F82418003118BF9C
:10205C0001214E4406EB46163044303001F090F925
:10206C000020BDE8F883DB88072B7FF47DAF40F2BE
:10207C00F44040F62C04C2F2000004FB060000F50C
:10208C000160086000201360BDE8F883064679E71C
:10209C00012677E70A46A2E73246A0E72DE9F04F82
:1020AC0040F2F44341F2EC5CC2F200038BB0C2F29A
:1020BC00000CB04E0293002503F5816A03F5026B08
:1020CC001C46CDF810C0002D00F0F0813368676815
:1020DC00D3F80490D4F8008001F010FA94E80C00C6
:1020EC00D2431344C3F30903B3F5007FD8BF0021D7
:1020FC0004DD94F82418003118BF012105EB4503C9
:10210C0003EB4313C9F580691844C7EB0808C7EB08
:10211C0009073030C7F30907C8F3090801F030F993
:10212C00B84500F29880C4F80090B4F82078B4F860
:10213C002238BB423ED0904B0222181F15F800806B
:10214C00EB5C6FF05E014FF0200C4FF0000EADF821
:10215C001C3040463B0A8DF818108DF819C0ADF8AC
:10216C001AE08DF82070ADF81E208DF82130FEF7A6
:10217C0027FCF8B1404606A90A22FEF78DFC0A2876
:10218C0008BF07F0600340F07F81B4F82028BFF34C
:10219C005F8F83EA0201DBE85F0F904204D1CBE84A
:1021AC005C1FBCF1000FF6D1BFF35F8FEDD15F4028
:1021BC00A4F82278DFF8C4E121681EF805700391B9
:1021CC003846D4F80490FEF7FBFB804668B3039ABC
:1021DC00C9EB0209C9F30903002B50D094F8162857
:1021EC00072A00F0CF8021464FF480623846FEF774
:1021FC0009FDB8EB00077842784184F81C0801F01F
:10220C007DF994E80C00D2431344C3F30903B3F5EE
:10221C00007FD8BF002100F32D8105EB450303EBB4
:10222C0043131844303001F0ABF894F81E38ABBBB4
:10223C0094F81708002841D10135032D04F62C041D
:10224C000AF62C0A06F108060BF62C0B7FF43BAFB2
:10225C000BB0BDE8F08FB4F82038BFF35F8F43F0BC
:10226C004002DBE85F1F994204D1CBE85E2FBEF140
:10227C00000FF6D1BFF35F8F3FF455AFEBE794F847
:10228C001C28002AD1D019461A4684F81C38384626
:10229C00FEF702FC94F81E38002BC9D0284604F532
:1022AC0001610022FEF7F6FE4FF0000084F81D08D5
:1022BC0084F81E0894F817080028BDD0DDF808C073
:1022CC00DFF8BCE0CCEB0A037344A3F58168D8F8C3
:1022DC000020A3F204473B68D2431344C3F309091B
:1022EC00FEF764FB8145A7D304F5816949464FF499
:1022FC00806294F81708FEF723FCD6F804C0D8F8CF
:10230C000020DCF800303968D8072ED4C1F5806382
:10231C0003EB0208C8F309089845A8BF9846B8F122
:10232C00000F00F0B480012384F82638CDF804C0E7
:10233C0001F0E4F805EB450303EB4313184472304A
:10234C0094F8261801F01CF83B68DDF804C008333B
:10235C004B44CCF80C30CCF80480DCF8003043F063
:10236C000103CCF80030C4F818884FF0000184F851
:10237C00171861E7B0430008CC430008D0430008AD
:10238C00FC0800206068984534BFC146994604EBB0
:10239C00000ECEF1000101F00301894538BF49461A
:1023AC000830B9F1040F204409F1FF3298BF4946B7
:1023BC0066D89EF80820012902F07F028EF80820CA
:1023CC0000F10103A9F102021BD04278022902F0AC
:1023DC007F02427000F10203A9F1030211D082784E
:1023EC00042902F07F028270A9F1040208BFC278AE
:1023FC0000F1030301BF02F07F02C270031DA9F1BB
:10240C00050289453FF4EFAEC1EB09094FEA99008B
:10241C00CDF80C904FEA8009C8B108318E44AEF16A
:10242C00040C059300216346844653F8040F0131D4
:10243C0000F07F308C454EF8040BF6D8DDF80CC05C
:10244C00059BE1454B44C9EB02023FF4CCAE197835
:10245C0001F07F011970002A3FF4C5AE5978012AAA
:10246C0001F07F0159703FF4BEAE9A7802F07F0202
:10247C009A70B8E694F82418003118BF0121CCE604
:10248C0003460029C0D094E7FEF7FCFD92E644F227
:10249C00A430C0F6000050F825301A6822F0400233
:1024AC001A60DA6842F04002DA605EE7DDF810C0CC
:1024BC009CF88C37002B7FF438AE07E610B5044639
:1024CC0001F0C4FC01462046BDE81040FEF768BF91
:1024DC0010B544F2D434C0F600042046FFF7EEFFEA
:1024EC0004F10800BDE81040E8E700BF70B540B348
:1024FC0044F6E8140E681F4DC0F6000403E055F8CE
:10250C00104F002C32D03046214601F0D9F900286A
:10251C00F5D12046FFF7D2FF44F6F010C0F60000CC
:10252C00FFF7CCFFA868FFF7C9FF1348FFF7C6FFFA
:10253C00E868FFF7C3FF1048FFF7C0FF2B68ABB18B
:10254C0070BD44F6E8100B4CC0F60000FFF7B6FF68
:10255C000A48FFF7B3FFA068FFF7B0FF0648FFF784
:10256C00ADFF54F8100F0028F0D170BD0448BDE841
:10257C007040A3E7E0430008DC4300083044000847
:10258C0034440008012810B503D0BDE810400F48B2
:10259C0094E70C6844F6F4112046C0F6000101F0F3
:1025AC008FF970B144F6FC112046C0F6000101F021
:1025BC0087F90028E9D101F0B5F8BDE81040FFF724
:1025CC0051B9BDE8104000F09FBF00BF8C4400081B
:1025DC002DE9F04F04468DB00E46002800F08A809D
:1025EC000D6844F604212846C0F6000101F068F994
:1025FC00002840F085804FF0FF35B4F1010B00F05E
:10260C008C80D6F804A044F608215046C0F6000190
:10261C0001F056F9002800F086806B1C05F10104CE
:10262C0006F1040614BF2B460023019608BF0324B1
:10263C00029344F64C21C0F60001504601F040F9DB
:10264C00002800F0528244F65021C0F6000150469A
:10265C0001F036F9002800F00D8144F65421C0F643
:10266C000001504601F02CF9002800F0528244F68B
:10267C005821C0F60001504601F022F9034600280B
:10268C0000F0438244F65C21C0F60001504601F094
:10269C0017F9002800F0478244F66021C0F60001CB
:1026AC00504601F00DF9002800F0428244F66421F6
:1026BC00C0F60001504601F003F9002800F02E820C
:1026CC0044F66821C0F60001504601F0F9F80028E4
:1026DC0000F0338244F66C215046C0F6000101F044
:1026EC00EFF8002800F02E82C948FFF7E7FE0DB086
:1026FC00BDE8F08FC748FFF7E1FE0DB0BDE8F08FE5
:10270C00284601F035FA0138022898BF05467FF6B5
:10271C0074AFC148FFF7D2FEE9E7C048FFF7CEFE21
:10272C000DB0BDE8F08F6A1CDFF8149305F10103BE
:10273C0008BF032314BFAB464FF0000B0193A9F560
:10274C00A67A019B9B45D2DA00F0D8FE46F267636D
:10275C000BEB4B02C6F266630BF1010B83FB0B1305
:10276C004FEAEB71C1EBA30302EB421202F1180624
:10277C0003EB83030644ABEB430244F610203032E8
:10278C000023C0F600008DF810208DF81130FFF7F3
:10279C0095FE04A8FFF792FE44F61820C0F6000040
:1027AC009F4FFFF78BFE9F48B41CFFF787FE0A363E
:1027BC00A7F594782EE044F61C20C0F60000FFF735
:1027CC007DFE44F62C20C0F60000FFF777FE28466D
:1027DC00FFF774FE44F63420C0F60000FFF76EFEDF
:1027EC0016F8033C44F63820C0F600005BBB237A95
:1027FC0008EB8303D3F85851FFF760FE2846FFF728
:10280C005DFE8848FFF75AFE4F4504F10B0406F1B4
:10281C000B0696D057F8040FFFF750FE8248FFF7CF
:10282C004DFE236844F62420C0F60000DBB1627A2A
:10283C0016F8033C0AEB8202D2F85051002BBAD0A6
:10284C00FFF73CFEBDE716F8013C44F6402008EBD0
:10285C008303D3F86451C0F60000FFF72FFE28461F
:10286C00FFF72CFECDE744F64820C0F60000FFF73A
:10287C0025FEC6E70123039318461F46BBF1010949
:10288C0000F08B80019B00EB800603F10C0800EB41
:10289C00460658F808AC44F67021A8F108035046D7
:1028AC00C0F600010193CB4601F00AF8F0B9B9F17A
:1028BC00010F00F0138158F804BC44F678215846F7
:1028CC00C0F6000100F0FCFF00286AD044F67C2121
:1028DC005846C0F6000100F0F3FF002800F08D8090
:1028EC005248FFF7EBFD0DB0BDE8F08F44F68021A8
:1028FC00C0F60001504600F0E3FFE0B9B9F1010F5A
:10290C0000F0FF8058F804BC44F688215846C0F605
:10291C00000100F0D5FF002872D044F690215846F3
:10292C00C0F6000100F0CCFF002800F0AC8040485D
:10293C00FFF7C4FDDBE644F69421C0F600015046D7
:10294C0000F0BEFF002840F0D780B9F1010F00F075
:10295C00CF8058F804BC44F69C215846C0F60001C0
:10296C0000F0AEFF002800F0918044F6A821C0F6DC
:10297C000001584600F0A4FF002800F0AC8044F69B
:10298C00AC215846C0F6000100F09AFF002800F078
:10299C00A9802848FFF792FDA9E62748FFF78EFD8E
:1029AC00A5E68246A9F10209B5F1FF3F14BFAB467B
:1029BC004FF0000B14E000F0A1FD0BEB4B0303EB0D
:1029CC00431333441844C27F00F11A03012A2846EA
:1029DC000FD183F807A039460BF1010BFEF7D6FE99
:1029EC00A345E8DB08F10808B9F1000F7FF451AFFB
:1029FC007DE61248FFF762FD79E64FF0010AD1E758
:102A0C008246039BA9F10209DDF808B07BBB31E0DB
:102A1C00D04600088C460008E044000854460008E4
:102A2C00FC440008DC43000830440008F046000871
:102A3C00104700082C4700083046000840450008A5
:102A4C002045000800F05AFD0BEB4B0303EB43133E
:102A5C003344184490F8202000F11A0339462846D4
:102A6C006AB983F809A0FEF791FE0BF1010B5C45E6
:102A7C00E8DCB7E7029B9C42B4DD00F03FFD344834
:102A8C00FFF71CFD33E64FF0010ABAE78246A9F1C5
:102A9C000209B5F1FF3F14BFAB464FF0000B13E03A
:102AAC0000F02CFD0BEB4B0303EB431333441844A6
:102ABC00C27F00F11A033946284642B983F808A0B0
:102ACC00FEF764FE0BF1010B5C45E9DC8AE721485B
:102ADC00FFF7F4FC0BE64FF0010AD8E71E48FFF7AE
:102AEC00EDFC04E64FF0020AD1E703900746C5E679
:102AFC001A48FFF7E3FCFAE5B9F1000F7FF499AD42
:102B0C00F5E51748FFF7DAFCF1E5032003930746D8
:102B1C00B4E60220012307460393AFE60620012307
:102B2C0007460393AAE60420012307460393A5E670
:102B3C000520012307460393A0E60720012307463F
:102B4C0003939BE6082001230746039396E600BFF8
:102B5C0090450008E8450008704500081446000838
:102B6C00CC450008002A70B42EDD46F267660139A8
:102B7C00C6F26666002500E0254686FB0243D417A4
:102B8C00C4EBA30303EB8304A2EB44026C1C3032B2
:102B9C008C4242551A4601DA002BEDD104EBD4726B
:102BAC00002352109A420355C2BF0346ED189818E1
:102BBC0007DD29781A7803F8011B834205F80129EF
:102BCC00F7D1204670BC704730220023027043704E
:102BDC0070BC0120704700BF002AF0B431DB18BF75
:102BEC00002735D046F2676C0139C6F2666C0025B9
:102BFC0000E025468CFB0243D617C6EBA30303EB80
:102C0C008306A2EB46026C1C30328C4242551A46AB
:102C1C0001DA002BEDD104EBD472002352109A424E
:102C2C000355C2BF0346ED18981807DD29781A78AA
:102C3C0003F8011B834205F80129F7D1E019F0BC18
:102C4C0070472D235242013900F8013B0127C9E797
:102C5C00302342700370F0BC01207047002870B420
:102C6C0031DB02BF302348700B702AD046F2676606
:102C7C00013AC6F26666002500E0254686FB003464
:102C8C00C317C3EBA40303EB8304A0EB44006C1C3D
:102C9C00303094424855184601DA002BEDD104EB44
:102CAC00D4704010002398420B55C4BF6D184018C7
:102CBC0007DD2A780B7801F8012B814205F80139E0
:102CCC00F7D170BC70472D234042013A01F8013B0B
:102CDC00CCE700BF70B541F68054C2F200044FF44B
:102CEC00807640F25403C2F20003324620460021A3
:102CFC0044F2D4351C60C0F6000500F0FFFF3246EC
:102D0C00A019002100F0FAFF05F55D70002384F88E
:102D1C000032FFF7D3FB05F57870BDE87040FFF784
:102D2C00CDBB00BF2DE9F04F91B069B341F6805691
:102D3C0040F25C0840F25407C2F20006451C0C46F7
:102D4C00C2F20008C2F2000796F80032032B49D8F1
:102D5C00DFE803F0524F1D0215F8013CD8F80020B3
:102D6C001A44527850073DD4432B00F08081442BF9
:102D7C0000F08881412B00F08F810023013C86F804
:102D8C00003205F10105DFD111B0BDE8F08F15F867
:102D9C00019CB9F15B0F04BF032386F8003221D0EC
:102DAC000023B9F10A0F86F800321BD0B9F10D0FD0
:102DBC0018BFB9F10A0F27D0B9F11B0F04BF0223BA
:102DCC0086F800320ED0B9F1080F18BFB9F17F0F99
:102DDC0000F09C80D8F800304B445B7813F0970FD0
:102DEC0040F00B81013C05F10105ADD111B0BDE8FE
:102DFC00F08F15F8019CD3E715F8019CB9F10D0F74
:102E0C0018BFB9F10A0FD7D10123C14886F8003297
:102E1C00FFF754FB3B68B34204D0BE48A0F5807169
:102E2C0000F0B6FFD8F80000327883185B781907E9
:102E3C0040F10382B8490A780B4600EB020E9EF86B
:102E4C0001E001311EF0080FF5D1002A4CD04FF0F3
:102E5C000009CC46ADF1040E4EF8043F82B1024499
:102E6C005278120723D45A1C03E09AF80110090770
:102E7C001DD4134612F8011B00EB010A0029F4D1F2
:102E8C0000228118497809070AD5591C0A780B4683
:102E9C0000EB020A9AF801A001311AF0080FF5D1E3
:102EAC0009F1010142B110292CD08946D4E783F8ED
:102EBC0000C05A780133E4E744F6E810DDF800A0CE
:102ECC00DFF870B2C0F6000004E05BF8100F0028C9
:102EDC0000F06781514600F0F3FC0028F5D1DBF8D7
:102EEC000430484601A9984741F6805000214FF420
:102EFC008072C2F200003E6000F000FF8748FFF7CE
:102F0C00DDFA6FE78648FFF7D9FAEDE73B68B34285
:102F1C007FF668AF41F68052C2F200029B1A002B7A
:102F2C0040F043817F48FFF7C9FAD7F800A00AF1B7
:102F3C00FF394846C7F8009000F088FF514602461A
:102F4C00484600F075FE41F68050C2F20000FFF7D3
:102F5C00B5FA41F68050C2F2000000F077FF3B68F2
:102F6C00F31A0344002B3FF43DAFB8BF2D2246F2B9
:102F7C00676ABFBF5B428DF800204FF0080B0DF164
:102F8C00010CA4BFEC464FF0090BC6F2666A002098
:102F9C0001E082B108468AFB0321DA17C2EBA102D9
:102FAC0002EB8201A3EB4103411C303359450CF871
:102FBC0000301346EDDB00230CF8013049101EBF26
:102FCC006346C01803EB010E07D001781A7803F89A
:102FDC00011B734500F80129F7D144F6B420C0F663
:102FEC000000FFF76BFA6846FFF768FA44F6B82062
:102FFC00C0F60000FFF762FAF4E6D7F800A05046DE
:10300C0000F024FF5146421C0AF1010000F010FEB2
:10301C008AF800905046FFF751FA3B6841F6805011
:10302C0003F10109C2F20000C7F8009000F00EFF96
:10303C00C9EB06030344002B08BF4B4653D19B1B23
:10304C00FF2B7FF6CFAE41F6805000214FF48072FB
:10305C00C2F20000386000F051FE2D48FFF72EFA46
:10306C003148FFF72BFA2D48FFF728FABAE63B68F0
:10307C001A78002A3FF481AE01332C483B60FFF7ED
:10308C001DFA7AE63B68B3427FF677AE013B2848DF
:10309C003B60FFF713FA70E61E4800F0D7FE82463D
:1030AC0000283FF46AAE41F68050C2F200000AF1EB
:1030BC00010200F5807100F08DFB3B6841F68052F7
:1030CC00C2F200029B1A002B40F0BC801548FFF79F
:1030DC00F5F941F6805006EB0A03C2F200003B60A2
:1030EC00FFF7ECF949E6B8BF2D2246F2676ABFBF7D
:1030FC005B428DF800204FF0080B0DF1010CA4BFC2
:10310C00EC464FF0090BC6F2666A002016E000BFD1
:10311C00DC430008801E0020811D0020B4470008FD
:10312C00C8470008C0470008F4470008B847000823
:10313C00BC470008E043000882B108468AFB032123
:10314C00DA17C2EBA10202EB8201A3EB4103411C93
:10315C00303359450CF800301346EDDB00230CF8E6
:10316C00013049101EBF6346C01803EB010E07D097
:10317C0001781A7803F8011B734500F80129F7D17F
:10318C0044F6B420C0F60000FFF798F96846FFF744
:10319C0095F944F6B820C0F60000FFF78FF93B68AC
:1031AC004DE74B48FFF78AF99EE6B8BF2D2246F251
:1031BC00676ABFBF5B428DF800204FF0080B0DF122
:1031CC00010CA4BFEC464FF0090BC6F2666A002056
:1031DC0001E082B108468AFB0321DA17C2EBA10297
:1031EC0002EB8201A3EB4103411C303359450CF82F
:1031FC0000301346EDDB00230CF8013049101EBFE4
:10320C006346C01803EB010E07D001781A7803F857
:10321C00011B734500F80129F7D144F6B420C0F620
:10322C000000FFF74BF96846FFF748F944F6B82061
:10323C00C0F60000FFF742F974E641F68053C2F283
:10324C00000302E6B8BF2D2246F2676CBFBF5B429B
:10325C008DF800204FF0080B0DF10100A4BF68465B
:10326C004FF0090BC6F2666C002101E07BB11146F0
:10327C008CFB032EDA17C2EBAE0E0EEB8E02A3EB19
:10328C0042034A1C30335A4543547346EEDB002349
:10329C00835452101EBF0346C918D21808D091F897
:1032AC0000E0187803F801EB934201F80109F6D11C
:1032BC0044F6B420C0F60000FFF700F96846FFF7AB
:1032CC00FDF844F6B820C0F60000FFF7F7F8FDE66D
:1032DC0018480008F0B403688BB303F1404CACF50C
:1032EC00843C4FEA9C2C0425027905FA0CFC02F074
:1032FC0007040F26A400A6404FF48051C4F202012B
:10330C008F69D2084CEA07078F6153F82270417914
:10331C0027EA060643F8226099B9017A71B300795D
:10332C00012914BF4FF48031012101FA00F008216A
:10333C00A140186153F82200014343F82210F0BC5D
:10334C007047817A03299EBF44F66405C0F60005D8
:10335C0055F82110C579807988BF0021012D08BF4F
:10336C0041F00401012808BF41F00801A140F0BC64
:10337C0053F82200014343F8221070472946F5E721
:10338C0010B403689BB10279012404FA02F2407A6A
:10339C00041B6042604100290CBF014680F0010112
:1033AC0000290CBF1021002102FA01F119615DF80E
:1033BC00044B704703685BB199680279437A21FA30
:1033CC0002F000F00100012B08BF80F001007047F3
:1033DC0000687047036882B0002201928BB14FF0F5
:1033EC0084420192019A103302EB43130193019A28
:1033FC000179437A02EB8102019213B9019B4033AC
:10340C000193019802B070474FF48052C4F202024B
:10341C0051694FF4784341F0400110B5C0F60003F8
:10342C00516119684DF6CF62CDF6CF62914217D03B
:10343C004FF47C43C0F6000319684DF6CF62CDF60D
:10344C00CF62914233D044F67401C0F6000141F6CC
:10345C0084704FF4A472C2F2000000F0BBF910BDEE
:10346C004FF44054C4F20204A2684FF6401042F0EC
:10347C000102A260C0F6000053F8041B4FF4405246
:10348C0083422160C4F20202F6D15978987809027D
:10349C001B7841EA00410B434FF478411360C0F6AE
:1034AC0000011368D1F843219A42C1D1CFE74FF400
:1034BC004054C4F20204A2684FF6405042F001029C
:1034CC00A260C0F6000053F8041B4FF44052834234
:1034DC002160C4F20202F6D19978587809041B785D
:1034EC0041EA00210B434FF47C411360C0F600010C
:1034FC001268D1F843319A42A5D1A8E741F68470FD
:10350C00C2F20000704700BF4FF47843C0F60003CE
:10351C0019684DF6CF62CDF6CF629142F0B400F04F
:10352C00AA804FF47C43C0F6000319684DF6CF62B5
:10353C00CDF6CF62914200F0CC8000274FF4784456
:10354C00C0F6000420464FF40053C4F202031A697B
:10355C00160609D540F2231148F6AB12C4F2675196
:10356C00CCF6EF5259605A604FF40051C4F202018C
:10357C00CA684FF40053D507C4F20203F8D4D968D3
:10358C00022201F02001D9601A615C611A691946A6
:10359C0042F040021A61CB684FF400529C06C4F210
:1035AC000202F8D52023D360146941F684734DF6DA
:1035BC00CF61C2F2000324F0020461F31F414FF407
:1035CC0040561461C4F202061960B26803F5A07586
:1035DC0042F00102B26053F8044B4FF4405241F6F2
:1035EC008471AB423460C4F20202C2F20001F2D127
:1035FC0091F8415191F8403191F8424143EA052349
:10360C0043EA0443136012684FF40053C4F20203FC
:10361C00C1F843211C691A4644F001041C611E4682
:10362C0001F5A475202431F8023B20F8023BD36845
:10363C009B06FCD5A942F460F5D177B100234FF479
:10364C0000513B80C4F20201CA684FF40053920649
:10365C00C4F20203F8D52022DA604FF40053C4F20E
:10366C0002031A69F0BC22F001021A611A6942F0D5
:10367C0080021A6170474FF44054C4F20204A268ED
:10368C004FF6401042F00102A260C0F6000053F861
:10369C00041B4FF4405283422160C4F20202F6D163
:1036AC005978987809021B7841EA00410B434FF492
:1036BC0078471360C0F600071368D7F843219A4285
:1036CC0002BF4FF47C44C0F6000420467FF429AFBF
:1036DC0039E74FF44054C4F20204A2684FF640504C
:1036EC0042F00102A260C0F6000053F8041B4FF434
:1036FC00405283422160C4F20202F6D19978587884
:10370C0009041B7841EA00210B434FF47C471360FA
:10371C00C0F600071268D7F843319A427FF40DAF18
:10372C000CE700BF08B541F6847044F67401C2F290
:10373C000000C0F600014FF4A47200F04BF8BDE895
:10374C000840FFF7E1BE00BF704700BF4FF4805345
:10375C00C4F202035A6802F00C02082A1CBF4FF490
:10376C009052C0F27A0210D15A685968C2F383425F
:10377C00C90302F102021BD55B689B0318D44FF4FA
:10378C009053C0F27A0303FB02F24FF48053C4F25D
:10379C000203596844F6BC13C0F60003C1F30311CD
:1037AC00595C40F25803CA40C2F200031A607047D9
:1037BC004FF41063C0F23D0303FB02F2E5E700BFD8
:1037CC00F44F0008000000208C040020900400201E
:1037DC00D0200020844641EA000313F0030349D1B2
:1037EC00403A23D30B6803604B6843608B6883605B
:1037FC00CB68C3600B6903614B6943618B6983615F
:10380C00CB69C3610B6A03624B6A43628B6A836246
:10381C00CB6AC3620B6B03634B6B43638B6B83632E
:10382C00CB6BC36340304031403ADBD230320BD3E8
:10383C000B6803604B6843608B688360CB68C36024
:10384C0010301031103AF3D20C3205D351F8043B3E
:10385C0040F8043B043AF9D2043208D0D2071CBF1A
:10386C0011F8013B00F8013B01D30B880380604643
:10387C00704700BF082A13D38B07B1D010F0030395
:10388C00AED0C3F10403D21ADB071CBF11F8013B05
:10389C0000F8013BA4D331F8023B20F8023B9FE730
:1038AC00043AD9D3013A11F8013B00F8013BF9D2A3
:1038BC000B7803704B7843708B788370604670473D
:1038CC0040EA010C1CF0070F27D1BDF1100DCDE91A
:1038DC000245CDE900676FF000064FF0000700BF0E
:1038EC00F0E80223F1E80245A242A2F1013C2CEAE5
:1038FC00020C0CF0803C08BFBCF1000F40F0E580DE
:10390C00AB42A3F1013C2CEA030C0CF0803C08BF49
:10391C00BCF1000F40F0D680E2E710F0030C21D090
:10392C0020F0030050F8042B5FEACC7C08D00FD2B7
:10393C0011F801CB5FFA92F3B3EB0C0C10D17BB105
:10394C0011F801CB5FFAA2F3B3EB0C0C08D13BB12D
:10395C0011F801CB5FFAB2F3B3EB0C0C00D10BB93D
:10396C0060467047BDF1100DCDE90245CDE9006709
:10397C006FF000064FF0000711F0030C33D110F07C
:10398C00040F0FD050F8042B51F8044BA242A2F1B3
:10399C00013C2CEA020C0CF0803C08BFBCF1000F7F
:1039AC0040F0938011F0040F99D051F8045B00BFE4
:1039BC00F0E80223AA42A2F1013C2CEA020C0CF022
:1039CC00803C08BFBCF1000F79D1F1E80245A3425D
:1039DC00A3F1013C2CEA030C0CF0803C08BFBCF1B9
:1039EC00000F69D1E4E721F00301BCF1020F20D0F4
:1039FC003FDA51F8045B00BF50F8043B4FEA152541
:103A0C00A3F1013C2CEA030C0CF0803CB7EB0C2F1F
:103A1C0003EA162208BFAA4251D151F8045BBCF14B
:103A2C00000F82EA03034FEA056208BF934240D1BC
:103A3C00E2E751F8045B00BF50F8043B4FEA154530
:103A4C00A3F1013C2CEA030C0CF0803CB7EB0C4FBF
:103A5C0003EA164208BFAA4231D151F8045BBCF10B
:103A6C00000F82EA03034FEA054208BF934220D1BC
:103A7C00E2E751F8045B00BF50F8043B4FEA1565D0
:103A8C00A3F1013C2CEA030C0CF0803CB7EB0C6F5F
:103A9C0003EA166208BFAA4211D151F8045BBCF1CB
:103AAC00000F82EA03034FEA052208BF934200D1BC
:103ABC00E2E719BA12BA0AE019BA22BA07E011BA47
:103ACC002ABA04E019BA2ABA01E011BA22BA9CFA4D
:103ADC008CF0DDE90067DDE902451DF1100D38B110
:103AEC00B0FA80F0C0F1180021FA00F122FA00F2CD
:103AFC000120914298BF8041704700BF08B5FCF788
:103B0C0097FBFCF7DDFBFFF77FFCFCF7E9FBFCF711
:103B1C007DFEFDF73BF9FCE7002103E00B4B5B5806
:103B2C00435004310A480B4B42189A42F6D30A4AC6
:103B3C0002E0002342F8043B084B9A42F9D3FFF70A
:103B4C0003FE00F047F8FFF7D9FF7047F44F000869
:103B5C00000000208C04002090040020D0200020C5
:103B6C00FEE70000014600200246034600F03EBA84
:103B7C0000210A2200F02CBA00220A2300F096B988
:103B8C0008B50021044600F093FA44F6DC73C0F645
:103B9C0000031868C36B03B19847204600F004FB80
:103BAC0038B544F6F47444F6F075C0F60005C0F66A
:103BBC000004641BA41018BF05EB840505D0013C60
:103BCC0055F8043D9847002CF9D1BDE8384000F079
:103BDC00F5BA00BF70B544F6E87644F6E875C0F661
:103BEC000005C0F60006761BB6101CBF043D002471
:103BFC0005D0013455F8043F9847A642F9D144F654
:103C0C00F07644F6E875C0F60005C0F60006761BA3
:103C1C0000F0CEFAB6101CBF043D002406D00134CF
:103C2C0055F8043F9847A642F9D170BD70BD00BF4E
:103C3C008842F0B410D98C18A0420DD28518531EAE
:103C4C0042B121462A4611F8014D013B02F8014DC3
:103C5C005C1CF8D1F0BC70470F2A44D940EA010330
:103C6C009B0744D1A2F110073F0900EB0716103651
:103C7C000C4603462568103343F8105C6568103415
:103C8C0043F80C5C54F8085C43F8085C54F8045C8A
:103C9C0043F8045CB342EDD17B1C02F00F0C1B010A
:103CAC00BCF1030F1944034423D90E461D46644648
:103CBC0056F8047B043C032C45F8047BF8D8ACF193
:103CCC00040424F00304043402F0030223442144CA
:103CDC00002ABFD01A4411F8014B03F8014B934250
:103CEC00F9D1F0BC70470346002AF3D1B2E7034682
:103CFC00F0E76246002AEDD1ACE700BFF0B48407D0
:103D0C0043D0541E002A3ED0CDB2034603E0621EBF
:103D1C00002C38D0144603F8015B9A07F7D1032C1A
:103D2C002AD9CDB245EA05250F2C45EA054515D90A
:103D3C00A4F110073F0903F1100606EB07161A460B
:103D4C00156055609560D5601032B242F8D104F020
:103D5C000F040137032C03EB07130DD91E46224623
:103D6C00043A032A46F8045BFAD8221F22F0030215
:103D7C000432134404F003042CB1C9B21C4403F8FC
:103D8C00011BA342FBD1F0BC704714460346C6E7A7
:103D9C0080EA0102844612F0030F4FD111F0030F99
:103DAC0032D14DF8044D11F0040F51F8043B0BD0F7
:103DBC00A3F101329A4312F0803F04BF4CF8043B4C
:103DCC0051F8043B16D100BF51F8044BA3F101325A
:103DDC009A4312F0803FA4F101320BD14CF8043B12
:103DEC00A24312F0803F04BF51F8043B4CF8044B43
:103DFC00EAD023460CF8013B13F0FF0F4FEA3323B4
:103E0C00F8D15DF8044B704711F0010F06D011F892
:103E1C00012B0CF8012B002A08BF704711F0020F80
:103E2C00BFD031F8022B12F0FF0F16BF2CF8022B6B
:103E3C008CF8002012F47F4FB3D1704711F8012B8E
:103E4C000CF8012B002AF9D1704700BF20F00301B8
:103E5C0010F00300C0F1000051F8043B00F1040C19
:103E6C004FEACC0C6FF000021CBF22FA0CF2134389
:103E7C004FF0010C4CEA0C2C4CEA0C4CA3EB0C0252
:103E8C0022EA030212EACC1204BF51F8043B0430BC
:103E9C00F4D013F0FF0F1FBF013013F47F4F01302C
:103EAC0013F47F0F18BF0130704700BF2DE9F00FDE
:103EBC0040F25C0482B0C2F20004D4F800C001905D
:103ECC000E4600E02646344614F8015B0CEB050068
:103EDC00407800F0080000F0FF0B0028F2D12D2DE7
:103EEC006CD02B2D04BF7578B41C33F0100010D19E
:103EFC00D3F1010038BF0020302D03D048B10A2384
:103F0C009A4607E0267806F0DF06582E5BD000B103
:103F1C0008239A46BBF1000F0CBF6FF000494FF01D
:103F2C000049B9FBFAF800270AFB189938460CE04F
:103F3C004D45D4BF00260126404518BF0026EEB9DA
:103F4C000AFB0050012714F8015B0CEB0506767890
:103F5C0016F0040F18BF303D07D116F0030610D031
:103F6C00012E14BF57263726AD1BAB4209DD404549
:103F7C0094BF0026012656EAD777D9D04FF0FF37E9
:103F8C00E1E77B1C09D0BBF1000F15D10AB18FB949
:103F9C00116002B0BDE8F00F70470199BBF1000F42
:103FAC004FF022030CBF6FF000404FF000400B604D
:103FBC00002AEED0611EEBE74042E7E7B41C7578AF
:103FCC004FF0010B91E7102365789A460234A1E774
:103FDC0030B440F288440D46C2F200041346014648
:103FEC002A46206830BCFFF761BF00BFF0B544F62D
:103FFC00DC74C0F60004266885B0D6F84841074644
:10400C00002C43D065681F2D21DD40F20004C0F266
:10401C0000041CB94FF0FF3005B0F0BD4FF4C87070
:10402C00039102920193AFF3008003990446029A24
:10403C00019B0028EED0D6F8485100202560606026
:10404C000546C6F84841C4F88801C4F88C013FB94C
:10405C006B1C00200235636044F8251005B0F0BDE0
:10406C000126AE4004EB8500C0F88820D4F88821E6
:10407C00022F42EA0602C4F88821C0F8083102BFB8
:10408C00D4F88C311E43C4F88C61E1E706F5A674B4
:10409C00C6F84841B6E700BF40F20003C0F2000387
:1040AC002BB143F6AD30C0F60000FFF75BBD704797
:1040BC002DE9F04F44F6DC73C0F600031B6885B0A5
:1040CC0040F200020193C0F2000203F5A4730290C7
:1040DC000F46039300924FF00109019AD2F84881E0
:1040EC00B8F1000F1AD0DDF80CA0D8F804305C1E23
:1040FC005FBF08F188059E1C05EB830508EB86065F
:10410C000AD477B1EB6FBB420BD0013C631CA5F119
:10411C000405A6F10406F4D1009B7BBB05B0BDE8F9
:10412C00F08FD8F8042056F8043C013AA24216BF8E
:10413C000022C8F8044046F8042C002BE5D009FAFC
:10414C0004F2D8F88811D8F804B00A4210D0D8F884
:10415C008C110A420ED1029855F8041C9847D8F8D5
:10416C0004305B45B9D1DAF800304345CDD0B4E723
:10417C009847F4E755F8040C9847F0E7D8F8043062
:10418C006BB9D8F8003063B14046CAF80030AFF3D1
:10419C000080DAF80080B8F1000FA6D1BEE7D8F89D
:1041AC000030C2469846F6E7FEE700BF000000006C
:1041BC00F8B500BFF8BC08BC9E467047F8B500BF08
:0841CC00F8BC08BC9E467047D8
:1041D4000902CF0006010080FA080B000202020067
:1041E4000009040000010202000405240010010576
:1041F40024010001042402020524060001070581AC
:104204000310001409040100020A0000000705025B
:104214000220000007058202200000080B020202AF
:104224000200000904020001020200050524001036
:1042340001052401000304240202052406020307E5
:1042440005830310001409040300020A0000000798
:1042540005040240000007058402400000080B0426
:1042640002020200000904040001020200060524FF
:10427400001001052401000504240202052406049B
:10428400050705850310001409040500020A00004F
:1042940000070506024000000705860240000000F2
:1042A40012010002EF0201100912FEFF00000102D8
:1042B400030100000A03550041005200540033007A
:1042C4000A03550041005200540032000A0355000D
:1042D400410052005400310012034E004F002000F0
:1042E400530045005200490041004C002E03420097
:1042F4006C0075006500700069006C006C002000A3
:10430400530065007200690061006C0020004D00DC
:104314006F006E0073007400650072002A0352007F
:104324003200410058005A0020004B00690072001E
:1043340069006C006C0020004B006F007400790071
:104344006100670069006E000403090400000000B6
:10435400101000002D0600080300000000100000EB
:104364000000000002000000202000004D1E000894
:104374000300000000100000000000000200000024
:10438400404000004D1E0008030000000010000023
:104394000000000002000000404000004D1E000824
:1043A40000380140004400400048004058000240EA
:1043B400440002406C000240800002403000024091
:1043C4001C00024001030500000204000204060070
:1043D40076302E302E3000000D0A0000E849000827
:1043E400F9240008BC4A00080C4B0008284B0008BC
:1043F40091250008304B0008744B00080C4C000851
:10440400DD250008144C0008344C0008A44E0008B4
:10441400DD240008AC4E0008C44E00080000000073
:10442400000000000000000000000000092D200032
:104434004572726F722C206E6F2068656C702066F6
:104444006F72207468697320636F6D6D616E642C84
:1044540020757365202268656C702220746F206754
:10446400657420746865206C697374206F662061BC
:104474007661696C61626C6520636F6D6D616E64F9
:10448400732E0D0A000000004572726F722C2069B1
:104494006E76616C6964206F72206D697373696EE6
:1044A4006720617267756D656E74732C2075736512
:1044B400202268656C7020636F6E666967222066CF
:1044C4006F7220746865206C697374206F66206154
:1044D4007267756D656E74732E0D0A004572726F86
:1044E400722C20696E76616C6964205541525420A7
:1044F4006E756D6265722E0D0A0000004C4A00084C
:10450400504A0008544A0008584A00085C4A000807
:10451400604A0008644A0008684A00086C4A0008B7
:10452400884A0008904A00089C4A0008A84A0008E3
:10453400AC4A0008784A00087C4A00084572726F49
:10454400722C2063616E6E6F7420736574206F75B6
:1045540074707574207479706520666F7220696E4A
:104564007075742070696E2E0D0A00004572726FAA
:10457400722C206D697373696E67206F7574707522
:104584007420747970652E0D0A0000004572726FF4
:10459400722C2063616E6E6F74206368616E676550
:1045A40020706F6C6172697479206F6620616C741D
:1045B40065726E6174652066756E6374696F6E20D2
:1045C40070696E732E0D0A004572726F722C206D25
:1045D400697373696E6720706F6C61726974792E88
:1045E4000D0A00004572726F722C2063616E6E6F4B
:1045F400742070756C6C207479706520666F7220FD
:104604006F75747075742070696E2E0D0A00000049
:104614004572726F722C206D697373696E672070B6
:10462400756C6C20747970652E0D0A004572726F7A
:10463400722C206D697373696E67207369676E618C
:104644006C20706172616D65746572732E0D0A0061
:104654004572726F722C206578706563746564208E
:104664002273686F7722206F722061207369676EEE
:10467400616C206E616D652C20676F74206E6F74A1
:1046840068696E672E0D0A004572726F722C206E77
:104694006F20617267756D656E74732C2075736518
:1046A400202268656C7020756172742220666F72B6
:1046B40020746865206C697374206F66206172676A
:1046C400756D656E74732E0D0A0000004572726F6D
:1046D400722C20756E6B6E6F776E207369676E61D6
:1046E4006C206E616D652E0D0A0000004572726FBC
:1046F400722C20696E76616C6964206F75747075B4
:104704007420747970652E0D0A0000004572726F72
:10471400722C20696E76616C696420706F6C6172B2
:104724006974792E0D0A00004572726F722C20692B
:104734006E76616C69642070756C6C207479706538
:104744002E0D0A000D0A0D0A2A2A2A2A2A2A2A2AA2
:104754002A2A2A2A2A2A2A2A2A2A2A2A2A2A2A2AB5
:104764002A2A2A2A2A2A2A0D0A2A20436F6E6669CF
:104774006775726174696F6E205368656C6C205341
:10478400746172746564202A0D0A2A2A2A2A2A2A44
:104794002A2A2A2A2A2A2A2A2A2A2A2A2A2A2A2A75
:1047A4002A2A2A2A2A2A2A2A2A0D0A0D0A0000005D
:1047B4003E0000001B5B43001B5B44001B5B304B53
:1047C400000000004572726F722C20746F6F206DB0
:1047D400616E7920636F6D6D616E64206C696E65C6
:1047E40020617267756D656E74732E0D0A0000008A
:1047F4004572726F722C20636F6D6D616E64206CF4
:10480400696E6520697320746F6F206C6F6E672EFC
:104814000D0A00004572726F722C20756E6B6E6FFC
:10482400776E20636F6D6D616E642C2075736520E7
:104834002268656C702220746F2067657420746828
:1048440065206C697374206F6620617661696C61A0
:10485400626C6520636F6D6D616E64732E0D0A006A
:10486400020000000100000003000000020000003C
:1048740000000000001001400D01000100010000D3
:104884000C014005000000010100000801400A007D
:1048940000000100000008014009010100000001BE
:1048A400000801400F0100000001010000000000A9
:1048B400000000000000000C01400700000001019E
:1048C400000008014004010000000101000C014047
:1048D4000F000000010100000C0140030000000172
:1048E4000100000C0140000100000000010008016B
:1048F4004003000000010000000801400201010023
:10490400000001000801400101000000010100084D
:10491400014000000000020100000C0140040000FE
:104924000001010000080140050100000001010030
:104934000C014008000000010100000C01400C00C3
:104944000000010100000C01400101000000000111
:10495400000C01400B000000010000000C01400AA3
:10496400010100000001000C01400E0100000001E3
:1049740001000C01400D000000020100000C014088
:1049840006000000010100000801400601000000CB
:104994000101000C014009000000010100000801B0
:1049A4004008000000010100000801400701000068
:1049B40000000100000000000000000000000000F2
:1049C40001020304060708090000000001020304B1
:1049D4003031323334353637383941424344454631
:1049E4000000000068656C70000000003A200000C0
:1049F40073617665000000007265736574000000E1
:104A0400616C6C0073686F7700000000554152546C
:104A1400000000003A000000696E2C200000000035
:104A24006F75742C20000000616374697665200042
:104A34002C20000070756C6C200000006F75747081
:104A4400757420006E2F6100727800007478000085
:104A5400727473006374730064737200647472001C
:104A64006463640072690000747861006F75747027
:104A740075740000707000006F64000061637469F5
:104A84007665000068696768000000006C6F770055
:104A940070756C6C00000000666C6F6174696E6701
:104AA4000000000075700000646F776E0000000065
:104AB4001B5B00004400000073686F777320746808
:104AC40069732068656C70206D6573736167652C0C
:104AD40020757365202268656C7020636F6D6D614D
:104AE4006E642D6E616D652220746F20676574207D
:104AF400636F6D6D616E642D737065636966696360
:104B04002068656C7000000055736167653A206821
:104B1400656C70205B636F6D6D616E642D6E616D8D
:104B2400655D0000636F6E6669670000736176659A
:104B340020616E6420726573657420636F6E6669AC
:104B44006775726174696F6E20706172616D7465EE
:104B5400727320696E207468652064657669636584
:104B640020666C617368206D656D6F72790000005A
:104B740055736167653A20636F6E66696720736178
:104B840076657C72657365740D0A5573653A2022E7
:104B9400636F6E66696720736176652220746F2087
:104BA4007065726D616E656E746C79207361766583
:104BB4002064657669636520636F6E6669677572E4
:104BC4006174696F6E2E0D0A5573653A2022636F06
:104BD4006E6669672072657365742220746F207233
:104BE400657365742064657669636520636F6E66BA
:104BF400696775726174696F6E20746F206465668D
:104C040061756C742E000000756172740000000000
:104C140073657420616E642076696577205541520E
:104C24005420706172616D657465727300000000D8
:104C340055736167653A207561727420706F727480
:104C44002D6E756D6265727C616C6C2073686F7714
:104C54007C7369676E616C2D6E616D652D3120709A
:104C64006172616D2D312076616C75652D31202E58
:104C74002E2E205B706172616D2D6E2076616C75D5
:104C8400652D6E5D205B7369676E616C2D6E616D61
:104C9400652D32202E2E2E5D0D0A5573652022754A
:104CA40061727420706F72742D6E756D6265727CA2
:104CB400616C6C2073686F772220746F207669654D
:104CC400772063757272656E742055415254206367
:104CD4006F6E66696775726174696F6E2E0D0A5521
:104CE400736520227561727420706F72742D6E75F5
:104CF4006D6265727C616C6C207369676E616C2D8A
:104D04006E616D652D3120706172616D2D3120767B
:104D1400616C75652D31202E2E2E205B70617261C1
:104D24006D2D6E2076616C75652D6E5D205B7369EB
:104D3400676E616C2D6E616D652D32202E2E2E5D99
:104D4400220D0A746F2073657420554152542070EB
:104D54006172616D65746572732C20776865726524
:104D6400207369676E616C206E616D65732061727A
:104D7400652072782C2074782C207274732C206334
:104D840074732C206473722C206474722C206463FA
:104D9400642C2072692C207478612C0D0A616E6475
:104DA40020706172616D73206172653A0D0A202072
:104DB4006F7574707574095B70707C6F645D0D0A37
:104DC4002020616374697665095B6C6F777C686920
:104DD40067685D0D0A202070756C6C09095B666C50
:104DE4006F6174696E677C75707C646F776E5D0D3E
:104DF4000A4578616D706C653A2022756172742081
:104E040031207478206F7574707574206F6422205B
:104E140073657473205541525431205458206F7572
:104E240074707574207479706520746F206F706568
:104E34006E2D647261696E0D0A4578616D706C65E2
:104E44003A20227561727420332072747320616376
:104E540074697665206869676820646364206163A7
:104E64007469766520686967682070756C6C206465
:104E74006F776E2220616C6C6F777320746F207370
:104E84006574206D756C7469706C652070617261F5
:104E94006D6574657273206174206F6E63652E0096
:104EA40076657273696F6E007072696E74206669DC
:104EB400726D776172652076657273696F6E00003A
:104EC40055736167653A2076657273696F6E000089
:104ED40000202020202020202020282828282820C6
:104EE40020202020202020202020202020202020BE
:104EF4002088101010101010101010101010101026
:104F04001004040404040404040404101010101015
:104F140010104141414141410101010101010101DF
:104F24000101010101010101010101011010101031
:104F340010104242424242420202020202020202B1
:104F44000202020202020202020202021010101005
:104F5400200000000000000000000000000000002D
:104F6400000000000000000000000000000000003D
:104F7400000000000000000000000000000000002D
:104F8400000000000000000000000000000000001D
:104F9400000000000000000000000000000000000D
:104FA40000000000000000000000000000000000FD
:104FB40000000000000000000000000000000000ED
:104FC40000000000000000000000000000000000DD
:0C4FD4000000000043000000600000200E
:084FE000F4B1FF7F01000000A5
:084FE800A54000089501000836
:044FF000650100084F
:104FF400000000004C43000820430008F042000871
:10500400DC420008D0420008C4420008B84200084C
:1050140032035800580058005800580058005800EF
:1050240058005800580058005800580058005800BC
:1050340058005800580058005800580058005800AC
:1050440058000000801D00200024F400D44E000805
:10505400000000004C030020B40300201C040020C6
:10506400000000000000000000000000000000003C
:10507400000000000000000000000000000000002C
:1050840000000000D84F00080000000000000000ED
:10509400000000000000000000000000000000000C
:1050A40000000000000000000000000000000000FC
:1050B40000000000000000000000000000000000EC
:1050C40000000000000000000000000000000000DC
:1050D40000000000000000000000000000000000CC
:1050E40000000000000000000000000000000000BC
:1050F40000000000000000000100000000000000AB
:105104000E33CDAB34126DE6ECDE05000B0000006F
:10511400000000000000000000000000000000008B
:10512400000000000000000000000000000000007B
:10513400000000000000000000000000000000006B
:10514400000000000000000000000000000000005B
:0C547400000000000000000060000020AC
:045480000000000028
:0400000508003B258F
:00000001FF
