:020000040800F2
:1000000000500020357E0008111C0008151C000857
:10001000191C00081D1C0008211C0008000000001D
:10002000000000000000000000000000251C000887
:10003000291C0008000000002D1C0008311C0008CD
:100040007D7E00087D7E00087D7E00087D7E0008A4
:100050007D7E00087D7E00087D7E00087D7E000894
:100060007D7E00087D7E00087D7E00087D7E000884
:100070004D1C00085D1C00086D1C00087D1C00085C
:100080008D1C00089D1C00087D7E00087D7E0008F8
:10009000AD1C00087D7E00087D7E00087D7E000886
:1000A0007D7E00087D7E00087D7E00087D7E000844
:1000B0007D7E00087D7E00087D7E00087D7E000834
:1000C0007D7E00087D7E00087D7E00087D7E000824
:1000D0007D7E0008BD1C00080D1D00085D1D000888
:1000E0007D7E00087D7E00087D7E00080000000007
:1000F0000000000000000000000000000000000000
:0C01000000000000000000005FF808F1A3
:1001100008B540F62C30074BC2F200001B1A062B24
:1001200000D808BD40F20003C0F20003002BF8D055
:100130009847F6E72F0B002008B540F62C3040F624
:100140002C33C2F20003C2F200001B1A9B1003EB17
:10015000D373591000D108BD40F20002C0F2000272
:10016000002AF8D09047F6E710B540F62C34C2F2DA
:100170000004237873B9FFF7CBFF40F20003C0F20D
:1001800000032BB14DF69C60C0F60000AFF3008079
:100190000123237010BD00BF08B540F20003C0F278
:1001A00000034BB14DF69C6040F63031C0F60000C4
:1001B000C2F20001AFF3008040F62C30C2F2000022
:1001C00003682BB140F20003C0F2000303B198476B
:1001D000BDE80840B0E700BF844641EA000313F0E1
:1001E000030349D1403A23D30B6803604B68436053
:1001F0008B688360CB68C3600B6903614B694361A3
:100200008B698361CB69C3610B6A03624B6A43628A
:100210008B6A8362CB6AC3620B6B03634B6B436372
:100220008B6B8363CB6BC36340304031403ADBD28E
:1002300030320BD30B6803604B6843608B6883607C
:10024000CB68C36010301031103AF3D20C3205D3B2
:1002500051F8043B40F8043B043AF9D2043208D088
:10026000D2071CBF11F8013B00F8013B01D30B88FA
:1002700003806046704700BF082A13D38B07B1D0B4
:1002800010F00303AED0C3F10403D21ADB071CBF86
:1002900011F8013B00F8013BA4D331F8023B20F8F0
:1002A000023B9FE7043AD9D3013A11F8013B00F829
:1002B000013BF9D20B7803704B7843708B788370D5
:1002C0006046704781F0004102E000BF83F00043C8
:1002D00030B54FEA41044FEA430594EA050F08BFE1
:1002E00090EA020F1FBF54EA000C55EA020C7FEAA5
:1002F000645C7FEA655C00F0E2804FEA5454D4EB22
:100300005555B8BF6D420CDD2C4480EA020281EAEB
:10031000030382EA000083EA010180EA020281EA23
:100320000303362D88BF30BD11F0004F4FEA013175
:100330004FF4801C4CEA113102D0404261EB410184
:1003400013F0004F4FEA03334CEA133302D052420A
:1003500063EB430394EA050F00F0A780A4F10104C6
:10036000D5F1200E0DDB02FA0EFC22FA05F2801800
:1003700041F1000103FA0EF2801843FA05F35941E6
:100380000EE0A5F120050EF1200E012A03FA0EFC65
:1003900028BF4CF0020C43FA05F3C01851EBE3718F
:1003A00001F0004507D54FF0000EDCF1000C7EEBAC
:1003B00000006EEB0101B1F5801F1BD3B1F5001FEA
:1003C0000CD349085FEA30004FEA3C0C04F1010409
:1003D0004FEA445212F5800F80F09A80BCF1004F32
:1003E00008BF5FEA500C50F1000041EB045141EAB4
:1003F000050130BD5FEA4C0C404141EB010111F4B5
:10040000801FA4F10104E9D191F0000F04BF01465F
:100410000020B1FA81F308BF2033A3F10B03B3F13D
:1004200020020CDA0C3208DD02F1140CC2F10C02CD
:1004300001FA0CF021FA02F10CE002F11402D8BF2B
:10044000C2F1200C01FA02F120FA0CFCDCBF41EAF7
:100450000C019040E41AA2BF01EB0451294330BDC6
:100460006FEA04041F3C1CDA0C340EDC04F11404A3
:10047000C4F1200220FA04F001FA02F340EA03007A
:1004800021FA04F345EA030130BDC4F10C04C4F1C0
:10049000200220FA02F001FA04F340EA03002946A0
:1004A00030BD21FA04F0294630BD94F0000F83F4EA
:1004B000801306BF81F480110134013D4EE77FEACD
:1004C000645C18BF7FEA655C29D094EA050F08BF19
:1004D00090EA020F05D054EA000C04BF19461046FA
:1004E00030BD91EA030F1EBF0021002030BD5FEA3E
:1004F000545C05D14000494128BF41F0004130BD66
:1005000014F580043CBF01F5801130BD01F00045B9
:1005100045F0FE4141F470014FF0000030BD7FEA2C
:10052000645C1ABF194610467FEA655C1CBF0B4627
:10053000024650EA013406BF52EA033591EA030F3E
:1005400041F4002130BD00BF90F0000F04BF002136
:10055000704730B54FF4806404F132044FF0000569
:100560004FF0000150E700BF90F0000F04BF0021E2
:10057000704730B54FF4806404F1320410F0004548
:1005800048BF40424FF000013EE700BF42004FEA43
:10059000E2014FEA31014FEA02701FBF12F07F43C0
:1005A00093F07F4F81F06051704792F0000F14BFBD
:1005B00093F07F4F704730B54FF4607401F0004501
:1005C00021F0004120E700BF50EA010208BF704758
:1005D00030B54FF000050AE050EA010208BF70474D
:1005E00030B511F0004502D5404261EB41014FF4B6
:1005F000806404F132045FEA915C3FF4DCAE4FF0BA
:1006000003025FEADC0C18BF03325FEADC0C18BFA0
:10061000033202EBDC02C2F1200300FA03FC20FAF1
:1006200002F001FA03FE40EA0E0021FA02F114443E
:10063000C1E600BF70B54FF0FF0C4CF4E06C1CEA53
:1006400011541DBF1CEA135594EA0C0F95EA0C0FC8
:1006500000F0DEF82C4481EA030621EA4C5123EA3B
:100660004C5350EA013518BF52EA033541F480116A
:1006700043F4801338D0A0FB02CE4FF00005E1FB1D
:1006800002E506F00042E0FB03E54FF00006E1FB67
:1006900003569CF0000F18BF4EF0010EA4F1FF04AA
:1006A000B6F5007F64F5407404D25FEA4E0E6D41EA
:1006B00046EB060642EAC62141EA55514FEAC520FB
:1006C00040EA5E504FEACE2EB4F1FD0C88BFBCF577
:1006D000E06F1ED8BEF1004F08BF5FEA500E50F128
:1006E000000041EB045170BD06F0004646EA0101EE
:1006F00040EA020081EA0301B4EB5C04C2BFD4EB20
:100700000C0541EA045170BD41F480114FF0000E18
:10071000013C00F3AB8014F1360FDEBF002001F086
:10072000004170BDC4F10004203C35DA0C341BDC00
:1007300004F11404C4F1200500FA05F320FA04F0D2
:1007400001FA05F240EA020001F0004221F0004106
:1007500010EBD37021FA04F642EB06015EEA430E79
:1007600008BF20EAD37070BDC4F10C04C4F12005A9
:1007700000FA04F320FA05F001FA04F240EA02005C
:1007800001F0004110EBD37041F100015EEA430E2D
:1007900008BF20EAD37070BDC4F1200500FA05F24D
:1007A0004EEA020E20FA04F301FA05F243EA0203CC
:1007B00021FA04F001F0004121FA04F220EA0200DB
:1007C00000EBD3705EEA430E08BF20EAD37070BD21
:1007D00094F0000F0FD101F00046400041EB010101
:1007E00011F4801F08BF013CF7D041EA060195F0E3
:1007F000000F18BF704703F00046520043EB03039D
:1008000013F4801F08BF013DF7D043EA0603704789
:1008100094EA0C0F0CEA135518BF95EA0C0F0CD094
:1008200050EA410618BF52EA4306D1D181EA0301DA
:1008300001F000414FF0000070BD50EA410606BFD4
:100840001046194652EA430619D094EA0C0F02D119
:1008500050EA013613D195EA0C0F05D152EA03365E
:100860001CBF104619460AD181EA030101F000417C
:1008700041F0FE4141F470014FF0000070BD41F0C5
:10088000FE4141F4780170BD70B54FF0FF0C4CF49F
:10089000E06C1CEA11541DBF1CEA135594EA0C0FBE
:1008A00095EA0C0F00F0A7F8A4EB050481EA030E0B
:1008B00052EA03354FEA013100F088804FEA0333F2
:1008C0004FF0805545EA131343EA12634FEA0222C0
:1008D00045EA111545EA10654FEA00260EF0004181
:1008E0009D4208BF964244F1FD0404F5407402D2D3
:1008F0005B084FEA3202B61A65EB03055B084FEA64
:1009000032024FF480104FF4002CB6EB020E75EB60
:10091000030E22BFB61A754640EA0C005B084FEA88
:100920003202B6EB020E75EB030E22BFB61A754605
:1009300040EA5C005B084FEA3202B6EB020E75EB50
:10094000030E22BFB61A754640EA9C005B084FEAC8
:100950003202B6EB020E75EB030E22BFB61A7546D5
:1009600040EADC0055EA060E18D04FEA051545EAC4
:1009700016754FEA06164FEAC30343EA52734FEA6D
:10098000C2025FEA1C1CC0D111F4801F0BD141EAE6
:1009900000014FF000004FF0004CB6E711F4801F4B
:1009A00004BF01430020B4F1FD0C88BFBCF5E06F2B
:1009B0003FF6AFAEB5EB030C04BFB6EB020C5FEA3B
:1009C000500C50F1000041EB045170BD0EF0004E90
:1009D0004EEA113114EB5C04C2BFD4EB0C0541EAC2
:1009E000045170BD41F480114FF0000E013C90E6BF
:1009F00045EA060E8DE60CEA135594EA0C0F08BF83
:100A000095EA0C0F3FF43BAF94EA0C0F0AD150EA81
:100A100001347FF434AF95EA0C0F7FF425AF104614
:100A200019462CE795EA0C0F06D152EA03353FF43C
:100A3000FDAE1046194622E750EA410618BF52EAB9
:100A400043067FF4C5AE50EA41047FF40DAF52EA8D
:100A500043057FF4EBAE12E74FF0FF3C06E000BF2A
:100A60004FF0010C02E000BF4FF0010C4DF804CD37
:100A70004FEA410C7FEA6C5C4FEA430C18BF7FEAF7
:100A80006C5C1BD001B050EA410C0CBF52EA430C25
:100A900091EA030F02BF90EA020F0020704710F1A5
:100AA000000F91EA030F58BF994208BF90422CBF34
:100AB000D8176FEAE37040F0010070474FEA410C2D
:100AC0007FEA6C5C02D150EA013C07D14FEA430C4B
:100AD0007FEA6C5CD6D152EA033CD3D05DF8040BBC
:100AE000704700BF8446104662468C4619466346EE
:100AF00000E000BF01B5FFF7B7FF002848BF10F1C5
:100B0000000F01BD4DF808EDFFF7F4FF0CBF012009
:100B100000205DF808FB00BF4DF808EDFFF7EAFF85
:100B200034BF012000205DF808FB00BF4DF808ED40
:100B3000FFF7E0FF94BF012000205DF808FB00BF35
:100B40004DF808EDFFF7CEFF94BF012000205DF8BF
:100B500008FB00BF4DF808EDFFF7C4FF34BF0120CC
:100B600000205DF808FB00BF4FEA410212F50012B9
:100B700015D211D56FF47873B3EB625212D94FEAE4
:100B8000C12343F0004343EA505311F0004F23FACE
:100B900002F018BF404270474FF00000704750EA23
:100BA000013005D111F0004008BF6FF000407047E0
:100BB0004FF00000704700BF4BB942B9002908BF91
:100BC000002802D04FF0FF31084600F03BB882B059
:100BD000EC462DE9005000F01DF8DDF804E002B00D
:100BE0000CBC70472DE9F843089C1546984606460C
:100BF0000F4600F029F805FB01F9A5FB002300FBD7
:100C0000089C6344B21A67EB0303C4E90023BDE800
:100C1000F88300BF2DE9F843089E174680468946B1
:100C20001D4600F06FF900FB05F3A0FB074507FB2D
:100C300001373D44B8EB040469EB0505C6E90045FE
:100C4000BDE8F883704700BF00292DE9F00FA8BF69
:100C50000026C0F2AB80002BC0F2A38089469046EC
:100C60009C46144605460F46002B48D18A425CD963
:100C7000B2FA82F353B1C3F1200201FA03F720FA6A
:100C800002F208FA03F400FA03F51743210CB7FB4C
:100C9000F1F201FB1277A0B200FB02F34FEA154C10
:100CA0004CEA0747BB4209D93F1902F1FF3C04D285
:100CB000BB4284BF023A3F1900D86246FF1AB7FB15
:100CC000F1F301FB137100FB03F0ADB245EA014102
:100CD000884208D9091903F1FF3703D2884288BF37
:100CE000023B00D83B4643EA024300221846114625
:100CF00016B1404261EB4101BDE8F00F70478B42F5
:100D000084BF00221346F1D8BCFA8CF1002940F0D0
:100D10009580CC4528BF80458CBF002201229CBF16
:100D200001230A46E2D91346E0E712B90123B3FBD7
:100D3000F2F4B4FA84F3002B3ED13F1B200C1FFACF
:100D400084FC0122B7FBF0F100FB11770CFB01F3EF
:100D50004FEA154848EA0747BB420AD93F1901F153
:100D6000FF3880F0C780BB4284BF02393F1940F290
:100D7000C180FF1AB7FBF0F300FB13700CFB03FC00
:100D8000ADB245EA0040844508D9001903F1FF37A8
:100D900003D2844588BF023B00D83B4643EA014367
:100DA000A4E7F643524263EB430357E7404261EB4B
:100DB00041014FF0FF364EE79C40C3F1200927FA6E
:100DC00009F125FA09F99F40200CB1FBF0F200FB74
:100DD00012111FFA84FC0CFB02F849EA07094FEADA
:100DE000194747EA0141884505FA03F509D9091968
:100DF00002F1FF3380F08480884584BF023A0919EC
:100E00007ED9C8EB0101B1FBF0F300FB13170CFB1B
:100E100003F81FFA89F949EA0747B84509D93F1984
:100E200003F1FF3104D2B84584BF023B3F1900D81B
:100E30000B46C8EB070743EA024283E7C1F12003F0
:100E400028FA03F20CFA01FC29FA03F420FA03F35E
:100E500009FA01F942EA0C0C4FEA1C4AB4FBFAF712
:100E60000AFB17441FFA8CFB0BFB07F043EA090946
:100E70004FEA194343EA0444A04208FA01F209D9AF
:100E800014EB0C0407F1FF3338D2A04284BF023FB9
:100E9000644433D9201AB0FBFAF30AFB13000BFBAE
:100EA00003FB1FFA89F949EA0040834509D910EB91
:100EB0000C0003F1FF341FD2834584BF023B604422
:100EC0001AD943EA0747A7FB0223CBEB000098425D
:100ED0000DD305FA01F114BF0023012391422CBF69
:100EE000002203F001023B46002A3FF4FFAE7B1EC6
:100EF0000022FBE641463CE72346E2E71F46C9E7FE
:100F00001A467EE72DE9F003144605460E46002BEF
:100F100042D18A4255D9B2FA82F34BB1C3F12006CD
:100F2000994020FA06F602FA03F400FA03F50E439C
:100F3000220CB6FBF2F002FB1066A7B207FB00F32F
:100F40004FEA154C4CEA0646B34209D9361900F16E
:100F5000FF3104D2B34284BF0238361900D80846A4
:100F6000F61AB6FBF2F302FB136207FB03F7ADB20E
:100F700045EA0242974209D9121903F1FF3180F084
:100F8000ED80974288BF023B40F2E88043EA004090
:100F90000021BDE8F00370478B4284BF0021084662
:100FA000F7D8B3FA83F4002C4AD18B4228BF82428F
:100FB0008CBF002101219CBF01202146E9D90846B0
:100FC000E7E712B90124B4FBF2F4B4FA84F7002F76
:100FD00040F084800B1B260CA7B20121B3FBF6F076
:100FE00006FB103307FB00F24FEA154C4CEA0343B3
:100FF0009A420AD91B1900F1FF3C80F0B1809A4255
:1010000084BF02381B1940F2AB809B1AB3FBF6F287
:1010100006FB123307FB02F7ADB245EA0345AF42C8
:1010200009D92C1902F1FF3380F09C80A74288BFB8
:10103000023A40F29780BDE8F00342EA0040704770
:10104000C4F1200522FA05F7A34021FA05F620FA9B
:1010500005F5A1403B434FEA1348B6FBF8FC08FBFB
:101060001C661FFA83F909FB0CF729430D0C45EAAE
:101070000646B74202FA04F204D9F6180CF1FF351D
:1010800078D3AC46F61BB6FBF8F708FB176609FBEE
:1010900007F989B241EA0645A94504D9ED1807F1D7
:1010A000FF3161D30F4647EA0C47A7FB0223C9EB88
:1010B00005059D420DD300FA04F114BF002501255A
:1010C00091422CBF002105F00101384600293FF470
:1010D00060AF781E0021BDE8F0037047BC40C7F147
:1010E000200321FA03FC20FA03F3B940260CBCFBD1
:1010F000F6F806FB18CC1FFA84F909FB08F219432D
:101100000B0C43EA0C4C624500FA07F50AD91CEBBC
:10111000040C08F1FF3334D2624584BFA8F1020801
:10112000A4442ED9C2EB0C0CBCFBF6F206FB12C396
:1011300009FB02F089B241EA0343984209D91B191D
:1011400002F1FF3104D2984284BF023A1B1900D841
:101150000A461B1A42EA08414F463FE70B4615E78D
:10116000604652E71A4666E7A94584BF023FED187C
:1011700099D897E7B74284BFACF1020CF61881D832
:101180007FE79846CEE700BF00F003004DF63473CA
:10119000C0F6000353F82000704700BF38B504467E
:1011A000C0F3830301259D408009FFF7EDFFA9B23D
:1011B00004F0010204F01AFD38BD00BF40F64C33C4
:1011C000C2F2000300221A601A4601E001331360E4
:1011D00013688342FADB704770B50646002818BFD3
:1011E000002927D00C68402CA8BF402440F6483383
:1011F000C2F200031A780132D2B21A70072A81BFF4
:1012000040F64833C2F2000300221A7040F6483319
:10121000C2F200031D7840F6AC50C2F2000000EBB1
:10122000851031462246FEF7D7FF40F6AC73C2F276
:1012300000035C5570BD00BF082815D840F6483340
:10124000C2F200031B78181A48BF083029B140F6D3
:10125000AC72C2F20002135C0B6040F6AC53C2F2F7
:10126000000303EB8010704700207047F0B583B097
:1012700005460F4616468479332C06D0342C0CD004
:10128000322C11D100F076F80EE0009302202946AE
:101290003A46334600F02AF806E000930420294637
:1012A0003A46334600F022F803B0F0BD30B583B0C3
:1012B0001546B0F57F4F38BF002014D3C0B2C41814
:1012C000072CC8BF01200EDC02A9002341F8043D11
:1012D0002046FFF7B1FF20B101A92A46631CFFF7A2
:1012E000C5FF0120FFE703B030BD00BF2DE9F04F7F
:1012F00085B0834602919A46DDF838901268C97924
:101300000298037A03EB01230BF10108043A0392DC
:1013100028E0029A02F109040025039B93FBF8F7E9
:101320001DE06678A37803EB0626B6B23046217836
:1013300052464B46FFF7BAFF78B92078FFF72EFFE9
:101340003046BBF1040F01BFE078000200EB064617
:10135000237908BFF018FFF731FF44440135AF424D
:10136000DFDC019B581E0190002BD2DC05B0BDE8EC
:10137000F08F00BF2DE9F04F8BB0029203930B6802
:10138000821DA3F1060AC67906F00307012505FAB6
:1013900007F7047A437A03EB042490F80A8008FAEA
:1013A00005F305331A440792C3EB0A0A00F10B0B4D
:1013B00005FA07F909F1FF391FFA89F93046FFF7F5
:1013C000E3FE0990C6F38306B5400AF1FF3ACDF873
:1013D00014A0ADB204954DF6DC63C0F6000308938B
:1013E00030E0079B13F80A60002420E006EA0905B4
:1013F00045451BDA3BF815002946029A039BFFF787
:1014000055FF88B9CDF800A00194089804992A46A0
:10141000069B06F0CDFD099804992A4604F0E6FBE8
:101420003BF81500FFF7CAFE3E41F6B23C44072CDC
:10143000DCDD0AF1010A01E04FF0000A059B53458B
:10144000CFDC069C631E0693002CF5DC0BB0BDE8D8
:10145000F08F00BF2DE9F0478146884692460E681E
:10146000871D063E0024234602E0FD5C2C44013328
:10147000B342FADB14F0FF0F0CD1062E0ADD48460A
:10148000414652460023FFF7F1FE48464146524688
:10149000FFF7A2FEBDE8F0872DE9F0470546884634
:1014A000174641F67044C2F200042046294601F076
:1014B00069FC2046394601F085FCD8F8006040F20E
:1014C0000003C2F200031B68002BBFBF40F2000301
:1014D000C2F2000308221A60052E0FDD40F2040359
:1014E000C2F2000328461968062206F0CFFD28B98B
:1014F000284641463A46FFF7ADFF51E00020002F55
:101500004ED040F20003C2F200031C68A642D8BFCE
:10151000002045DD28464DF62071C0F60001224628
:1015200006F0B4FD30B334E021462B5D9BBB621C5A
:10153000AB5C281980781844FF282ED12944C9783B
:10154000FF292CD1FF2B08BF89F800A003D0AD2BB9
:1015500008BF89F80070AA5C9309C2F3830107FAF7
:1015600001F158F8230089B202F0010204F03EFBB9
:1015700005340AE040F26C29C2F2000901274FF05D
:10158000000A4DF6CC68C0F60008B442CCDB00205F
:1015900006E0002004E0002002E0002000E000203F
:1015A00040B2BDE8F08700BF12230B8040F2440038
:1015B000C2F20000704700BF04230B8040F22400F9
:1015C000C2F20000704700BF30B400231D460CE09B
:1015D000040F092C94BF3034373401F81340000154
:1015E0005C0001340D550133DBB29342F0D330BCC3
:1015F000704700BF38B54FF2E873C1F6FF731A6841
:101600004FF2EC73C1F6FF731D684FF2F073C1F631
:10161000FF731B68D0180DD040F22804C2F20004FA
:10162000A11C0822FFF7D0FF284604F11201042272
:10163000FFF7CAFF38BD00BF08B51A230B80FFF7BC
:10164000D9FF40F22800C2F2000008BD08B50A46E2
:101650004DF64470C0F6000040F6B471C2F20001CD
:1016600001F0C8F840F6B470C2F2000008BD00BF37
:1016700010B50A4640F6B474C2F200044DF6547038
:10168000C0F60000214601F0B5F8204610BD00BFAD
:1016900008B50A464DF66870C0F6000040F6B47111
:1016A000C2F2000101F0A6F840F6B470C2F20000E8
:1016B00008BD00BF08B50A464DF67470C0F60000BC
:1016C00040F6B471C2F2000101F094F840F6B47033
:1016D000C2F2000008BD00BF20B102280CBF0120EB
:1016E000022070470020704700B583B002684FF4B5
:1016F000B843C4F200039A4214D14FF48053C4F2A9
:101700000203DA6942F40002DA61DB6903F40003E0
:101710000193019B142000210A4604F0C1FD14200E
:1017200004F0F2FD03B05DF804FB00BF08B501460C
:10173000D0F8E80201F52C7101F0B4F808BD00BF43
:1017400008B501EB810300EBC303D0F8E802D3F83E
:101750007C2101F0D5F808BD08B501EB810300EB51
:10176000C303D0F8E802DA6B01F00EF908BD00BF40
:1017700008B5D0F8E80201F0ABF908BD10B5044691
:101780008368022B01D005F06BF9D4F8E80201213F
:1017900001F086F9D4F8E80201F05AF910BD00BF53
:1017A00010B50446D0F8E80201F07EF9A3693BB118
:1017B0004FF46D43CEF200031A6942F006021A613B
:1017C00010BD00BF08B5D0F8E80201F077F908BDF8
:1017D00010B5044641F2B410C2F20000C0F8E8426D
:1017E000C4F8C0024FF4B842C4F2000202600822FA
:1017F00042600222826000228261C261026203F0C2
:1018000013FB08B105F02CF9D4F8C00200210A46F8
:10181000282303F059FAD4F8C00280210022602363
:1018200003F052FAD4F8C00281210022C02303F051
:101830004BFAD4F8C002012100224FF4887303F060
:1018400043FAD4F8C002822100224FF4807303F0DF
:101850003BFAD4F8C002832100224FF4C07303F096
:1018600033FAD4F8C002032100224FF4E07303F0EE
:101870002BFAD4F8C002842100224FF4E87303F05D
:1018800023FA002010BD00BF08B5D0F8C00203F055
:101890004DFBFFF721FF08BD10B51446D0F8C0027C
:1018A0001A46234603F088FFFFF716FF10BD00BF5E
:1018B00008B5D0F8C00203F0B3FFFFF70DFF08BD75
:1018C00008B5D0F8C00204F00FF8FFF705FF08BD17
:1018D00008B5D0F8C00204F03BF8FFF7FDFE08BDE4
:1018E000D0F8C03211F0800F01F07F011FBF01312D
:1018F00001EB810103EBC103987802BF01EB810189
:1019000003EBC10393F86A01704700BF08B5D0F834
:10191000C00203F055FEFFF7DFFE08BD08B5D0F8A2
:10192000C00203F0C9FFFFF7D7FE08BD08B5D0F825
:10193000C00203F0A3FFFFF7CFFE08BD08B5D0F843
:10194000C00203F0AFFF08BD40F65030C2F2000005
:10195000704700BF704700BF704700BF002070474E
:1019600010B5202866D142F2A802C2F2000202F6A7
:101970002804012B98BF14460B68002B5AD08A7993
:10198000002A57D06268536063688A79082A14BFB6
:101990004FF4805200229A6063680A79002A14BFCB
:1019A0004FF400520022DA6062684B7933B1012BA8
:1019B00014BF4FF480634FF4C06300E00023136151
:1019C00063680C225A616268002393616268D36184
:1019D00063681B68DA6822F40052DA60606802F01B
:1019E00063FA00B1FEE763681B68DA6842F0100230
:1019F000DA6063681B68DA6842F40052DA60237ABE
:101A000013F0800F0CD15AB2520903F01F030121C9
:101A100099404FF46143CEF20003603243F8221044
:101A2000606802F037FB606804F114014FF48062D3
:101A300002F0D8FA002010BD10B541F67044C2F291
:101A40000004204641F68801C2F20001002201F0A4
:101A500091F9204641F2A041C2F2000101F092F951
:101A6000002010BD2DE9F8438046154641F670422E
:101A7000C2F20002D2F8B832D3F81432002B49D1A6
:101A80000F460A460026304641F67044C2F2000472
:101A90004FF0400939E03F2A0DD9204608EB0601F6
:101AA0004A4601F067F940362046294601F070F9B0
:101AB0000128F9D028E092B941F67040C2F2000046
:101AC000414601F057F941F67044C2F20004204645
:101AD000294601F05DF90128F9D0BDE8F88341F607
:101AE0007040C2F2000008EB060192B201F042F928
:101AF00041F67044C2F200042046294601F048F93C
:101B00000128F9D0BDE8F883BA1B20B9BE42C2DD76
:101B1000BDE8F8830120BDE8F88300BF08B541F6B1
:101B20007040C2F2000040F20801C2F2000100223F
:101B300000F07CFE08B104F093FF41F67040C2F261
:101B4000000040F2FC01C2F2000100F087FE08B183
:101B500004F086FF41F67040C2F2000040F25801E6
:101B6000C2F2000101F0FEF808B104F079FF41F67D
:101B70007040C2F2000000F079FE08B104F070FF7E
:101B800008BD00BF704700BF70B50446D0F82038CC
:101B90002BB9C3681B685D68C5F5806504E0C36840
:101BA0001B685D68C5F50075606802F073FA002D6A
:101BB00020DD012D0AD1D4F8203804EB43235B69E2
:101BC000C4F814340123C4F81C3813E0D4F82018E6
:101BD00004EB41210D4EB069143104F214422B463E
:101BE00004F05AF8B0690021022204F02FF908B974
:101BF000C4F81C580023C4F82038606804F11401AC
:101C00004FF4806202F0EEF970BD00BF0839002089
:101C1000FEE700BFFEE700BFFEE700BFFEE700BF34
:101C2000FEE700BF704700BF704700BF704700BFAE
:101C300008B504F0E1FB04F09FFB40F27423C2F20C
:101C400000031A6801321A6008BD00BF08B542F2ED
:101C50006400C2F2000004F057FA08BD08B541F66E
:101C6000E070C2F2000004F04FFA08BD08B543F678
:101C70002410C2F2000004F047FA08BD08B543F68C
:101C80006810C2F2000004F03FFA08BD08B541F642
:101C90009C70C2F2000004F037FA08BD08B543F6A4
:101CA000AC10C2F2000004F02FFA08BD08B541F2F2
:101CB000B410C2F2000003F097FC08BD10B582B06A
:101CC00040F27023C2F2000301221A6040F2742332
:101CD000C2F200031A6043F6F014C2F20004204678
:101CE00002F0AEFA23681A6812F0100F0CD000222E
:101CF00001921A6801925B680193019B42F2A8006D
:101D0000C2F20000FFF740FF02B010BD10B582B074
:101D100040F27023C2F2000301221A6040F27423E1
:101D2000C2F200031A6043F67424C2F20004204693
:101D300002F086FA23681A6812F0100F09D0002208
:101D400001921A6801925B680193019B0248FFF7B8
:101D50001BFF02B010BD00BFD028002010B582B01C
:101D600040F27023C2F2000301221A6040F2742391
:101D7000C2F200031A6042F22404C2F200042046B8
:101D800002F05EFA23681A6812F0100F09D00022E0
:101D900001921A6801925B680193019B0248FFF768
:101DA000F3FE02B010BD00BFF830002082B04FF447
:101DB0008053C4F202039A6942F001029A619A695F
:101DC00002F001020092009ADA6942F08052DA6170
:101DD000DB6903F080530193019B0023C4F20103EC
:101DE0005A6822F0E06242F000725A6002B0704716
:101DF00070B58AB0044600230693079308930993AD
:101E000003684FF46052C4F20102934272D14FF45E
:101E10008053C4F202039A6942F480429A619A693B
:101E200002F480420092009A9A6942F004029A6198
:101E30009B6903F004030193019B4FF40073069325
:101E400002230793032309934FF40066C4F20106AB
:101E5000304606A903F0B2FD4FF4806306930025D7
:101E600007950895304606A903F0A8FD43F66810CB
:101E7000C2F200005823C4F202030360456085608B
:101E80008023C36005614561202383614FF40053C3
:101E9000C36103F0C7FE08B104F0E2FD43F6681326
:101EA000C2F2000363635C6243F62410C2F20000D6
:101EB0004423C4F2020303601023436000238360C1
:101EC0008022C260036143618361C36103F0AAFEA3
:101ED00008B104F0C5FD43F62413C2F200032363E6
:101EE0005C62252000210A4604F0DAF9252004F07E
:101EF0000BFAEEE04FF48842C4F20002934270D134
:101F00004FF48053C4F20203DA6942F40032DA611A
:101F1000DA6902F400320292029A9A6942F00402EB
:101F20009A619B6903F004030393039B04230693C4
:101F300002230793032309934FF40066C4F20106BA
:101F4000304606A903F03AFD0823069300250795BD
:101F50000895304606A903F031FD41F69C70C2F2A7
:101F600000006C23C4F20203036045608560802397
:101F7000C36005614561202383614FF40053C36151
:101F800003F050FE08B104F06BFD41F69C73C2F201
:101F9000000363635C6243F6AC10C2F2000080236E
:101FA000C4F2020303601023436000238360802295
:101FB000C260036143618361C36103F033FE08B112
:101FC00004F04EFD43F6AC13C2F2000323635C62DF
:101FD000262000210A4604F063F9262004F094F933
:101FE00077E04FF49042C4F20002934271D14FF473
:101FF0008053C4F20203DA6942F48022DA61DA69BA
:1020000002F480220492049A9A6942F008029A61CA
:102010009B6903F008030593059B4FF480630693C7
:1020200002230793032309934FF44066C4F2010689
:10203000304606A903F0C2FC4FF400630693002566
:1020400007950895304606A903F0B8FC41F6E07004
:10205000C2F200003023C4F20203036045608560D1
:102060008023C36005614561202383614FF40053E1
:10207000C36103F0D7FD08B104F0F2FC41F6E07350
:10208000C2F2000363635C6242F26400C2F20000C9
:102090001C23C4F202030360102343600023836007
:1020A0008022C260036143618361C36103F0BAFDB2
:1020B00008B104F0D5FC42F26403C2F200032363CA
:1020C0005C62272000210A4604F0EAF8272004F089
:1020D0001BF90AB070BD00BF38B50D461346022289
:1020E000C0F89422C361036200212A46FFF716FC60
:1020F000002038BD10B50C46134600212246FFF7DC
:102100000DFC002010BD00BF38B50D46134603225C
:10211000C0F89422C0F85C31C0F8603100212A4632
:10212000FFF704FC002038BD10B50C461346002113
:102130002246FFF7FBFB002010BD00BF08B50423BB
:10214000C0F8943200210A460B46FFF7E7FB002057
:1021500008BD00BF08B50523C0F8943200210A4627
:102160000B46FFF7E3FB002008BD00BF034600203D
:1021700002E00130C0B201331A78002AF9D1704769
:1021800008B54B88012B03D1C0F8A432FFF7D6FF66
:1021900008BD00BF0B7803704B7843708B78CA780A
:1021A00003EB022343800B794A7903EB02238380FC
:1021B0008B79CA7903EB0223C380704710B50446BC
:1021C0008021FFF77DFB20460021FFF779FB10BD42
:1021D00030B583B005460C460023ADF806304A887A
:1021E000130A013B062B00F2C080DFE803F0040E67
:1021F00026BEBE9AAB00D0F8B0321B68007C0DF151
:102200000601984701460023B4E0037C53B9D0F897
:10221000B4329B6A0DF106009847014602234370D1
:102220000023A7E0D0F8B432DB6A0DF1060098472E
:1022300001460223437000239CE0D2B2052A6AD8EB
:10224000DFE802F0031425364758D0F8B0325B6857
:1022500033B1007C0DF1060198470146002389E067
:102260002146FFF7ABFF0123002183E0D0F8B03215
:102270009B6833B1007C0DF10601984701460023AD
:1022800078E02146FFF79AFF0123002172E0D0F8A1
:10229000B032DB6833B1007C0DF10601984701468E
:1022A000002367E02146FFF789FF0123002161E059
:1022B000D0F8B0321B6933B1007C0DF106019847AC
:1022C0000146002356E02146FFF778FF0123002155
:1022D00050E0D0F8B0325B6933B1007C0DF10601FB
:1022E00098470146002345E02146FFF767FF012399
:1022F00000213FE0D0F8B0329B6933B1007C0DF192
:10230000060198470146002334E02146FFF756FFB7
:10231000012300212EE02146FFF750FF0123002179
:1023200028E0037C43B9D0F8B4325B6B0DF10600B2
:102330009847014600231DE02146FFF73FFF012398
:10234000002117E0037C53B9D0F8B4321B6B0DF1B8
:102350000600984701460723437000230AE0214600
:10236000FFF72CFF0123002104E02146FFF726FFA1
:10237000012300218BB9BDF806304BB1E2883AB198
:10238000934238BF1A46ADF806202846FFF7A4FE50
:10239000E38813B92846FFF7D1FE03B030BD00BF74
:1023A00038B504468B88F3B9CB88E3B94B887F2BCB
:1023B00019D803F07F0590F89C32032B02D1FFF768
:1023C000FDFE38BD80F89E522946FFF79FFA204651
:1023D000FFF7B4FE1DB1022384F89C3238BD0123FF
:1023E00084F89C3238BD2046FFF7E8FE38BD00BFB8
:1023F00038B504460D468A7840F67053C2F20003A1
:102400001A70012A02D9FFF7D9FE38BD90F89C3224
:10241000022B02D0032B16D03EE08AB14260032388
:1024200080F89C32114600F027FA022804D1204699
:102430002946FFF7C3FE38BD2046FFF77FFE38BDB3
:10244000FFF77CFE38BD52B9022380F89C3242600F
:10245000114600F01FFA2046FFF770FE38BD4168B4
:102460008A4216D0C9B200F015FA40F67053C2F293
:10247000000319786160204600F0FEF9022804D1BB
:1024800020462946FFF79AFE38BD2046FFF756FE44
:1024900038BDFFF753FE38BDFFF790FE40F670538E
:1024A000C2F200032046197800F0F4F938BD00BFED
:1024B00008B50346CA88012A02D0FFF77FFE08BD8F
:1024C00090F89C228AB1022A02D9032A08D00CE093
:1024D0000146002241F8082F0122FFF7FDFD08BD4B
:1024E000191D0122FFF7F8FD08BD1846FFF766FE2B
:1024F00008BD00BF08B5034690F89C22013A022AA5
:1025000013D8CA88022A02D0FFF758FE08BD01225C
:10251000C260D0F8A4220AB10322C260184603F1B7
:102520000C010222FFF7D8FD08BDFFF747FE08BDEA
:1025300008B590F89C32013B022B08D84B88012B40
:1025400007D10023C0F8A432FFF7F8FD08BDFFF75C
:1025500035FE08BD08B50B7803F06003202B03D0CF
:10256000402B01D03BBB04E0D0F8B4329B689847C5
:1025700023E04B78092B1BD8DFE803F011171A145E
:102580001A08051A0E0BFFF723FE16E0FFF708FFE7
:1025900013E0FFF72DFF10E0FFF78AFF0DE0FFF7D4
:1025A000A9FF0AE0FFF7ECFD07E0FFF7C1FF04E039
:1025B000FFF704FE01E0FFF701FE002008BD00BFA9
:1025C00038B505460C460B7803F06003202B02D08B
:1025D000402B00D0F3B995F89C32013B022B14D864
:1025E0002379032B0CD8D5F8B4329B6828462146B2
:1025F0009847E38883B978B92846FFF79FFD0BE039
:1026000028462146FFF7DAFD06E028462146FFF777
:10261000D5FD01E0FFF7D2FD002038BD70B50446BE
:102620008A88D5B20B7803F06003202B05D0402BAD
:1026300003D0002B40F0D88006E0D4F8B4329B6879
:1026400020469847002070BD202B04D1D0F8B4322A
:102650009B68984770BD4B78012B30D0002B58D029
:10266000032B40F0BD8090F89C32022B02D0032B4C
:1026700011D020E0002D18BF802D08D02946FFF78B
:102680001FF920468021FFF71BF9002070BDFFF7DE
:1026900095FD002070BD4B8843B9002D18BF802DDB
:1026A00004D0CB8813B92946FFF70AF92046FFF773
:1026B00045FD002070BDFFF781FD002070BD90F842
:1026C0009C32022B02D0032B11D01EE0002D18BF2C
:1026D000802D08D02946FFF7F3F820468021FFF728
:1026E000EFF8002070BDFFF769FD002070BD4B883A
:1026F000002B7DD115F07F0F02D02946FFF7E8F8B7
:102700002046FFF71BFD002070BDFFF757FD00209E
:1027100070BD90F89C32022B02D0032B1BD05BE0E3
:10272000002D18BF802D03D0FFF748FD002070BD9D
:1027300012F0800F05F07F0505EB850500EB8501A4
:1027400014BF143101F5AA7100250D600222FFF7B4
:10275000C3FC284670BDD2B212F0800F0BD005F03A
:102760000F0303EB830300EB83039B6983B9FFF73C
:1027700025FD002070BD05F00F0303EB830300EB84
:102780008303D3F858311BB9FFF718FD002070BD43
:1027900012F0800F05F07F0303EB830304EB830645
:1027A00014BF143606F5AA76802D18BF002D02D16D
:1027B0000023336009E020462946FFF791F810B165
:1027C0000123336001E000233360204631460222BA
:1027D000FFF782FC002070BDFFF7F0FC002070BD09
:1027E000FFF7ECFC002070BDFFF7E8FC002070BD97
:1027F000002070BD70B50D4616460446A0B1FFF727
:10280000B5FC0130430033802B7003236B70022230
:10281000002106E0501CC0B20134AB54421CD2B2BD
:1028200029542378002BF5D170BD00BF08B50346AD
:1028300088B1D0F8B40210B10020C3F8B40209B1D5
:10284000C3F8B012012183F89C121A701846FEF7E3
:10285000BFFF002008BD022008BD00BF19B1C0F8AD
:10286000B412002070470220704700BF08B5FFF780
:102870000BF8002008BD00BF08B5D0F8B43233B162
:102880001B689847002814BF0220002008BD0220C2
:1028900008BD00BF08B5D0F8B4325B689847002087
:1028A00008BD00BF38B5044600F52A752846FFF775
:1028B00071FC0123C4F89432B4F8AE32C4F89832F3
:1028C00094F8A81201F01F03012B08D013B1022BBA
:1028D0000AD00EE020462946FFF73CFE0EE02046D7
:1028E0002946FFF76DFE09E020462946FFF796FED0
:1028F00004E0204601F08001FEF7E2FF002038BD31
:1029000038B5044671BBD0F89432032B20D1D0F8EF
:102910006011D0F8643199420CD9C91AC0F860111D
:102920008B428CBF8BB29BB211461A46FFF7FCFB61
:10293000002038BDD0F8B4321B6923B190F89C2236
:10294000032A00D198472046FFF7F8FB002038BD46
:10295000052B12D10025C0F894522946FEF7B0FF8E
:10296000284638BDD0F8B4329B6943B190F89C2218
:10297000032A06D19847002038BD002038BD022028
:1029800038BD022038BD00BF38B5044600294DD1FE
:10299000D0F89432022B3AD1016A436A99420CD999
:1029A000CB1A036211469AB2FFF7A4FB204600211E
:1029B0000A460B46FEF7BAFF30E0C269B2FBF3F1FC
:1029C00003FB112189B993420FD8D0F898329A426B
:1029D0000BD20A46FFF78EFB0023C4F8983220463C
:1029E00019461A46FEF7A2FF18E0D4F8B432DB68A5
:1029F0002BB194F89C22032A01D120469847204607
:102A00008021FEF75DFF2046FFF7A4FB06E0002BC8
:102A100018BF042B02D18021FEF752FF94F8A03298
:102A2000012B0ED1002084F8A00238BDD0F8B432BA
:102A30005B6943B190F89C22032A06D19847002095
:102A400038BD002038BD022038BD022038BD00BF8F
:102A500070B5044600210A464023FEF71DFF0125FC
:102A6000C4F858514026C4F86461204680210022F1
:102A70003346FEF711FFA561666284F89C5200237D
:102A8000C4F894326360C4F8A432D4F8B8322BB1DD
:102A9000D4F8B4325B68204600219847002070BD0E
:102AA00001740020704700BF90F89C3280F89D327E
:102AB000042380F89C320020704700BF90F89C32BD
:102AC000042B04BF90F89D3280F89C3200207047A0
:102AD00008B590F89C32032B04D1D0F8B432DB69EE
:102AE00003B19847002008BDD0F8B8321BB10020D0
:102AF000C3F8140270470220704700BF38B5034680
:102B0000D0F8B842D0F8BC226AB194F80002FF288D
:102B100009D09568214694F80122B3F8AC32A84751
:102B2000FF2384F80032002038BD00BF8D230380CE
:102B300040F26C00C2F20000704700BF8D2303809A
:102B400040F2D010C2F20000704700BF8D23038016
:102B500040F24010C2F20000704700BF0A23038019
:102B600040F23410C2F20000704700BF70B5044656
:102B70000E46D0F8B852FEF7E1FEC5F80C02D4F8C4
:102B8000B8326BB1D4F8BC32DB68D5F8040205F575
:102B90000371012E14BF022200229847002070BD4D
:102BA000022070BDF8B505460C46D0F8B8620B7827
:102BB00013F0600226D0202A2ED1CA88D2B113F099
:102BC000800F0CD0D0F8BC329F6848783146A3887B
:102BD000B84728463146E288FFF77EFA1CE04B787A
:102BE00086F80032CB8886F801323146E288FFF75A
:102BF0008BFA11E0D0F8BC329D6848780022A38897
:102C0000A84709E04B780A2B06D140F67151C2F271
:102C100000010122FFF760FA0020F8BD10B504465C
:102C20008121FEF745FE20460121FEF741FE2046A8
:102C30008221FEF73DFE20468321FEF739FE204625
:102C40000321FEF735FE20468421FEF731FED4F83D
:102C5000B83253B1D4F8BC325B689847D4F8B802A4
:102C6000FEF778FE0023C4F8B832002010BD00BF84
:102C700038B50446037CDBB9812102224FF400738E
:102C8000FEF70AFE2046012102224FF40073FEF7F0
:102C900003FE2046832102224FF40073FEF7FCFD61
:102CA0002046032102224FF40073FEF7F5FD16E0E3
:102CB000812102224023FEF7EFFD2046012102225E
:102CC0004023FEF7E9FD2046832102224023FEF740
:102CD000E3FD2046032102224023FEF7DDFD2046CE
:102CE000822103220823FEF7D7FD204684210322F8
:102CF0000823FEF7D1FD4FF40770FEF725FE0546C9
:102D0000C4F8B80260B3D4F8BC321B6898470023FB
:102D1000C5F81432C5F81832237C8BB9204601213E
:102D2000D5F804224FF40073FEF700FE204603217D
:102D3000D5F804224FF40073FEF7F8FD002038BDEB
:102D400020460121D5F804224023FEF7EFFD20465E
:102D50000321D5F804224023FEF7E8FD002038BD0A
:102D6000012038BD19B1C0F8BC1200207047022004
:102D7000704700BFD0F8B832C3F80812C3F8102269
:102D800000207047D0F8B832C3F804120020704712
:102D900008B5D0F8B8328BB1D3F8142282B9012229
:102DA000C3F8142291428CBF83218121D3F80822D9
:102DB000B3F81032FEF7B2FD002008BD022008BDB6
:102DC000012008BD08B5D0F8B832C3B1027C5AB9A9
:102DD00001298CBF03210121D3F804224FF4007391
:102DE000FEF7A4FD002008BD01298CBF03210121AD
:102DF000D3F804224023FEF799FD002008BD0220ED
:102E000008BD00BF84B001A880E80E00002004B017
:102E1000704700BF0023A0F844304FF43F42A0F8B1
:102E200040201846704700BFB0F8403023F47C5370
:102E30005B045B0CA0F84030002070470020704716
:102E400084B010B402AC84E80E000123A0F8403036
:102E50000023A0F84030A0F84430A0F850301846C5
:102E60005DF8044B04B0704730B403460C7830F87A
:102E7000242022F4EC4222F070021204120CC878D2
:102E8000032803D8DFE800F0040C100801200CE050
:102E900042F40072002008E042F4C062002004E026
:102EA00042F48062002000E0002042F4004242F040
:102EB000800223F824200C7833F8242022F4E04206
:102EC00022F070021204120C224342F4004242F03B
:102ED000800223F824200A7B002A40F0A3804A784D
:102EE000C2B3B3F85040A4B21C440A7804EB0214F5
:102EF000CD884FF6FE722A40A4F800240C7833F8EF
:102F0000242002F0400292B26AB133F8242022F465
:102F1000E04222F070021204120C42F4004242F02D
:102F2000C00223F82420CA78012A097833F8212026
:102F300022F4E04222F040024FEA02424FEA1242FB
:102F400018BF82F0200242F4004242F0800223F8CF
:102F500021202DE1B3F85040A4B21C440A7804EBC0
:102F60000214CD884FF6FE722A40A4F80824B3F864
:102F7000502092B21A440C7802EB04120C698CB9FE
:102F8000B2F80C4424F4F8442404240CA2F80C44B1
:102F9000B2F80C446FEA44446FEA5444A4B2A2F875
:102FA0000C4418E03E2C09D8650814F0010F18BF36
:102FB0000135AD02ADB2A2F80C540CE0650914F075
:102FC0001F0F08BF05F1FF356FEAC5646FEA54446F
:102FD000A4B2A2F80C440C7833F8242002F4804206
:102FE00092B26AB133F8242022F4E04222F0700257
:102FF0001204120C42F4404242F0800223F82420D2
:10300000097833F8212022F4804222F07002120461
:10301000120C82F4405242F4004242F0800223F843
:103020002120C5E00C7833F8242022F4E04222F07D
:1030300070021204120C42F4014242F0800223F8A2
:103040002420B3F85040A4B21C440A7804EB0214C4
:103050000D894FF6FE722A40A4F80024B3F85040C0
:10306000A4B21C440A7804EB02144D894FF6FE7298
:103070002A40A4F808244A78002A4AD10C7833F868
:10308000242002F4804292B26AB133F8242022F460
:10309000E04222F070021204120C42F4404242F06C
:1030A000800223F824200C7833F8242002F0400218
:1030B00092B26AB133F8242022F4E04222F0700286
:1030C0001204120C42F4004242F0C00223F8242001
:1030D0000C7833F8242022F4804222F0700212048B
:1030E000120C82F4405242F4004242F0800223F873
:1030F0002420097833F8212022F4E04222F0400213
:103100001204120C42F4004242F0800223F8212003
:103110004EE00C7833F8242002F4804292B26AB177
:1031200033F8242022F4E04222F070021204120C40
:1031300042F4404242F0800223F824200C7833F815
:10314000242002F0400292B26AB133F8242022F423
:10315000E04222F070021204120C42F4004242F0EB
:10316000C00223F82420CA78012A0C7833F82420DE
:1031700022F4E04222F040024FEA02424FEA1242B9
:1031800018BF82F0200242F4004242F0800223F88D
:103190002420097833F8212022F4804222F07002A2
:1031A0001204120C42F4004242F0800223F8212063
:1031B00030BC70470B7B002B4BD14B7823B30A7884
:1031C00030F8223003F040039BB26BB130F822306C
:1031D00023F4E04323F070031B041B0C43F400436F
:1031E00043F0C00320F822300A7830F8223023F46C
:1031F000E04323F040031B041B0C43F4004343F063
:10320000800320F82230D6E00A7830F8223003F428
:1032100080439BB26BB130F8223023F4E04323F0BB
:1032200070031B041B0C43F4404343F0800320F85D
:1032300022300A7830F8223023F4804323F07003E0
:103240001B041B0C43F4004343F0800320F822309E
:10325000B1E04B78002B57D10A7830F8223003F4D4
:1032600080439BB26BB130F8223023F4E04323F06B
:1032700070031B041B0C43F4404343F0800320F80D
:1032800022300A7830F8223003F040039BB26BB151
:1032900030F8223023F4E04323F070031B041B0CAE
:1032A00043F4004343F0C00320F822300A7830F89A
:1032B000223023F4E04323F070031B041B0C43F47F
:1032C000004343F0C00320F822300A7830F822305F
:1032D00023F4804323F070031B041B0C43F40043CE
:1032E00043F0800320F822300A7830F8223023F4AB
:1032F000E04323F040031B041B0C43F4004343F062
:10330000800320F8223056E00A7830F8223003F4A7
:1033100080439BB26BB130F8223023F4E04323F0BA
:1033200070031B041B0C43F4404343F0800320F85C
:1033300022300A7830F8223003F040039BB26BB1A0
:1033400030F8223023F4E04323F070031B041B0CFD
:1033500043F4004343F0C00320F822300A7830F8E9
:10336000223023F4E04323F070031B041B0C43F4CE
:10337000404343F0800320F822300A7830F82230AE
:1033800023F4E04323F040031B041B0C43F40043ED
:1033900043F0800320F822300A7830F8223023F4FA
:1033A000804323F070031B041B0C43F4004343F0E1
:1033B000800320F822300020704700BF4B788BB18B
:1033C0000A7830F8223023F4E04323F040031B0452
:1033D0001B0C83F0100343F4004343F0800320F8F8
:1033E000223010E00A7830F8223023F4804323F0B2
:1033F00070031B041B0C83F4805343F4004343F01D
:10340000800320F822300020704700BF0B7B002B88
:1034100051D14B784BB30A7830F8223003F0400397
:103420009BB26BB130F8223023F4E04323F07003F9
:103430001B041B0C43F4004343F0C00320F822306C
:10344000CB78012B37D00A7830F8223023F4E043D0
:1034500023F040031B041B0C83F0200343F40043C0
:1034600043F0800320F8223025E00A7830F822303B
:1034700003F480439BB26BB130F8223023F4E04375
:1034800023F070031B041B0C43F4404343F0800300
:1034900020F822300A7830F8223023F4804323F0D9
:1034A00070031B041B0C83F4405343F4004343F0AC
:1034B000800320F822300020704700BF11B980231C
:1034C000A0F84C3000207047002070470020704763
:1034D000B0F8440080B270470020704710B4013348
:1034E0005B0800EB420202F5806207E008784C7846
:1034F00040EA042022F8040B0231013B002BF5D1F5
:103500005DF8044B704700BF70B505460C464A781D
:10351000012A40F056828E690B699E4228BF1E46E2
:10352000097B79B9B6B26169E2883346FFF7D6FF05
:10353000B5F850309BB22B44227803EB0213A3F86A
:1035400004642BE2E178022940F07781226A9342F9
:1035500080F05581227830F8223023F4E04323F0C4
:1035600070031B041B0C43F4014343F0800320F859
:103570002230236A9B1B2362237830F8232002F039
:10358000400292B2002A00F09D80627892BBB0F8AF
:10359000502092B2024402EB03138EB9B3F80C240C
:1035A00022F4F8421204120CA3F80C24B3F80C24F1
:1035B0006FEA42426FEA524292B2A3F80C2424E02E
:1035C0003E2E09D8720816F0010F18BF0132920280
:1035D00092B2A3F80C2418E0720916F01F0F08BF6E
:1035E00002F1FF326FEAC2626FEA524292B2A3F86E
:1035F0000C240AE0012A08D1B0F8502092B202440B
:1036000002EB0313B2B2A3F80C2428466169628965
:10361000B3B2FFF763FF636933446361236A2269CE
:10362000934287BFC6EB030323620022226298BF46
:103630001E4663789BBBB5F850309BB22B44227872
:1036400003EB02138EB9B3F8042422F4F8421204F7
:10365000120CA3F80424B3F804246FEA42426FEA80
:10366000524292B2A3F8042425E03E2E09D87208F3
:1036700016F0010F18BF0132920292B2A3F804248F
:1036800019E0720916F01F0F08BF02F1FF326FEA4E
:10369000C2626FEA524292B2A3F804240BE0012BFB
:1036A00009D1B5F850309BB22B44227803EB0213BA
:1036B000B2B2A3F80424284661692289B3B2FFF7A5
:1036C0000DFF6BE1627892BBB0F8502092B20244D9
:1036D00002EB03138EB9B3F8042422F4F842120467
:1036E000120CA3F80424B3F804246FEA42426FEAF0
:1036F000524292B2A3F8042424E03E2E09D8720864
:1037000016F0010F18BF0132920292B2A3F80424FE
:1037100018E0720916F01F0F08BF02F1FF326FEABE
:10372000C2626FEA524292B2A3F804240AE0012A6C
:1037300008D1B0F8502092B2024402EB0313B2B2A7
:10374000A3F80424284661692289B3B2FFF7C6FEB4
:10375000636933446361236A2269934287BFC6EB7E
:10376000030323620022226298BF1E4663789BBB3C
:10377000B5F850309BB22B44227803EB02138EB97C
:10378000B3F80C2422F4F8421204120CA3F80C240F
:10379000B3F80C246FEA42426FEA524292B2A3F8A5
:1037A0000C2425E03E2E09D8720816F0010F18BF30
:1037B0000132920292B2A3F80C2419E0720916F0B9
:1037C0001F0F08BF02F1FF326FEAC2626FEA524276
:1037D00092B2A3F80C240BE0012B09D1B5F85030BC
:1037E0009BB22B44227803EB0213B2B2A3F80C2451
:1037F000284661696289B3B2FFF770FECEE0217896
:1038000030F8213023F4E24323F070031B041B0C37
:1038100043F4004343F0800320F82130B0F85030E7
:103820009BB20344217803EB011193B2A1F8043455
:1038300061692289FFF752FEB0E0237830F8231047
:1038400001F0400189B2002940D092BBB0F850206D
:1038500092B2024402EB03138EB9B3F80C2422F4A3
:10386000F8421204120CA3F80C24B3F80C246FEAEB
:1038700042426FEA524292B2A3F80C2424E03E2E58
:1038800009D8720816F0010F18BF0132920292B2E5
:10389000A3F80C2418E0720916F01F0F08BF02F1FC
:1038A000FF326FEAC2626FEA524292B2A3F80C246E
:1038B0000AE0012A08D1B0F8502092B2024402EB8B
:1038C0000313B2B2A3F80C2462893FE092BBB0F8B4
:1038D000502092B2024402EB03138EB9B3F80424D1
:1038E00022F4F8421204120CA3F80424B3F80424BE
:1038F0006FEA42426FEA524292B2A3F8042424E0F3
:103900003E2E09D8720816F0010F18BF013292023C
:1039100092B2A3F8042418E0720916F01F0F08BF32
:1039200002F1FF326FEAC2626FEA524292B2A3F82A
:1039300004240AE0012A08D1B0F8502092B20244CF
:1039400002EB0313B2B2A3F804242289284661696A
:10395000B3B2FFF7C3FD63787BB9227835F8223024
:1039600023F4E04323F070031B041B0C43F40043D7
:1039700043F0C00325F8223010E0012B0ED122784D
:1039800035F8223023F4E04323F070031B041B0CB2
:1039900043F4404343F0800325F82230227835F881
:1039A000223023F4E04323F040031B041B0C83F07C
:1039B000300343F4004343F0800325F82230002015
:1039C00070BD0B7B002B3ED18B690A69934283BF8C
:1039D000C2EB03038B611346002298BF8A61B0F8E3
:1039E000502092B20244097802EB01128BB9B2F86E
:1039F0000C3423F4F8431B041B0CA2F80C34B2F86B
:103A00000C346FEA43436FEA53439BB2A2F80C3481
:103A100051E13E2B09D8590813F0010F18BF0131AD
:103A2000890289B2A2F80C1445E1590913F01F0F5D
:103A300008BF01F1FF316FEAC1616FEA514189B2FC
:103A4000A2F80C1437E1CB78022B40F0A380A2BB84
:103A5000B0F850309BB203440A7803EB02130A69B2
:103A60008AB9B3F8042422F4F8421204120CA3F821
:103A70000424B3F804246FEA42426FEA524292B23D
:103A8000A3F8042425E03E2A09D8510812F0010FBA
:103A900018BF01318A0292B2A3F8042419E0510937
:103AA00012F01F0F08BF01F1FF316FEAC1626FEA28
:103AB000524292B2A3F804240BE0012A09D1B0F8D3
:103AC00050309BB203440A7803EB02130A8AA3F82E
:103AD00004246378A3BBB5F850309BB22B44227802
:103AE00003EB021322698AB9B3F80C2422F4F842DA
:103AF0001204120CA3F80C24B3F80C246FEA42420F
:103B00006FEA524292B2A3F80C2425E03E2A09D86B
:103B1000510812F0010F18BF01318A0292B2A3F8C6
:103B20000C2419E0510912F01F0F08BF01F1FF31F9
:103B30006FEAC1626FEA524292B2A3F80C240BE022
:103B4000012B09D1B5F850309BB22B44227803EBFE
:103B50000213228AA3F80C24E369002B00F0AB8047
:103B6000227835F8223044F240010B40002B18BF78
:103B70008B4240F0A08035F8223023F4E04323F05C
:103B800070031B041B0C43F4004343F0C00325F8EF
:103B9000223090E0012B40F0A1808B6909698B42B3
:103BA00083BFC1EB0303A3610B46002198BFA16152
:103BB0009ABBB0F8502092B20244217802EB011275
:103BC0008BB9B2F8041421F4F8410904090CA2F8E5
:103BD0000414B2F804146FEA41416FEA514189B20A
:103BE000A2F8041425E03E2B09D8590813F0010F60
:103BF00018BF0131890289B2A2F8041419E05909E9
:103C000013F01F0F08BF01F1FF316FEAC1616FEAC6
:103C1000514189B2A2F804140BE0012A09D1B0F88D
:103C2000502092B20244217802EB011299B2A2F81C
:103C3000041462789ABBB5F8502092B22A442178D5
:103C400002EB01128BB9B2F80C3423F4F8431B04D5
:103C50001B0CA2F80C34B2F80C346FEA43436FEA41
:103C600053439BB2A2F80C3425E03E2B09D85908E7
:103C700013F0010F18BF01318B029BB2A2F80C3474
:103C800019E0590913F01F0F08BF01F1FF316FEA66
:103C9000C1636FEA53439BB2A2F80C340BE0012AD4
:103CA00009D1B5F8502092B22A44217802EB0112D2
:103CB0009BB2A2F80C34227835F8223023F48043EA
:103CC00023F070031B041B0C83F4405343F40043A4
:103CD00043F0800325F82230002070BD012070BD24
:103CE00010B45C0800EB420000F5806007E030F89B
:103CF000042B92B20A70120A4A700231013C002C65
:103D0000F5D113F0010F1CBF03880B705DF8044B55
:103D1000704700BF0368DA6822F0C002DA6020232F
:103D200080F83930704700BF0368DA6822F4907277
:103D3000DA6003685A6922F001025A61202380F890
:103D40003A30704790F83930DBB2212B27D18368A5
:103D5000B3F5805F0BD103694BB9026A036812881F
:103D6000C2F308025A60036A0233036205E0026884
:103D7000036A591C01621B785360C38C9BB2013BE0
:103D80009BB2C3846BB90368DA6822F08002DA6000
:103D90000368DA6842F04002DA60002070470220CF
:103DA00070470020704700BF10B5044603681969CA
:103DB00021F44051C2680A431A61826803691A43B8
:103DC000436942EA03010368DA6822F4B05222F040
:103DD0000C020A43DA600368596921F44071826970
:103DE0000A435A6102684FF46053C4F201039A42D5
:103DF00002D100F057FF01E000F042FF216800EB24
:103E0000800000EB800063689B00B0FBF3F048F299
:103E10001F53C5F2EB13A3FB00425209642404FBB9
:103E2000120000013230A3FB00435B0903F0F000F5
:103E300000EB021203F00F0313448B6010BD00BFB0
:103E40002DE9F04106460C4617469846069D1EE0B1
:103E5000B5F1FF3F1BD02DB102F0DCFAC8EB00003A
:103E6000A84214D93368DA6822F4D072DA60336871
:103E70005A6922F001025A61202386F8393086F807
:103E80003A30002386F838300320BDE8F0813168ED
:103E900009682140A14214BF00210121B942D7D0B5
:103EA0000020BDE8F08100BF10B5044658B390F87B
:103EB000393013F0FF0F04D1002380F83830FDF7BC
:103EC00097FF242384F839302368DA6822F40052FB
:103ED000DA602046FFF768FF23681A6922F49042EF
:103EE0001A6123685A6922F02A025A612368DA6843
:103EF00042F40052DA600020E063202384F8393075
:103F000084F83A3010BD012010BD00BF2DE9F04FFC
:103F100083B004460D4617461E4690F83910C9B2C4
:103F2000202918BF022059D1002A18BF002D08BF30
:103F3000012053D094F83830012B08BF02204DD017
:103F4000012384F838300023E363212384F83930D7
:103F500002F060FA8046A784E784A368B3F5805F27
:103F600018BF4FF0000B06D123694FF0000B13B9B7
:103F7000FFE7AB460025002384F838304FF0800A75
:103F8000994618E00096204651464A464346FFF7B8
:103F900057FF00BB35B923683BF8022BC2F3080278
:103FA0005A6003E0236815F8012B5A60E38C9BB23A
:103FB000013B9BB2E384E78CBFB2002FE2D10096B5
:103FC0002046402100224346FFF73AFF28B920232C
:103FD00084F8393002E0032000E0032003B0BDE89C
:103FE000F08F00BF70B582B004460D46134690F8BE
:103FF0003A00C0B2202818BF022048D1002A18BFBA
:10400000002908BF012042D094F83820012A08BFB7
:1040100002203CD0012284F83820A162A38500262A
:10402000E663222284F83A20616B44F21112C0F652
:1040300000028A62616B44F2E512C0F60002CA62B5
:10404000616B44F2F112C0F600020A63626B5663C0
:104050002168606B04312A4601F046FE0196236810
:104060001A6801925A680192019A84F83860DA68F5
:1040700042F48072DA6023685A6942F001025A61A0
:1040800023685A6942F040025A613046FFE702B0A5
:1040900070BD00BF10B5044603685A6902F0800184
:1040A00090F83920D2B2212A0BD151B15A6922F0AD
:1040B00080025A61006B08B101F050FE2046FFF704
:1040C00029FE23685A6902F0400194F83A20D2B2DE
:1040D000222A0BD151B15A6922F040025A61606B19
:1040E00008B101F03BFE2046FFF71EFE002010BD88
:1040F000704700BF08B50268D16821F04001D16067
:10410000202280F83920FFF7F3FF002008BD00BF10
:1041100008B5436A0268126812F0200F13D100221A
:10412000DA851A68D16821F48071D1601A68516902
:1041300021F0010151611A68516921F0400151617A
:10414000202283F83A20184602F050FC08BD00BF38
:1041500008B590F83A30DBB2222B3ED18368B3F534
:10416000805F0BD102694AB9836A02685268C2F360
:1041700008021A80836A0233836212E0826AB3F50E
:10418000805F02D02BB903691BB903685B681370A9
:1041900004E003685B6803F07F031370836A0133F4
:1041A0008362C38D9BB2013B9BB2C385BBB90368DD
:1041B000DA6822F02002DA600368DA6822F480729A
:1041C000DA6003685A6922F001025A61202380F8FC
:1041D0003A3002F00BFC002008BD022008BD002090
:1041E00008BD00BF08B5406A02F0E0FB08BD00BF93
:1041F00010B5446A23685B6903F0800294F8393093
:10420000DBB2212B05D122B10023E3842046FFF746
:1042100081FD23685B6903F0400294F83A30DBB219
:10422000222B05D122B10023E3852046FFF77CFD38
:10423000E36B43F01003E363204602F0F7FB10BD8D
:1042400010B5044602681368D168526913F00F0074
:1042500009D113F0200F06D011F0200F03D0204613
:10426000FFF776FF10BD002868D012F0010202D1DE
:1042700011F4907F62D013F0010F06D011F4807F0B
:104280001EBFE06B40F00100E06313F0040F04D0A8
:104290001AB1E06B40F00200E06313F0020F04D0AB
:1042A0001AB1E06B40F00400E06313F0080F07D090
:1042B00011F0200F00D11AB1E26B42F00802E26364
:1042C000E26B002A4DD013F0200F05D011F0200F23
:1042D00002D02046FFF73CFF23685B6903F04002F1
:1042E000E36B13F0080F00D112B32046FFF71CFD5B
:1042F00023685A6912F0400F16D05A6922F0400222
:104300005A61626B62B144F26533C0F600035363D5
:10431000606B01F045FD20B3606B436B984710BDA7
:10432000204602F083FB10BD204602F07FFB10BD4B
:10433000204602F07BFB0023E36310BD13F0800FE7
:1043400006D011F0800F03D02046FFF7FBFC10BD14
:1043500013F0400F05D011F0400F02D02046FFF7B8
:10436000C9FE10BD08B5406A0023C385C38402F0AE
:104370005DFB08BD2DE9F04182B00446036813F0EF
:10438000010F00F081804FF48053C4F20203DB6917
:1043900013F0805F18BF00270ED14FF48053C4F292
:1043A0000203DA6942F08052DA61DB6903F080537C
:1043B0000193019B0127FFE74FF4E043C4F20003A0
:1043C0001B6813F4807F18D14FF4E043C4F200035C
:1043D0001A6842F480721A6002F01CF806464FF424
:1043E000E045C4F2000504E002F014F8801B6428E4
:1043F0006AD82B6813F4807FF6D04FF48053C4F250
:1044000002031B6A13F440732BD0626802F44072FB
:104410009A4226D04FF48053C4F20203196A21F461
:1044200040704FF48862C4F24222012515600025D5
:104430001560186211F0010F13D001F0EBFF8046F8
:104440004FF48055C4F2020541F2883605E001F0D0
:10445000E1FFC8EB0000B04238D82B6A13F0020F1E
:10446000F5D04FF48053C4F20203196A21F440716D
:1044700062680A431A623FB14FF48053C4F20203E8
:10448000DA6922F08052DA61236813F0020F09D052
:104490004FF48053C4F20203596821F44041A268EA
:1044A0000A435A60236813F0100F08BF00200FD092
:1044B0004FF48053C4F202035A6822F48002E16888
:1044C0000A435A60002003E0032001E00320FFE7D5
:1044D00002B0BDE8F08100BF82B040F26803C2F2D2
:1044E00000031A6844F6D353C1F26203A3FB02131C
:1044F0005B0A00FB03F0019000BF019B5A1E019272
:10450000002BF9D102B070472DE9F04182B004468A
:10451000002800F05B82036813F0010F7DD04FF498
:104520008053C4F202035B6803F00C03042B10D029
:104530004FF48053C4F202035B6803F00C03082BB2
:1045400013D14FF48053C4F202035B6813F4803F2D
:104550000BD04FF48053C4F202031B6813F4003FE6
:104560005BD06368002B58D132E26368B3F5803FBB
:1045700008D14FF48053C4F202031A6842F4803227
:104580001A6023E063B94FF48053C4F202031A683F
:1045900022F480321A601A6822F480221A6015E030
:1045A000B3F5A02F4FF48053C4F202031A6801BF81
:1045B00042F480221A601A6842F480321FBF22F44B
:1045C00080321A601A6822F480221A60636893B1FC
:1045D00001F020FF06464FF48055C4F2020505E0C5
:1045E00001F018FF801B642800F2F4812B6813F49B
:1045F000003FF5D011E001F00DFF06464FF4805565
:10460000C4F2020505E001F005FF801B642800F2FA
:10461000E3812B6813F4003FF5D1236813F0020FF8
:104620006ED04FF48053C4F202035B6813F00C0F9A
:1046300010D04FF48053C4F202035B6803F00C0304
:10464000082B21D14FF48053C4F202035B6813F4AA
:10465000803F19D14FF48053C4F202031B6813F05A
:10466000020F05D02369012B18BF012040F0CA8139
:104670004FF48053C4F20203196821F0F801626913
:1046800041EAC2021A603BE0236913B30023C4F27B
:10469000422301221A6001F0BDFE06464FF4805508
:1046A000C4F2020505E001F0B5FE801B022800F20D
:1046B00095812B6813F0020FF5D04FF48053C4F2AC
:1046C0000203196821F0F801626941EAC2021A6026
:1046D00016E00023C4F2422300221A6001F09AFE81
:1046E00006464FF48055C4F2020505E001F092FE43
:1046F000801B022800F274812B6813F0020FF5D1A1
:10470000236813F0080F35D0A369DBB14FF4906331
:10471000C4F2422301221A6001F07CFE06464FF4E7
:104720008055C4F2020505E001F074FE801B0228EA
:1047300000F258816B6A13F0020FF5D00120FFF7E9
:10474000CBFE17E04FF49063C4F2422300221A60BC
:1047500001F060FE06464FF48055C4F2020505E004
:1047600001F058FE801B022800F23E816B6A13F0B4
:10477000020FF5D1236813F0040F00F0A0804FF46E
:104780008053C4F20203DB6913F0805F18BF002579
:104790000ED14FF48053C4F20203DA6942F0805222
:1047A000DA61DB6903F080530193019B0125FFE788
:1047B0004FF4E043C4F200031B6813F4807F19D167
:1047C0004FF4E043C4F200031A6842F480721A60A6
:1047D00001F020FE07464FF4E046C4F2000605E073
:1047E00001F018FEC01B642800F20081336813F446
:1047F000807FF5D0E368012B08D14FF48053C4F2D9
:1048000002031A6A42F001021A6222E063B94FF40D
:104810008053C4F202031A6A22F001021A621A6A71
:1048200022F004021A6214E0052B4FF48053C4F204
:1048300002031A6A01BF42F004021A621A6A42F0C5
:1048400001021FBF22F001021A621A6A22F004025A
:104850001A62E368ABB101F0DDFD80464FF480568B
:10486000C4F2020641F2883706E001F0D3FDC8EB3E
:104870000000B84200F2BC80336A13F0020FF4D09B
:1048800014E001F0C7FD80464FF48056C4F20206E2
:1048900041F2883706E001F0BDFDC8EB0000B842E8
:1048A00000F2A880336A13F0020FF4D13DB14FF447
:1048B0008053C4F20203DA6922F08052DA61E369BC
:1048C0000020002B00F09E804FF48052C4F20202C0
:1048D000526802F00C02082A61D0022B47D16023F3
:1048E000C4F2422300221A6001F094FD06464FF400
:1048F0008055C4F2020504E001F08CFD801B022803
:104900007AD82B6813F0007FF6D1236AB3F5803F85
:1049100009D14FF48053C4F20203596821F40031E5
:10492000A2680A435A604FF48053C4F202035968E4
:1049300021F47411206A626A02430A435A606023B8
:10494000C4F2422301221A6001F064FD05464FF4CF
:104950008054C4F2020404E001F05CFD401B022814
:104960004CD8236813F0007FF6D000204AE0602383
:10497000C4F2422300221A6001F04CFD05464FF4B8
:104980008054C4F2020404E001F044FD401B0228FC
:1049900036D8236813F0007FF6D1002032E0012BD7
:1049A00008BF01202ED04FF48053C4F202035B688D
:1049B00003F48031226A914218BF012022D103F40E
:1049C0007013626A981A18BF01201BE0012019E0D9
:1049D000012017E0032015E0032013E0032011E07D
:1049E00003200FE003200DE003200BE0032009E08B
:1049F000032007E0032005E0032003E0032001E09B
:104A00000320FFE702B0BDE8F08100BF30B486B0FC
:104A10004DF6B864C0F6000402AD20686168A26873
:104A2000E3680FC5238AADF804304FF48053C4F215
:104A300002035B6803F00C02082A1CBF4FF490507D
:104A4000C0F27A0022D1C3F3834206A90A4412F8C5
:104A5000102C13F4803F12D04FF48053C4F20203A1
:104A60005B68C3F340430B4413F8141C4FF490539A
:104A7000C0F27A0303FB02F0B0FBF1F006E04FF462
:104A80001060C0F23D0000FB02F0FFE706B030BC52
:104A9000704700BF2DE9F0410D460446002800F0A4
:104AA000D4804FF40053C4F202031B6803F00703E1
:104AB0008B420ED24FF40053C4F202031A6822F064
:104AC00007020A431A601B6803F007038B4240F099
:104AD000BF80236813F0020F22D013F0040F1FBF12
:104AE0004FF48053C4F202035A6842F4E06218BFE4
:104AF0005A60236813F0080F1FBF4FF48053C4F2AD
:104B000002035A6842F4605218BF5A604FF480534F
:104B1000C4F20203596821F0F001A2680A435A6006
:104B2000236813F0010F3ED06368012B08D14FF4C6
:104B30008052C4F20202126812F4003F13D18AE0DC
:104B4000022B08D14FF48052C4F20202126812F014
:104B5000007F08D182E04FF48052C4F20202126852
:104B600012F0020F7DD04FF48052C4F2020251685D
:104B700021F003010B43536001F04CFC80464FF4DD
:104B80008056C4F2020641F2883705E001F042FC8B
:104B9000C8EB0000B84267D8726802F00C02636884
:104BA000B2EB830FF2D14FF40053C4F202031B683F
:104BB00003F00703AB420DD94FF40053C4F20203D4
:104BC0001A6822F007022A431A601B6803F00703E1
:104BD000AB424CD1236813F0040F09D04FF480533B
:104BE000C4F20203596821F4E061E2680A435A60A2
:104BF000236813F0080F0AD04FF48053C4F2020365
:104C00005A6822F46052216942EAC1025A60FFF7F1
:104C1000FDFE4FF48053C4F202035A68C2F303123C
:104C20004DF68473C0F600039B5CD84040F26803E5
:104C3000C2F20003186040F26023C2F20003186859
:104C400001F09EFB0020BDE8F0810120BDE8F0816D
:104C50000120BDE8F0810120BDE8F0810120BDE820
:104C6000F0810120BDE8F0810320BDE8F081012042
:104C7000BDE8F08140F26803C2F200031868704793
:104C800008B5FFF7F7FF4FF48053C4F202035A68E8
:104C9000C2F302224DF69473C0F600039B5CD84029
:104CA00008BD00BF08B5FFF7E5FF4FF48053C4F21D
:104CB00002035A68C2F3C2224DF69473C0F6000391
:104CC0009B5CD84008BD00BF10B401F08004A4B2C2
:104CD0003CB101F00701013101EB810100EBC100A2
:104CE00005E001EB810100EBC10000F5B47012B9E1
:104CF0000273C38004E00122027303811B0C438111
:104D000000205DF8044B704770B50C4602F48043F8
:104D10009BB2002B43D00368B3F85050ADB2097872
:104D200005EBC10503EB4503B3F80454C5F30905CE
:104D3000A369AB422CBFC5EB03030023A361A369A6
:104D400083B9066836F8213023F4804323F07003DA
:104D50001B041B0C83F4005343F4004343F0800313
:104D600026F8213002F0400292B27AB1026821782E
:104D700032F8213023F4E04323F070031B041B0CB2
:104D800043F4004343F0C00322F82130002D48D003
:104D90000068616922892B46FEF7A2FF41E00368A3
:104DA000B3F85050ADB2097805EBC10503EB4503EC
:104DB000B3F80C54C5F30905A369AB422CBFC5EB8E
:104DC00003030023A361A36983B9066836F8213081
:104DD00023F4804323F070031B041B0C83F4005363
:104DE00043F4004343F0800326F8213002F04002F0
:104DF00092B27AB90268217832F8213023F4E04384
:104E000023F070031B041B0C43F4004343F0C00366
:104E100022F821302DB10068616962892B46FEF7C6
:104E20005FFF284670BD00BFF0B587B0044600287C
:104E300078D090F8A93213F0FF0F04D1002380F846
:104E4000A832FCF751FC032384F8A9322068FDF74F
:104E5000EBFF254655F8107B6E460FCD0FC62B682D
:104E60003360231D0ECB3846FDF7CCFF20B1022363
:104E700084F8A932012056E020680021FDF7DEFF0A
:104E800000230127194615E05A1C9500A81804EBC9
:104E9000C0004770A81804F830309E00F01804EBEA
:104EA000C000C386154404EBC505E9708163C16386
:104EB0000164D3B260688342E6D300231A4611E04E
:104EC0009D00E91804EBC10181F8692181F868317E
:104ED00081F86B21C1F87821C1F87C21C1F88021CB
:104EE0000133DBB29842EBD8254655F8107B6E466D
:104EF0000FCD0FC62B683360231D0ECB3846FDF750
:104F00009FFF20B1022384F8A93201200BE0002585
:104F100084F82450012384F8A9322068FEF7D6FAD9
:104F2000284600E0012007B0F0BD00BF38B50446B8
:104F300090F8A832012B10D0012580F8A852006803
:104F4000FDF768FF20462946FCF706FD2068FEF7BE
:104F5000BBFA002084F8A80238BD022038BD00BF8B
:104F600070B505460C46164602F040039BB2002B76
:104F700000F0AA800368B3F8502092B2097802EBDF
:104F8000C10203EB4203B3F80424C2F30902A3698C
:104F900093428CBFC2EB03030023A361A369C3B98F
:104FA000FCF7DAFB06F48046B6B2002E00F033813F
:104FB0002A68217832F8213023F4E04323F070038B
:104FC0001B041B0C43F4404343F0800322F82130C0
:104FD00021E106F48046B6B276B1006830F821309F
:104FE00023F4E04323F070031B041B0C43F4404301
:104FF00043F0800320F8213094F82430012B40F056
:105000000A81636913446361E3691344E361216ABC
:105010002369994202D3C91A21620AE021B9002307
:1050200084F82430134604E0002384F824302362FB
:105030000B466278A2BB2968B1F8502092B21144A5
:10504000227801EB02128BB9B2F8041421F4F84172
:105050000904090CA2F80414B2F804146FEA4141DF
:105060006FEA514189B2A2F8041426E03E2B09D818
:10507000590813F0010F18BF0131890289B2A2F853
:1050800004141AE0590913F01F0F08BF01F1FF3192
:105090006FEAC1616FEA514189B2A2F804140CE0D1
:1050A000012A0AD12A68B2F8501089B20A4421783C
:1050B00002EB011299B2A2F80414286861692289EE
:1050C0009BB2FEF70BFAA6E00368B3F8502092B249
:1050D000097802EBC10203EB4203B3F80C24C2F3DC
:1050E0000902A36993422CBFC2EB03030023A3610F
:1050F000A369C3B9FCF730FB06F48046B6B2002EB4
:1051000040F089802A68217832F8213023F4E04386
:1051100023F070031B041B0C43F4404343F0800353
:1051200022F8213077E006F48046B6B276B90068FE
:1051300030F8213023F4E04323F070031B041B0CF0
:1051400043F4404343F0800320F8213094F82430A6
:10515000012B60D1636913446361E3691344E36124
:10516000216A2369994202D3C91A21620AE021B94E
:10517000002384F82430134604E00023236284F8DB
:1051800024300B46296862789ABBB1F8502092B25D
:105190001144227801EB02118BB9B1F80C2422F4EE
:1051A000F8421204120CA1F80C24B1F80C246FEA96
:1051B00042426FEA524292B2A1F80C2425E03E2B03
:1051C00009D85A0813F0010F18BF0132920292B2A7
:1051D000A1F80C2419E05A0913F01F0F08BF02F1BF
:1051E000FF326FEAC2626FEA524292B2A1F80C2417
:1051F0000BE0012A09D1B1F8502092B21144227873
:1052000001EB02119AB2A1F80C2428686169628945
:105210009BB2FEF763F92A68217832F8213023F433
:10522000E04323F040031B041B0C83F0300343F4E2
:10523000004343F0800322F82130002070BD00BFFE
:105240002DE9F04F83B004464FF0000A40F68F7B03
:1052500000F52C730193A8E1B0F844309BB213F031
:105260000F0540F0CB8003F010039BB28BBB03888B
:1052700023F0F0031B051B0D43F400430380236858
:10528000B3F8502092B294F8281002EBC10203EB5D
:105290004203B3F80434C3F309036364E26B1344B9
:1052A000E36320465146FCF757FA94F8243013F094
:1052B000FF0F00F07A81236C002B40F07681236889
:1052C00094F8242042F08002A3F84C2084F824A013
:1052D0006BE103889BB203F4006292B2F2B1B0F8C2
:1052E00050309BB294F8682103EBC20300EB4303F8
:1052F000B3F80C34C3F30903C4F884310199B4F84A
:105300006E21FEF7EDFC23681A880BEA020242F0D8
:1053100080021A802046FCF709FA46E113F4004F98
:1053200000F0438103880BEA030343F0800303800A
:105330002068B0F850309BB294F8682103EBC203A8
:1053400000EB4303B3F80C34C3F30903C4F884310E
:105350008BB1D4F87C1171B1B4F86E21FEF7C0FCAA
:10536000D4F87C21D4F884311344C4F87C3120462D
:105370005146FCF7E5F92268B2F850309BB213446D
:10538000D4F878218AB9B3F80C2422F4F842120434
:10539000120CA3F80C24B3F80C246FEA42426FEA13
:1053A000524292B2A3F80C2418E03E2A09D85108C0
:1053B00012F0010F18BF01318A0292B2A3F80C2437
:1053C0000CE0510912F01F0F08BF01F1FF316FEA25
:1053D000C1626FEA524292B2A3F80C242268138889
:1053E00023F4804323F070031B041B0C83F440530D
:1053F00043F4004343F080031380D6E030F8256087
:10540000B6B216F4004F00F0898030F825300BEA70
:10541000030343F0800320F8253005EB85094FEAAC
:10542000C90909F5B47904EB09073B7BB3B92068D6
:10543000B0F850309BB214F8092003EBC20300EB24
:105440004303B3F80C84C8F30908B8F1000F50D037
:105450007969FA884346FEF743FC4AE0FB78022B61
:1054600006D1204639463246FFF74EFC804640E0E2
:10547000226814F8091032F8213023F4E04323F0B5
:1054800070031B041B0C43F4004343F0C00322F8D9
:105490002130206814F8093030F8232002F48042CB
:1054A00092B29AB1B0F8502092B202EBC30300EB73
:1054B0004303B3F80484C8F30908B8F1000F18D007
:1054C00079693A894346FEF70BFC12E0B0F85020A8
:1054D00092B202EBC30300EB4303B3F80C84C8F3AE
:1054E0000908B8F1000F04D079697A894346FEF7BC
:1054F000F7FBFB694344FB617B6943447B61BB6908
:1055000013B13B69984505D2204614F80910FCF701
:1055100017F903E020683946FDF7F6FF06F080032F
:105520009BB2002B41D06B1C03EB830004EBC0014A
:10553000226832F8253023F0F0031B051B0D43F4DD
:10554000004322F82530CB78022B03D106F4807378
:105550009BB233BB2368B3F85050ADB214F830207F
:1055600005EBC20003EB4003B3F80434C3F30903B3
:105570008869984286BFC3EB00008861C1F818A013
:10558000886920B920461146FCF7E6F80DE04A6923
:105590001A444A61CA691344CB612068FDF7B4FF1D
:1055A00003E020463246FFF7DBFC2068B0F84430C9
:1055B0001BB2002BFFF650AE002003B0BDE8F08F09
:1055C00010B5044690F8A832012B0BD0012380F8C7
:1055D000A83280F824100068FDF770FF002084F8DE
:1055E000A80210BD022010BD10B584B004460068AA
:1055F000FDF76EFF10F4004F02D02046FFF720FEAB
:105600002068FDF765FF10F4806F0FD02268B2F8B4
:10561000443023F480631B041B0CA2F84430204662
:10562000FCF7ACF820460021FFF7CAFF2068FDF721
:105630004FFF10F4804F08D02268B2F8443023F4B2
:1056400080431B041B0CA2F844302068FDF740FF88
:1056500010F4005F08D02268B2F8443023F40053FD
:105660001B041B0CA2F844302068FDF731FF10F436
:10567000805F1DD02268B2F8403023F004031B0481
:105680001B0CA2F840302268B2F8403023F0080327
:105690001B041B0CA2F840302046FCF793F822684C
:1056A000B2F8443023F480531B041B0CA2F844309E
:1056B0002068FDF70DFF10F4006F0BD158E0226851
:1056C00032F8231004A800EB430222F8101C013327
:1056D000DBB200E00023072BF1D92368B3F84020A8
:1056E00092B242F00102A3F840202268B2F84030A2
:1056F00023F001031B041B0CA2F840302368B3F80D
:10570000442002F4806292B2002AF7D0B3F8442019
:1057100022F480621204120CA3F84420002309E052
:10572000226804A800EB430131F8101C22F8231072
:105730000133DBB2072BF3D92368B3F8402092B2D0
:1057400042F00802A3F840202268B2F8443023F463
:1057500000631B041B0CA2F844302368B3F84020FC
:1057600092B242F00402A3F840202046FCF718F859
:105770002068FDF7ADFE10F4007F0BD02268B2F870
:10578000443023F400731B041B0CA2F84430204661
:10579000FBF7EEFF2068FDF79BFE10F4807F08D03A
:1057A0002268B2F8443023F480731B041B0CA2F867
:1057B000443004B010BD00BF38B5054611F0800F6D
:1057C00001F007041FBF013404EB840400EBC404A0
:1057D000012001BF04EB840405EBC40404F5B47498
:1057E0000020607001F0070121702261E37062788F
:1057F00002B1E181022B04BF0023237195F8A83286
:10580000012B0AD0012385F8A83228682146FDF72C
:105810002BFB002085F8A80238BD022038BD00BF50
:1058200010B5044611F0800F01F007031FBF0133CC
:1058300003EB830300EBC303012211BF5A7003EB98
:10584000830300EBC303002204BF83F8692103F53F
:10585000B47301F00701197090F8A822012A0AD048
:10586000012280F8A82200681946FDF7A3FC002059
:1058700084F8A80210BD022010BD00BF38B501F0A9
:10588000070404EB8405ED0005F5B47541194A6180
:105890008B610023CB614B7044550068FDF734FEEB
:1058A000002038BD01F0070101EB810100EBC100D0
:1058B000D0F88401704700BF38B501F00704651CBB
:1058C00005EB8505ED0041194A618B61012281F8E4
:1058D00024200B620023CB614A7044550068FDF719
:1058E00013FE002038BD00BF38B5044601F007059F
:1058F00043689D4228D811F0800F1FBF691C01EB3F
:10590000810100EBC101012301BF01EB810100EB2B
:10591000C10101F5B47100234B7001238B700D7030
:1059200090F8A832012B11D0012380F8A83200682A
:10593000FDF744FD25B9206804F52C71FDF7CCFD79
:10594000002084F8A80238BD012038BD022038BDEF
:1059500010B5044601F00F0243689A422AD811F0AC
:10596000800F01F007031FBF013303EB830300EB3C
:10597000C303012211BF5A7003EB830300EBC3037F
:10598000002204BF83F8692103F5B47300229A70E2
:1059900001F00701197090F8A822012A0CD0012209
:1059A00080F8A82200681946FDF730FD002084F831
:1059B000A80210BD012010BD022010BD2DE9F00F7E
:1059C0008CB000252B464FF48056C4F20206AC463C
:1059D000C4F2010C4FF40068C4F201084FF4806473
:1059E000C4F201044FF44062C4F2010202924FF487
:1059F0008057C4F2010704974FF4A05AC4F2010A79
:105A0000CDF814A0AB46C1F2210BCDF80CB02A465C
:105A1000C1F2310206922F46C1F232070797AA4619
:105A2000C1F2220ACDF824A0AB46C1F2110BCDF889
:105A300020B0D1E001279F403A40BA4240F0CB80ED
:105A4000D1F80490B9F1120F39D015D8B9F1020F7D
:105A500032D008D8B9F1000F34D0B9F1010F08BF26
:105A6000CD6838D037E0B9F1030F08BF002532D038
:105A7000B9F1110F1DD02EE0DDF80CA0D14521D0D9
:105A80000AD8DDF820B0D9451CD04FF0000AC1F289
:105A9000120AD1451FD115E0DDF818A0D14511D06B
:105AA000DDF81CB0D9450DD0DDF824A0D14512D1C8
:105AB00008E0CD6804350EE0CD6808350BE0CD6810
:105AC0000C3508E08D682DB1012D0CBF07614761D1
:105AD000082500E00425FF2A94BF0746071DFF2A7A
