:020000040800F2
:1000000000500020DD4C0008D94C0008D74C0008F7
:10001000D74C0008D74C0008D74C0008000000005F
:10002000000000000000000000000000D94C0008A3
:10003000D94C000800000000D94C000869230008D2
:10004000D74C0008D74C0008D74C0008D74C000804
:10005000D74C0008D74C0008D74C0008D74C0008F4
:10006000D74C0008D74C0008D74C0008D74C0008E4
:10007000D74C0008D74C0008D74C0008D74C0008D4
:10008000D74C0008D74C0008D74C0008D74C0008C4
:10009000D74C0008D74C0008D74C0008D74C0008B4
:1000A000D74C0008D74C0008D74C0008D74C0008A4
:1000B000D74C0008D74C0008D74C0008D74C000894
:1000C000D74C0008D74C0008D74C0008D74C000884
:1000D000D74C000815090008D74C0008D74C000879
:1000E000D74C0008D74C0008D74C0008D74C000864
:1000F000D74C0008D74C0008D74C0008D74C000854
:10010000D74C0008D74C0008D74C0008D74C000843
:10011000D74C0008D74C0008D74C0008D74C000833
:10012000D74C0008D74C0008D74C0008D74C000823
:10013000D74C0008D74C0008D74C0008D74C000813
:10014000D74C0008D74C0008D74C0008D74C000803
:040150005FF808F15B
:1001580080B584B000AF78600123FB6011E07B6854
:100168005A697B68F968243153F82130104649F6FA
:100178002871C0F600011A4605F044FAFB680133FD
:10018800FB607B68D3F88C20FB689A42E7DC7B68CD
:100198005B690A20194605F04BFA02231846103706
:1001A800BD4680BD80B582B000AF78607B68D3F86B
:1001B80090301B78002B09D07B685B6949F64C703E
:1001C800C0F600000121142205F09EFD0223184606
:1001D8000837BD4680BD00BF80B584B000AF7860E9
:1001E8007B68A433FB600023FB72FB681B883A2BF7
:1001F80018D03A2B02DC002B05D060E03D2B14D040
:10020800442B41D05BE07B685B6949F66C70C0F6B3
:1002180000000121142205F077FDFB683A221A80BC
:1002280000234DE0FB683D221A8040F69813C2F285
:1002380000031B78002B01D0012341E040F69813FE
:10024800C2F2000301221A7040F69C13C2F20003A6
:1002580040F20002C2F200021A6020E07B685A698C
:1002680040F69C13C2F200031B681B681B6810460B
:1002780049F68471C0F600011A4605F0C3F9FB6817
:1002880044221A8000231BE040F69C13C2F20003AC
:100298001B681A1D40F69C13C2F200031A6040F650
:1002A8009C13C2F200031B681B681B68002BD5D186
:1002B80040F69813C2F2000300221A7000BF02230E
:1002C80018461037BD4680BD80B586B000AF78604F
:1002D8007B680122C3F88C207B6803F138027B68B5
:1002E800C3F890207B683833184606F05BFCB8608A
:1002F8000023FB7501233B6169E040F2F003C2F281
:1003080000031A6879683B690B4438331B7801335A
:1003180013441B7803F00803002B09D0FB7D002B46
:1003280006D17A683B691344383300221A704BE0CF
:100338007A683B69134438331B78FA7D9A4208D1AE
:100348000023FB757A683B691344383300221A701E
:100358003AE03B69013B7A68134493F83830002B44
:1003680032D17A683B69134438331B78272B06D07F
:100378007A683B69134438331B78222B0CD17A688E
:100388003B69134438331B78FB757A683B6913441F
:10039800383300221A7017E07B68D3F88C203B6949
:1003A8003833796819447B68243243F822107B6813
:1003B800D3F88C305A1C7B68C3F88C207B68D3F840
:1003C8008C30032B00DD06E03B6901333B613A6961
:1003D800BB689A4291D37B68D3F88C30FB600BE002
:1003E800BB6838337A68D1187B68FA68243243F8D6
:1003F8002210FB680133FB60FB68032BF0D9183728
:10040800BD4680BD80B584B000AF786040F200037F
:10041800C2F20003FB6040F20003C2F20003FB607B
:1004280010E07B68D3F89020FB681B681B681046B7
:10043800194602F027FC0346002B00D107E0FB68B1
:100448000433FB60FB681B681B68002BE9D1FB6861
:100458001A687B68C3F8A0201037BD4680BD00BF6E
:1004680080B582B000AF78607B68383318460021C9
:10047800502206F04FF87B6803F138027B68C3F816
:1004880088207B681A697B685B691046194605F005
:100498000DF97B685B69184605F01AF80837BD4600
:1004A80080BD00BF80B582B000AF7860786800F08A
:1004B800F9F8034618460837BD4680BD80B582B0B6
:1004C80000AF7860396078680021A82206F022F829
:1004D8007A6849F68C73C0F6000313617B683A6842
:1004E8005A617B6803F128027B6818331046194665
:1004F800102201F023FE786800F09AF97B6818460C
:1005080040F2AD41C0F6000101F0EEF97B681846F3
:1005180001F0FAF90837BD4680BD00BF80B584B048
:1005280000AF786040F20003C2F20003DB6F002BDB
:1005380002D04FF0FF3345E00023FB601DE040F29E
:100548000003C2F20003FA6853F822301B68002B3C
:1005580016D040F20003C2F20003FA6853F82230C2
:100568001A687B681B681046194602F08BFB034625
:10057800002B05DCFB680133FB60FB681F2BDED911
:100588001F23BB6011E0BB685A1E40F20003C2F291
:10059800000353F8221040F20003C2F20003BA68C5
:1005A80043F82210BB68013BBB60BA68FB689A42FB
:1005B800E9D840F20003C2F20003FA68796843F808
:1005C8002210002318461037BD4680BD80B582B082
:1005D80000AF78607B682833184601F0C3FD0346F6
:1005E80018460837BD4680BD80B582B000AF786038
:1005F8000B46FB707B6803F12802FB78104619460E
:1006080001F00AFE7B68184601F0A4F90837BD46D8
:1006180080BD00BF80B588B000AFF860B9607A606F
:10062800BB68D633FB61FB68BB610023FB75BB6904
:100638001B88002B02D0D12B23D02EE0FB6900228F
:100648001A801EE0BB6803F12802FB691B887968E1
:100658000B441B781046194601F0DEFD0346002BBB
:1006680006D0FB691B8801339AB2FB691A8008E03F
:10067800BB68184601F048F9BB69D1221A800023EB
:100688000CE0FB691B887A6813441B78002BD9D1CE
:10069800BB68184601F038F900BF02231846203716
:1006A800BD4680BD80B586B000AF78607B680633F4
:1006B8007B610023FB747B691B88E62B16D0EB2B30
:1006C80035D0002B40F095807B68D3F88C30002B18
:1006D80003D17868FFF7C4FE05E07B6803F13802B0
:1006E8007B68C3F888207B69E6221A807868FFF760
:1006F8006DFFF860FB68B3F1FF3F01D1012379E09A
:10070800FB680A2B06D07B68D3F888207B68873380
:100718009A422AD37868FFF7D7FD7868FFF772FE08
:100728007B680022A3F8A4207B69EB221A807B68EF
:10073800D3F8A0305B68786898470346FB74FB7C65
:10074800012B01D8FB7C55E0FB7C032B09D17B688E
:100758005B6949F69070C0F6000001210F2205F090
:10076800D3FA7868FFF77CFE42E0FB68082B24D1B7
:100778007B68D3F888207B6838339A4211D97B6824
:10078800D3F888305A1E7B68C3F888207B685B6979
:1007980049F6A070C0F600000121022205F0B4FA63
:1007A80005E07B685B692020194604F041FF7B68FF
:1007B8005B69184604F08CFE1AE0FB68032B09D12C
:1007C8007B685B690A20194604F032FF7868FFF7F6
:1007D80047FE0DE0FB680A2B0AD07B68D3F8883007
:1007E800591C7A68C2F88810FA68D2B21A707AE787
:1007F80079E7022318461837BD4680BD80B584B016
:1008080000AF78600B46FB707B6803F12802FB7829
:100818001046194601F000FD7868FFF743FF0346CC
:10082800FB73FB7B002BF7D01037BD4680BD00BFA4
:1008380080B582B000AF786040F6A053C2F20003E2
:100848007A681A6040F2023003F082FC40F20E30FF
:1008580003F07EFC252004F0B3FA4FF4407003F057
:1008680077FC4FF40060C4F20100032102224FF428
:10087800007303F0F3FA4FF40060C4F201000021A2
:1008880001224FF4806303F0E9FA4FF46050C4F298
:1008980001004FF4164103F07BFC4FF46050C4F2A2
:1008A8000100082103F07FFC4FF46050C4F20100FE
:1008B800002103F081FC4FF46050C4F201000021D4
:1008C80003F080FC4FF46050C4F20100002103F0F3
:1008D80085FC4FF46050C4F201000C2103F078FC51
:1008E80043F60C03C4F2010343F60C02C4F20102FE
:1008F800126842F020021A604FF46050C4F20100FE
:1009080003F072FC0837BD4680BD00BF80B582B0D9
:1009180000AF43F60C03C4F201031B6803F0200385
:10092800002B3CD04FF46053C4F201031B6803F062
:100938002003002B33D04FF46050C4F2010003F0C1
:100948005CFC0346FB80FB880D2B08D140F280003D
:10095800C2F200000D2101F05FFC0A23FB80FB8836
:10096800DBB240F28000C2F20000194601F054FCEC
:1009780043F60C03C4F2010343F60C02C4F201026D
:10098800126842F080021A6040F6A053C2F20003D7
:100998001A68FB88DBB210461946FFF725FE43F6B6
:1009A8000C03C4F201031B6803F08003002B29D059
:1009B8004FF46053C4F201031B6803F08003002B5B
:1009C80020D040F28000C2F2000001F0CBFB38607A
:1009D8003B68B3F1FF3F0CD143F60C03C4F20103AB
:1009E80043F60C02C4F20102126822F080021A6077
:1009F80008E03B689BB24FF46050C4F2010019460E
:100A080003F0F7FB0837BD4680BD00BF80B586B050
:100A180000AFF860B9607A60FB68012B02D0FB6810
:100A2800022B2FD100237B6126E07B69BA6813442F
:100A38001B780A2B06D140F28000C2F200000D217B
:100A480001F0EAFB7B69BA6813441B7840F2800026
:100A5800C2F20000194601F0DFFB43F60C03C4F2B2
:100A6800010343F60C02C4F20102126842F080024C
:100A78001A607B6901337B617A697B689A42D4DBAF
:100A8800002306E004F062FC034605221A604FF0DA
:100A9800FF3318461837BD4680BD00BF80B582B009
:100AA80000AF786001F072FC02467B681B69104653
:100AB800194601F087FC0346002B16DD7B681B7A7C
:100AC800002B10D04AF2FC00C0F6000005F0D0FD63
:100AD8007B68DB6814331B6818464AF27C01C0F651
:100AE800000101F00DFB012300E000231846083740
:100AF800BD4680BD80B582B000AF78603960786847
:100B080000211C2205F006FD7B683A68DA6001F0D6
:100B18003DFC034603F5C333A0337A6813610837F5
:100B2800BD4680BD80B584B000AF78607B68DA6868
:100B38004FF4A843C4F200039A4206D04FF4B043DE
:100B4800C4F200039A4209D011E040F2152003F0E4
:100B58000DFB40F2152003F009FB08E040F21620D7
:100B680003F004FB40F2162003F000FB00BF24232F
:100B7800FB817B68DB68184603F0B0F97B68DA68AC
:100B8800FB89DBB21046194603F0BCF97B68DA68CA
:100B9800FB89194689000B449BB21046194603F09D
:100BA800BAF97B68DA68FB8901339BB210461946AB
:100BB80003F0B7F97B68DB681846322103F09DF92A
:100BC8007B68DB68184603F084F91037BD4680BDA2
:100BD80080B584B000AF78607B680233FB60002387
:100BE800FB72FB681B88002B02D0832B0BD02EE0F6
:100BF8007B68DB68184603F076F904E0FB6883221B
:100C08001A80002324E07868FFF748FF034683F042
:100C18000103DBB2002B0CD07B68DB6814331A6845
:100C28007B68DB6818331B68134003F00103002B53
:100C3800E4D07B68DB6814331B68002B06D1786826
:100C4800FFF770FF7B6805225A60FFE700BF0223A9
:100C580018461037BD4680BD80B586B000AF7860B5
:100C680013460A467A807B707B6802337B610023D7
:100C7800FB747B691B88002B02D0992B18D067E086
:100C88007B687A781A757B68D9687B88DAB27B7852
:100C9800002B0CBF00230123DBB2084611461A467D
:100CA80003F041F904E07B6999221A80002350E09F
:100CB8007868FFF7F3FE034683F00103DBB2002BED
:100CC8000FD07B68DB6814331B6803F48063002B48
:100CD80007D17B68DB6814331B6803F00203002B21
:100CE800E1D07B68DB6814331B6803F00203002B38
:100CF80005D17868FFF716FF7B6805225A607B6884
:100D08001B7D012B08D17B68DB687A68D268126882
:100D180022F480621A600BE07B681B7D012B07D9E7
:100D28007B68DB687A68D268126842F480621A606D
:100D38007B68DB6818331B68FB607B681B7D012BB5
:100D480005D17B68DB68184603F0D2F8FFE700BFDF
:100D5800022318461837BD4680BD00BF80B584B051
:100D680000AF78600B46FB707B680233FB600023A2
:100D7800FB72FB681B88002B02D0B92B0DD02DE02D
:100D88007B68DA68FB781046194603F0C2F804E07D
:100D9800FB68B9221A80002321E07868FFF77EFEFD
:100DA800034683F00103DBB2002B07D07B68DB68C6
:100DB80014331B6803F00403002BE9D07B68DB685D
:100DC80014331B6803F00403002B06D17868FFF77F
:100DD800A9FE7B6805225A60FFE700BF0223184678
:100DE8001037BD4680BD00BF80B584B000AF7860C5
:100DF80039607B680233FB600023FB72FB681B8849
:100E0800002B07D0C82B06D047E0FB68C8221A8001
:100E1800002343E000BF7868FFF740FE034683F0F5
:100E28000103DBB2002B07D07B68DB6814331B6837
:100E380003F04003002BE8D07B68DB6814331B68A1
:100E480003F04003002B07D17868FFF76BFE7B683F
:100E580005225A60022321E07B681B7D013BDAB240
:100E68007B681A757B681B7D012B0CD17B68DB685E
:100E78007A68D268126822F480621A607B68DB683C
:100E8800184603F035F87B68DB68184603F050F81D
:100E980003461A463B681A7000BF022318461037EB
:100EA800BD4680BD80B584B000AF78607B680233F2
:100EB800FB600023FB72FB681B88002B07D0E12B2B
:100EC80006D02CE0FB68E1221A80002328E000BF4E
:100ED8007868FFF7E3FD034683F00103DBB2002BDC
:100EE80007D07B68DB6814331B6803F08403002B8E
:100EF800E8D07B68DB6814331B6803F08403002B9D
:100F080007D17868FFF70EFE7B6805225A60022336
:100F180006E07B68DB68184602F0EAFF00BF0223A0
:100F280018461037BD4680BD80B584B000AF7860E4
:100F380039607B68FB600023FB72FB681B88FA2B17
:100F480024D0FA2B02DC002B06D087E0FE2B32D00F
:100F5800B3F5817F4AD081E038680021102205F07E
:100F6800D9FA7B6800229A6173E001F00FFA034610
:100F780003F51C5310337A6813617B6800225A60AA
:100F88007B6800225A80FB68FA221A807868FFF78B
:100F98001FFE0346FB72FB7A012B01D8FB7A5EE049
:100FA8007B685B68002B00D04EE07B6800225A808B
:100FB800FB68FE221A807B689B699BB27868194699
:100FC8000022FFF749FE0346FB72FB7A012B01D88A
:100FD800FB7A44E07B685B68002B00D034E07B68D8
:100FE80000225A80FB684FF481721A807868FFF7F4
:100FF80059FF0346FB72FB7A012B01D8FB7A2EE0DE
:101008007B685B68002B00D01EE07B689B6903F15E
:101018000F02002BB8BF13461B113A6832F8132091
:1010280090B27A689169CA17120F114401F00F0142
:101038008A1A012101FA02F292B201460A4392B2D7
:1010480091B23A6822F813107B689B695A1C7B6836
:101058009A617B689B697F2B87DD00BF0223184656
:101068001037BD4680BD00BF80B586B000AFF860C0
:1010780079813A81FB71FB687B610023FB747B6992
:101088001B88B3F58A7F33D0B3F58A7F06DC002B43
:1010980010D040F21112934213D081E0B3F58D7F46
:1010A8005AD040F21D1293426FD040F21712934269
:1010B80038D075E0FB6800225A807B6940F2111233
:1010C8001A80F868FFF784FD0346FB74FB7C012B4C
:1010D80001D8FB7C65E0FB685B68002B01D002232C
:1010E8005FE0FB6800225A807B694FF48A721A809D
:1010F8007B89F86819460022FFF7AEFD0346FB74AA
:10110800FB7C012B01D8FB7C4BE0FB685B68002B68
:1011180001D0022345E0FB6800225A807B6940F237
:1011280017121A803B89DBB2F8681946FFF716FEDA
:101138000346FB74FB7C012B01D8FB7C31E0FB6888
:101148005B68002B01D002232BE0FB6800225A8049
:101158007B694FF48D721A80FB79F8681946FFF79E
:10116800FDFD0346FB74FB7C012B01D8FB7C18E0DA
:10117800FB685B68002B01D0022312E0FB680022A9
:101188005A807B6940F21D121A80F868FFF78AFEC0
:101198000346FB74FB7C012B01D8FB7C01E000BFFC
:1011A800022318461837BD4680BD00BF80B586B0FB
:1011B80000AFF8607B600B467B8113463B81FB6880
:1011C8007B610023FB747B691B8840F22D129342DC
:1011D80050D0B3F5977F09DA40F22712934218D01E
:1011E800B3F5957F2CD0002B0CD09AE040F2331247
:1011F800934270D0B3F59B7F00F08780B3F5987F5A
:1012080052D08EE0FB6800225A807B6940F2271298
:101218001A80F868FFF7DCFC0346FB74FB7C012BA3
:1012280001D8FB7C7EE0FB685B68002B01D00223C1
:1012380078E0FB6800225A807B694FF495721A8027
:101248007B89F86819460022FFF706FD0346FB7400
:10125800FB7C012B01D8FB7C64E0FB685B68002BFE
:1012680001D002235EE0FB6800225A807B6940F2CD
:101278002D121A803B89DBB2F8681946FFF76EFD1C
:101288000346FB74FB7C012B01D8FB7C4AE0FB681E
:101298005B68002B01D0022344E0FB6800225A80DF
:1012A8007B694FF498721A80F868FFF791FC03463F
:1012B800FB74FB7C012B01D8FB7C33E0FB685B688B
:1012C800002B01D002232DE0FB6800225A807B69A5
:1012D80040F233121A807B89F86819460122FFF719
:1012E800BBFC0346FB74FB7C012B01D8FB7C19E09B
:1012F800FB685B68002B01D0022313E0FB68002227
:101308005A807B694FF49B721A80F8687968FFF7F6
:101318006BFD0346FB74FB7C012B01D8FB7C01E0D1
:1013280000BF022318461837BD4680BD80B586B079
:1013380000AFF8607A600A467A817B72FB687B614D
:101348000023FB747B691B8840F2471293422FD01D
:10135800B3F5A47F05DA002B0CD0B3F5A27F10D02B
:1013680076E040F24B12934240D040F24F12934243
:1013780063D06DE0FB6800225A807B694FF4A2724B
:101388001A80F868FFF724FC0346FB74FB7C012BEA
:1013980001D8FB7C5DE0FB685B68002B01D0022371
:1013A80057E0FB6800225A807B6940F247121A8096
:1013B8007B89F86819460022FFF74EFC0346FB7448
:1013C800FB7C012B01D8FB7C43E0FB685B68002BAE
:1013D80001D002233DE0FB6800229A6121E0FB680E
:1013E80000225A807B6940F24B121A80FB689B6985
:1013F8007A6813441B78F8681946FFF7AFFC034670
:10140800FB74FB7C012B01D8FB7C22E0FB685B684A
:10141800002B01D002231CE0FB689B695A1CFB6867
:101428009A61FB689A697B7A9A42D8DBFB6800224A
:101438005A807B6940F24F121A80F868FFF732FD34
:101448000346FB74FB7C012B01D8FB7C01E000BF49
:10145800022318461837BD4680BD00BF80B485B04A
:1014680000AF78607B685B0803F07733FB607A68CD
:10147800FB68D31A7B60FB685B0803F07733FB607B
:101488007A68FB68D31A7B60FB685B0803F07733E4
:10149800FB607A68FB68D31A7B607B681A097B68F3
:1014A800134403F00F337B607A6813461B0213441E
:1014B8001A0413447B607B681B0E18461437BD461C
:1014C8005DF8047B704700BF80B582B000AF7860DC
:1014D8007B685B087A6813437B607B689B087A6843
:1014E80013437B607B681B097A6813437B607B68C6
:1014F8001B0A7A6813437B607B681B0C7A6813436A
:101508007B607B68DB431846FFF7A8FF0346184655
:101518000837BD4680BD00BF80B582B000AF786097
:101528007B68DA437B68013B13401846FFF796FF58
:10153800034618460837BD4680BD00BF80B582B057
:1015480000AF78607868FFF7BFFF0346C3F11F0359
:1015580018460837BD4680BD80B483B000AF7860B8
:101568007B681B68002B14BF00230123DBB21846DD
:101578000C37BD465DF8047B704700BF80B483B06C
:1015880000AF78607B681B6818460C37BD465DF86D
:10159800047B704780B483B000AF78607B680C33FD
:1015A800BFF35F8F1A68BFF35F8F7B681B7C0121D5
:1015B80001FA03F31340002B14BF00230123DBB20D
:1015C80018460C37BD465DF8047B704780B483B07D
:1015D80000AF0346FB71FB79413BFB71FB790122AC
:1015E80002FA03F31A46094BBFF35F8F53E8000F63
:1015F80040EA020043E800010029F7D1BFF35F8FFA
:101608000C37BD465DF8047B704700BFC000002062
:1016180080B582B000AF08E07B681B68184600F010
:1016280073F90748796800F0D9FC054800F090FC88
:1016380078607B68002BEFD10837BD4680BD00BFBE
:10164800A400002080B584B000AF3B461548194679
:1016580000F014FBF860FB680C3BBB600DE03B46F8
:10166800184600F053FBF860BB680C330E48194667
:1016780000F074FAFB680C3BBB60FB68002B0DD0D4
:10168800BB689A6840F29003C2F200039B68104658
:10169800194600F097FE0346002BE0DD1037BD46E3
:1016A80080BD00BFB80000209C00002080B582B03B
:1016B80000AF074800F0C6FA78607B68002B01D1BC
:1016C800002301E07B680C3B18460837BD4680BD07
:1016D8009C00002080B500AF40F29003C2F20003E6
:1016E8001A6840F29003C2F200031B79938040F21B
:1016F8009003C2F200031B79032B1FD801A252F8F2
:1017080023F000BF1D17000845170008351700080B
:101718002F17000840F29003C2F200031B68184616
:1017280000F0F2F80BE04620FFF750FF40F290037C
:10173800C2F200031B680022DA8000E000BF80BD0F
:1017480080B582B000AF1948FFF724FF034683F045
:101758000103DBB2002B08D11548FFF7FDFE034655
:1017680083F00103DBB2002B05D040F29003C2F2F4
:1017780000039B6816E00F48FFF7EEFE0346002BB8
:1017880008D040F29003C2F200039B6803F10043C3
:10179800013B07E00748FFF7F1FE03460C3B7B607F
:1017A8007B689B6818460837BD4680BDA4000020AA
:1017B8009C000020B800002080B485B000AF78609D
:1017C80039607B680C3BFB603B680C3BBB60FB688B
:1017D8009A68BB689B68D31A18461437BD465DF8EB
:1017E800047B704780B400AF40F29003C2F200035C
:1017F8001B681846BD465DF8047B704780B582B00B
:1018080000AF786040F29003C2F200037A689A60F1
:1018180040F29003C2F200031B79002B1AD12F4823
:10182800FFF79AFE034683F00103DBB2002B11D1C8
:101838002B48FFF791FE034683F00103DBB2002B30
:1018480008D12848FFF7A6FE034683F00103DBB260
:10185800002B14D0FFF7DCFE40F29003C2F2000325
:101868001B68002B01D0FFF735FFFFF7EBFEFFF7F2
:101878001DFF024640F29003C2F200031A6040F2D4
:101888009003C2F200031B68002B20D040F29003A3
:10189800C2F200031B681A6840F29003C2F2000308
:1018A8001B68184690470346DAB240F29003C2F22A
:1018B80000031A7140F29003C2F200031B79002B57
:1018C80005D140F29003C2F200039B6802E0FFF7E3
:1018D80037FF034618460837BD4680BD9C000020E8
:1018E800B8000020A400002080B582B000AF786066
:1018F800396078680021102204F00CFE7B683A6891
:101908001A600837BD4680BD80B582B000AF7860E8
:10191800FFF77EFE7B680C330C481946002200F066
:101928001BFA034683F00103DBB2002B0BD07B6864
:101938000C330748194600F033FA7B680C33034828
:10194800194600F00BF90837BD4680BD9C00002001
:10195800B800002080B584B000AF78600B4800F074
:1019680065FAF860FB68002B04D14120FFF72EFED2
:10197800002307E0FB687A681A600448F96800F0F9
:10198800BFFA012318461037BD4680BDA4000020C9
:1019980090B585B000AF78600023FB73FFF738FE81
:1019A800FC7B7B680C330F48194600F0F9F90346B5
:1019B8002343002B0CBF00230123FB73FC7B7B68B4
:1019C8000C330948194600F0EBF903462343002B72
:1019D8000CBF00230123FB73FB7B18461437BD465D
:1019E80090BD00BF9C000020B800002080B582B0E8
:1019F80000AF786040F29003C2F200039B687868F9
:101A0800194600F0DFFC0346002B01DC012326E029
:101A180040F29003C2F200031B687A689A6040F2B1
:101A28009003C2F200031B680C330F4819460022CA
:101A380000F092F9034683F00103DBB2002B0DD0CE
:101A480040F29003C2F200031B680C3307481946A2
:101A580041F2C172C0F6000200F09AF8002318465D
:101A68000837BD4680BD00BF9C000020B80000209C
:101A780080B584B000AFF860B9607A603B60FB68FD
:101A88001846B968FFF730FFFB68103318467968C5
:101A98003A68BB6900F0A0F91037BD4680BD00BFA9
:101AA80080B584B000AF78607B681033184600F0CA
:101AB800BDF9F860FB68002B02D14520FFF786FDD1
:101AC800FB6818461037BD4680BD00BF80B582B0A0
:101AD80000AF786039607B6810331846396800F0C9
:101AE8000FFA7B681846FFF735FF03461846083794
:101AF800BD4680BD80B582B000AF78607B6810338A
:101B08001846FFF747FD034618460837BD4680BD0F
:101B180080B582B000AF78607B681033184600F05B
:101B280017FA034618460837BD4680BD80B582B00F
:101B380000AF786039607B6810331846396800F068
:101B48004DFA0837BD4680BD80B500AF00F01EFCD9
:101B580003461846FFF752FEF8E700BF80B483B08B
:101B680000AF786039607B681B68002B04D07B6805
:101B78005B683A681A6002E07B683A681A607B68BA
:101B88003A685A600C37BD465DF8047B704700BF61
:101B980080B588B000AFF860B9607A60FB681B68F0
:101BA800002B06D1FB68BA681A60FB68BA685A60ED
:101BB8002BE0FB685A687B68B8681146984703466B
:101BC800002B07DBFB685B68BA681A60FB68BA68B9
:101BD8005A601AE007F11403F868194600F04EF845
:101BE800F86105E007F11403184600F05BF8F861A6
:101BF8007B68B868F96998470346002BF2DA07F161
:101C080014031846B96800F065F82037BD4680BD52
:101C180080B483B000AF786039607B681B68002BA4
:101C280004D07B681A683B681A6002E07B683A68EF
:101C38005A607B683A681A600C37BD465DF8047BC9
:101C4800704700BF80B485B000AF78607B681B68C0
:101C5800002B01D100230AE07B681B68FB60FB684E
:101C68001A687B681A60FB6800221A60FB681846CD
:101C78001437BD465DF8047B704700BF80B483B05D
:101C880000AF786039607A683B681A603B687A68A8
:101C98005A607B681B6818460C37BD465DF8047BA4
:101CA800704700BF80B485B000AF78607B681B6860
:101CB8001B68FB60FB68002B05D0FA687B681A601C
:101CC800FB681B6800E0002318461437BD465DF822
:101CD800047B704780B485B000AF786039607B685A
:101CE8001B681B68FB607B681B683A681A603B6866
:101CF800FA681A60FB68002B03D17B685B683A6856
:101D08005A601437BD465DF8047B704780B485B0CF
:101D180000AF78607B681B681B68FB607B681B688A
:101D2800BB607B685B685A68FB689A4203D17B6832
:101D38005B68BA685A607B681B68FA6812681A6040
:101D4800FB6800221A607B681B681B6818461437FA
:101D5800BD465DF8047B704780B588B000AFF86079
:101D6800B9607A607B68002B02D107F114037B60AD
:101D7800F8687968FFF782FFF86109E0FA69BB68DB
:101D88009A4201D1012307E07868FFF78BFFF861D9
:101D9800FB69002BF2D1002318462037BD4680BDD1
:101DA80080B584B000AF7860396007F108037868BF
:101DB80039681A46FFF7D0FF0346002B06D007F113
:101DC80008031846FFF7A2FF012300E00023184686
:101DD8001037BD4680BD00BF80B584B000AFF86045
:101DE800B9607A603B60F8680021142204F092FB25
:101DF800FB68BA681A603B689AB2FB689A807A688E
:101E08003B68B2FBF3F3DAB2FB689A71FB680733FD
:101E180079683A68B1FBF2F2D2B2BFF35F8F1A70F9
:101E2800BFF35F8F1037BD4680BD00BF90B484B04C
:101E380000AF78607B680733BFF35F8FD3E84F2F1D
:101E480002F1FF30C3E8410F0029F7D1BFF35F8FDC
:101E5800D3B2FB60FB68002B10DC7B680733BFF351
:101E68005F8FD3E84F2F02F10102C3E84C2FBCF17A
:101E7800000FF6D1BFF35F8F00233CE07B68083387
:101E8800BFF35F8F1B78BFF35F8FDBB2BB72BB7A88
:101E98001A467B689B79013B9A4203DABB7A013385
:101EA800DBB200E00023FB727B6803F1080107F155
:101EB8000A031A78FC7AD0B2BFF35F8FD1E84F2FAC
:101EC800824203D1C1E84C4FBCF1000FBFF35F8FD2
:101ED800114614BF002201221970134683F0010332
:101EE800DBB2002BD3D17B681A68BB7A7968898802
:101EF80001FB03F3134418461037BD4690BC7047E6
:101F080080B485B000AF786039603A687B681B6838
:101F1800D31AFB607B689B88FA68B2FBF3F3BB605B
:101F28007B680C33BA68012101FA02F2BFF35F8FB4
:101F380053E8000F40EA020043E800010029F7D106
:101F4800BFF35F8F1437BD465DF8047B704700BF51
:101F580080B485B000AF78607B681B7CFB607B68D1
:101F68000C33FA68012101FA02F2D2431146BFF399
:101F78005F8F53E8002F02EA010043E8000CBCF130
:101F8800000FF6D1BFF35F8FBA60FB68012202FA37
:101F980003F31A46BB681340002B01D1002316E057
:101FA8007B689B79013B1A46FB689A4204D9FB6817
:101FB800DBB20133DBB200E000237A6813747B687C
:101FC8001A687B689B88F96801FB03F31344184679
:101FD8001437BD465DF8047B704700BF80B483B0FA
:101FE80000AF786039607B680733BFF35F8FD3E851
:101FF8004F1F01F10101C3E8421F002AF7D1BFF3C7
:102008005F8F0C37BD465DF8047B704780B586B09E
:1020180000AFF860B9607A603B603B681B68591C88
:102028003A6811607B617B69002B0AD17B681B6869
:10203800F8684AF21811C0F600011A4603F0E2FAED
:102048001EE07B69DB007A6813445B681846FFF77B
:1020580063FA38617B69DB007A6813441A687B6924
:10206800DB0079680B445968BB6819403B6921FA61
:1020780003F3F8684AF22811C0F6000103F0C2FA27
:102088003B681B68DB007A6813441B68002B02D18D
:102098003B6800221A603B681B6818461837BD4623
:1020A80080BD00BF80B586B000AFF860B9607A60C7
:1020B80000237B6100BF07F11403F868B9687A68E8
:1020C800FFF7A4FF0346002BF5D11837BD4680BDA6
:1020D80080B584B000AFF860B9607A6040F22053F0
:1020E800C2F200031B689B681846F968BA687B68E7
:1020F800FFF78CFF034618461037BD4680BD00BF6A
:1021080080B582B000AF7860396040F22053C2F2E7
:1021180000031B689B68184679683A68FFF7C2FF96
:102128000837BD4680BD00BF80B483B000AF03460A
:10213800FB710C37BD465DF8047B704780B584B0F1
:1021480000AFF860B9607A60F8680021102204F0E6
:10215800E1F9FB68BA681A60FB687A685A60103758
:10216800BD4680BD80B584B000AF78607B68083319
:10217800BFF35F8F1B68FB60BFF35F8F7B680C3317
:10218800BFF35F8F1A68BFF35F8FFB689A4202D173
:102198004FF0FF331EE07B681A68FB6813441B7816
:1021A800BB600520FFF7C0FFFB680133FB607B685D
:1021B8005B68FA689A4204D37B685B68FA68D31A4A
:1021C800FB607B680833BFF35F8FFA681A60BFF360
:1021D8005F8FBB6818461037BD4680BD80B483B09A
:1021E80000AF78607B680833BFF35F8F1A68BFF36E
:1021F8005F8F7B680C33BFF35F8F1B68BFF35F8F04
:102208009A4214BF00230123DBB218460C37BD469F
:102218005DF8047B704700BF80B584B000AF78607C
:102228000B46FB707B680C33BFF35F8F1B68FB604A
:10223800BFF35F8FFB68BB60FB680133FB607B68A3
:102248005B68FA689A4204D37B685B68FA68D31AB9
:10225800FB607B680833BFF35F8F1A68BFF35F8F3B
:10226800FB689A4201D1002311E07B681A68BB68B9
:102278001344FA781A700520FFF756FF7B680C3371
:10228800BFF35F8FFA681A60BFF35F8F01231846A8
:102298001037BD4680BD00BF80B582B000AF786002
:1022A8000B46FB7000BFFB7878681946FFF7B4FF50
:1022B800034683F00103DBB2002BF4D10837BD4697
:1022C80080BD00BF80B584B000AF786022E07B6835
:1022D8005A1C7A601B784FF46050C4F2010019460A
:1022E80001F087FF0023FB600DE040F6D053C2F2F7
:1022F80000031B685A1C40F6D053C2F200031A6050
:10230800FB680133FB60FA6848F29F63C0F201037F
:102318009A42EADD7B68002B03D07B681B78002B90
:10232800D5D118461037BD4680BD00BF80B500AF77
:10233800002002F021FD42F2273002F015FD02F0E4
:1023480027FD4AF23810C0F60000FFF7BBFF02F085
:1023580027FD4AF24810C0F60000FFF7B3FF80BD22
:1023680080B400AF40F6C853C2F20003D3E900239B
:1023780012F57A7043F1000140F6C853C2F2000327
:10238800C3E90001BD465DF8047B704780B400AF27
:1023980040F6C853C2F20003D3E900231346184697
:1023A800BD465DF8047B704780B400AF40F6C85363
:1023B800C2F20003D3E9002310461946BD465DF872
:1023C800047B704780B483B000AF786039607A6866
:1023D8003B68D31A18460C37BD465DF8047B704736
:1023E80090B587B000AFF860B9607A60FB681C6888
:1023F800FFF7CCFF0346E31A7B617B69002B0ADBFE
:102408007A6844F24023C0F20F0303FB02F31A4632
:102418007B699A4211DAFFF7B9FF0246796844F2FC
:102428004023C0F20F0303FB01F31A44FB681A6050
:10243800FB6801225A6001230AE0FB685B68591CAB
:10244800FA685160BA6893422CBF00230123DBB2BB
:1024580018461C37BD4690BD80B500AF02F034FF6A
:1024680080B584B000AF7860786803F0B5FC0346A7
:10247800FB60FB68002B01D1FFF7EEFFFB681846F5
:102488001037BD4680BD00BF80B584B000AF78600E
:102498000120796802F020FF0346FB60FB68002BEF
:1024A80001D1FFF7D9FFFB6818461037BD4680BD3C
:1024B80080B58EB000AFF860B9607A60FB685B7871
:1024C80087F83330FB689B889BB287F83230FB680B
:1024D8005B889BB2DBB203F0010387F83130FB68FD
:1024E800DB889BB287F8303007F1140318464FF4A5
:1024F800A841C4F20001FEF7FDFAFB685B889BB2B5
:1025080003F48043002B2AD10023FB8200BF07F18C
:1025180014031846FEF75CFB0346012BF7D9BB6989
:10252800002B00D07FE00023FB8200BF97F83230F9
:102538009AB297F83130002B02D097F8303000E08B
:10254800002307F11401084611461A46FEF784FBDA
:102558000346012BEAD9BB69002B00D063E00023B6
:102568007B632FE00023FB8200BF97F83130002BFC
:102578000FD07B6BBA68134407F114021046194652
:10258800FEF732FC0346012BCCBF00230123DBB24C
:102598000FE07B6BBA6813441B7807F114021046EE
:1025A8001946FEF7DBFB0346012BCCBF00230123B2
:1025B800DBB2002BD9D1BB69002B00D033E07B6B99
:1025C80001337B6397F830207B6B9A42CADC97F81B
:1025D800333003F00203002B12D097F83130002B70
:1025E8000ED10023FB8200BF07F114031846FEF743
:1025F80059FC0346012BF7D9BB69002B00D012E028
:1026080040F6F453C2F2000301221A7097F83130F1
:10261800002B03D097F830309BB200E000237A6893
:10262800138001230EE007F114031846FEF77AFA27
:1026380040F6F453C2F2000302221A707B680022AB
:102648001A80012318463837BD4680BD80B584B04E
:1026580000AFF860B9607A603B60BB685B78072BB5
:1026680074D801A252F823F091260008BB2600086E
:10267800E72600082B270008FD260008FD2600088D
:10268800FD260008FD260008BB68023340F6A4605A
:10269800C2F200001946022200F07EFA7A6840F67B
:1026A800A463C2F2000313603B6802221A8001236C
:1026B8004EE040F6A460C2F200004AF2DC11C0F617
:1026C8000001042200F068FA7A6840F6A463C2F2B6
:1026D800000313603B6804221A80012338E07A68FB
:1026E80040F6A463C2F2000313603B6800221A801C
:1026F80001232DE0BB685B889BB203F00103002B2C
:1027080005D07A6840F6A463C2F2000313607B68C0
:102718001B68B86819463A68FFF7CAFE0346DBB279
:1027280016E040F6F453C2F200031A7840F6A463A8
:10273800C2F200031A707A6840F6A463C2F200037A
:1027480013603B6801221A80012301E000BF0223C5
:1027580018461037BD4680BD80B584B002AF78609A
:102768000B467B8000230093786881210322042391
:1027780001F080FD786841217F2242F25563C0F65E
:10278800000301F052FE0837BD4680BD80B588B011
:1027980004AF78607B680633FB600023FB72FB683C
:1027A8001B8840F25912934229D0B3F5B17F64D007
:1027B800002B71D140F2023001F0CAFC4FF40060E6
:1027C800C4F20100022100224FF4C05301F046FB7D
:1027D8004FF40060C4F201004FF4C05101F076FBE1
:1027E800FFF7D4FD034603F51C52103240F6E463AC
:1027F800C2F200031A60FB6840F259121A8040F6D0
:10280800E463C2F200031B681846FFF7EFF80346BB
:1028180083F00103DBB2002B01D001233DE0032349
:10282800009341F23C03C2F2000301938023029318
:102838004AF20030C0F600004AF25811C0F6000112
:102848004AF2A412C0F6000240F2C403C2F2000326
:1028580001F0D8FC024640F6F853C2F200031A60B1
:1028680040F6F853C2F200031B68184642F2617141
:10287800C0F6000102F086F900E000BF40F6F85308
:10288800C2F200031B68184601F0EEFCFB684FF427
:10289800B1721A80002300E0022318461037BD46A3
:1028A80080BD00BF80B588B000AF40F2033001F0B2
:1028B8004FFC40F2953001F04BFC4FF4407001F0B2
:1028C80047FC3B1D18464FF4A841C4F20001FEF72F
:1028D80011F93B1D1846FEF725F94FF44060C4F284
:1028E800010003210322C02301F0B8FA2037BD46B6
:1028F80080BD00BFB0B586B000AF4FF49043C2F2C0
:1029080000037B614AF2E013C0F600033C461D4613
:102918000FCD0FC42B6823707B691D463C460FCC36
:1029280028606960AA60EB6023782B7402F040FA93
:1029380080B582B000AF78607B685B6918464AF260
:10294800F411C0F6000140F6D852C2F2000202F0BB
:1029580059FE022318460837BD4680BD80B582B0AF
:1029680000AF7860FFF7C6FF022318460837BD4658
:1029780080BD00BF80B400AFBD465DF8047B7047E2
:1029880080B400AFBD465DF8047B704780B489B061
:1029980000AF41F21803C4F2020341F21802C4F274
:1029A8000202126842F010021A6041F20403C4F2F3
:1029B80001033B613B691B6823F0F87343F098728D
:1029C8003B691A6041F21003C4F20103FB6041F253
:1029D8001403C4F20103BB600023FB612DE0002354
:1029E8007B600023BB6122E000237B6118E0FA6969
:1029F800D317DB0F1A4402F00102D31A012B03D1BB
:102A0800FB684FF400521A60FB6903F00103002BC6
:102A180003D1BB684FF400521A607B6901337B61B4
:102A28007B69B3F5E15FE2DBBB690133BB61BB697D
:102A3800132BD9DDFB690133FB61FB69092BCEDD63
:102A480018462437BD465DF8047B704780B582B0D0
:102A580000AF01F029FB40F2023001F079FB40F2AF
:102A6800033001F075FB40F6D850C2F200001C217B
:102A780001F0ACF940F22053C2F200031B689B68D6
:102A880040F6FC50C2F200001946FDF717FD4AF265
:102A98001420C0F60000FFF715FC45F20003C2F24F
:102AA8000003184603F070F903461846FFF70AFCBE
:102AB8004AF22420C0F60000FFF704FC45F20003A8
:102AC800C2F200031B68184603F05EF90346184675
:102AD800FFF7F8FB4AF22420C0F60000FFF7F2FBEC
:102AE8004AF22820C0F60000FFF7ECFB00237B60C9
:102AF8000CE07B68DA004AF20423C0F600031344B2
:102B08001846FDF70BFD7B6801337B607B68012B62
:102B1800EFD9FFF7C7FE4AF23420C0F60000FFF7EE
:102B2800D1FBFFF703FC4AF24020C0F60000FFF794
:102B3800C9FB4AF24C20C0F6000003F099FD4AF2A6
:102B48005820C0F60000FFF7BDFB00237B6003E0C0
:102B580000BF7B6801337B607B68B3F5000FF7D358
:102B680040F2D400C2F20000FEF7CEFE4AF2642022
:102B7800C0F60000FFF7A6FBFFF708FFFEF7E4FF2B
:102B88004AF27020C0F60000FFF79CFB00231846AD
:102B98000837BD4680BD00BF844641EA000313F0F4
:102BA800030349D1403A23D30B6803604B68436061
:102BB8008B688360CB68C3600B6903614B694361B1
:102BC8008B698361CB69C3610B6A03624B6A436299
:102BD8008B6A8362CB6AC3620B6B03634B6B436381
:102BE8008B6B8363CB6BC36340304031403ADBD29D
:102BF80030320BD30B6803604B6843608B6883608B
:102C0800CB68C36010301031103AF3D20C3205D3C0
:102C180051F8043B40F8043B043AF9D2043208D096
:102C2800D2071CBF11F8013B00F8013B01D30B8808
:102C380003806046704700BF082A13D38B07B1D0C2
:102C480010F00303AED0C3F10403D21ADB071CBF94
:102C580011F8013B00F8013BA4D331F8023B20F8FE
:102C6800023B9FE7043AD9D3013A11F8013B00F837
:102C7800013BF9D20B7803704B7843708B788370E3
:102C88006046704740EA010C1CF0070F27D1BDF1E0
:102C9800100DCDE90245CDE900676FF000064FF051
:102CA800000700BFF0E80223F1E80245A242A2F1C2
:102CB800013C2CEA020C0CF0803C08BFBCF1000F70
:102CC80040F0E580AB42A3F1013C2CEA030C0CF088
:102CD800803C08BFBCF1000F40F0D680E2E710F05E
:102CE800030C21D020F0030050F8042B5FEACC7CC1
:102CF80008D00FD211F801CB5FFA92F3B3EB0C0CAA
:102D080010D17BB111F801CB5FFAA2F3B3EB0C0C35
:102D180008D13BB111F801CB5FFAB2F3B3EB0C0C5D
:102D280000D10BB960467047BDF1100DCDE90245E1
:102D3800CDE900676FF000064FF0000711F0030CB3
:102D480033D110F0040F0FD050F8042B51F8044B76
:102D5800A242A2F1013C2CEA020C0CF0803C08BF14
:102D6800BCF1000F40F0938011F0040F99D051F896
:102D7800045B00BFF0E80223AA42A2F1013C2CEA5E
:102D8800020C0CF0803C08BFBCF1000F79D1F1E8CF
:102D98000245A342A3F1013C2CEA030C0CF0803C51
:102DA80008BFBCF1000F69D1E4E721F00301BCF1D1
:102DB800020F20D03FDA51F8045B00BF50F8043B03
:102DC8004FEA1525A3F1013C2CEA030C0CF0803CDA
:102DD800B7EB0C2F03EA162208BFAA4251D151F8CB
:102DE800045BBCF1000F82EA03034FEA056208BFE7
:102DF800934240D1E2E751F8045B00BF50F8043B2E
:102E08004FEA1545A3F1013C2CEA030C0CF0803C79
:102E1800B7EB0C4F03EA164208BFAA4231D151F86A
:102E2800045BBCF1000F82EA03034FEA054208BFC6
:102E3800934220D1E2E751F8045B00BF50F8043B0D
:102E48004FEA1565A3F1013C2CEA030C0CF0803C19
:102E5800B7EB0C6F03EA166208BFAA4211D151F80A
:102E6800045BBCF1000F82EA03034FEA052208BFA6
:102E7800934200D1E2E719BA12BA0AE019BA22BAA3
:102E880007E011BA2ABA04E019BA2ABA01E011BA5D
:102E980022BA9CFA8CF0DDE90067DDE902451DF1F4
:102EA800100D38B1B0FA80F0C0F1180021FA00F125
:102EB80022FA00F20120914298BF8041704700BF7A
:102EC80081F0004102E000BF83F0004330B54FEAD3
:102ED80041044FEA430594EA050F08BF90EA020F40
:102EE8001FBF54EA000C55EA020C7FEA645C7FEAD3
:102EF800655C00F0E2804FEA5454D4EB5555B8BFF6
:102F08006D420CDD2C4480EA020281EA030382EA66
:102F1800000083EA010180EA020281EA0303362DF8
:102F280088BF30BD11F0004F4FEA01314FF4801CCB
:102F38004CEA113102D0404261EB410113F0004FDD
:102F48004FEA03334CEA133302D0524263EB430394
:102F580094EA050F00F0A780A4F10104D5F1200E32
:102F68000DDB02FA0EFC22FA05F2801841F100018D
:102F780003FA0EF2801843FA05F359410EE0A5F161
:102F880020050EF1200E012A03FA0EFC28BF4CF092
:102F9800020C43FA05F3C01851EBE37101F0004548
:102FA80007D54FF0000EDCF1000C7EEB00006EEB55
:102FB8000101B1F5801F1BD3B1F5001F0CD34908DF
:102FC8005FEA30004FEA3C0C04F101044FEA445236
:102FD80012F5800F80F09A80BCF1004F08BF5FEABD
:102FE800500C50F1000041EB045141EA050130BD9D
:102FF8005FEA4C0C404141EB010111F4801FA4F140
:103008000104E9D191F0000F04BF01460020B1FA94
:1030180081F308BF2033A3F10B03B3F120020CDACC
:103028000C3208DD02F1140CC2F10C0201FA0CF0AA
:1030380021FA02F10CE002F11402D8BFC2F1200C0F
:1030480001FA02F120FA0CFCDCBF41EA0C019040C5
:10305800E41AA2BF01EB0451294330BD6FEA04040E
:103068001F3C1CDA0C340EDC04F11404C4F12002F9
:1030780020FA04F001FA02F340EA030021FA04F30B
:1030880045EA030130BDC4F10C04C4F1200220FA62
:1030980002F001FA04F340EA0300294630BD21FAA0
:1030A80004F0294630BD94F0000F83F4801306BF66
:1030B80081F480110134013D4EE77FEA645C18BF5A
:1030C8007FEA655C29D094EA050F08BF90EA020FF1
:1030D80005D054EA000C04BF1946104630BD91EAE9
:1030E800030F1EBF0021002030BD5FEA545C05D1EC
:1030F8004000494128BF41F0004130BD14F580042B
:103108003CBF01F5801130BD01F0004545F0FE419E
:1031180041F470014FF0000030BD7FEA645C1ABFD3
:10312800194610467FEA655C1CBF0B46024650EA0A
:10313800013406BF52EA033591EA030F41F4002136
:1031480030BD00BF90F0000F04BF0021704730B5BC
:103158004FF4806404F132044FF000054FF0000191
:1031680050E700BF90F0000F04BF0021704730B552
:103178004FF4806404F1320410F0004548BF404227
:103188004FF000013EE700BF42004FEAE2014FEA7C
:1031980031014FEA02701FBF12F07F4393F07F4F57
:1031A80081F06051704792F0000F14BF93F07F4F89
:1031B800704730B54FF4607401F0004521F00041CC
:1031C80020E700BF50EA010208BF704730B54FF052
:1031D80000050AE050EA010208BF704730B511F057
:1031E800004502D5404261EB41014FF4806404F18F
:1031F80032045FEA915C3FF4DCAE4FF003025FEA11
:10320800DC0C18BF03325FEADC0C18BF033202EB98
:10321800DC02C2F1200300FA03FC20FA02F001FAF2
:1032280003FE40EA0E0021FA02F11444C1E600BF91
:1032380070B54FF0FF0C4CF4E06C1CEA11541DBF44
:103248001CEA135594EA0C0F95EA0C0F00F0DEF80F
:103258002C4481EA030621EA4C5123EA4C5350EAF4
:10326800013518BF52EA033541F4801143F4801345
:1032780038D0A0FB02CE4FF00005E1FB02E506F0D6
:103288000042E0FB03E54FF00006E1FB03569CF02B
:10329800000F18BF4EF0010EA4F1FF04B6F5007F31
:1032A80064F5407404D25FEA4E0E6D4146EB0606A3
:1032B80042EAC62141EA55514FEAC52040EA5E502C
:1032C8004FEACE2EB4F1FD0C88BFBCF5E06F1ED8D6
:1032D800BEF1004F08BF5FEA500E50F1000041EB0D
:1032E800045170BD06F0004646EA010140EA0200BA
:1032F80081EA0301B4EB5C04C2BFD4EB0C0541EADC
:10330800045170BD41F480114FF0000E013C00F3F0
:10331800AB8014F1360FDEBF002001F0004170BD14
:10332800C4F10004203C35DA0C341BDC04F114042D
:10333800C4F1200500FA05F320FA04F001FA05F2B9
:1033480040EA020001F0004221F0004110EBD37086
:1033580021FA04F642EB06015EEA430E08BF20EAB2
:10336800D37070BDC4F10C04C4F1200500FA04F355
:1033780020FA05F001FA04F240EA020001F00041E7
:1033880010EBD37041F100015EEA430E08BF20EA5A
:10339800D37070BDC4F1200500FA05F24EEA020EA2
:1033A80020FA04F301FA05F243EA020321FA04F0D1
:1033B80001F0004121FA04F220EA020000EBD37088
:1033C8005EEA430E08BF20EAD37070BD94F0000F88
:1033D8000FD101F00046400041EB010111F4801FBC
:1033E80008BF013CF7D041EA060195F0000F18BF6D
:1033F800704703F00046520043EB030313F4801FA9
:1034080008BF013DF7D043EA0603704794EA0C0F62
:103418000CEA135518BF95EA0C0F0CD050EA410678
:1034280018BF52EA4306D1D181EA030101F00041F5
:103438004FF0000070BD50EA410606BF104619461D
:1034480052EA430619D094EA0C0F02D150EA013629
:1034580013D195EA0C0F05D152EA03361CBF10466A
:1034680019460AD181EA030101F0004141F0FE4109
:1034780041F470014FF0000070BD41F0FE4141F48D
:10348800780170BD70B54FF0FF0C4CF4E06C1CEA8D
:1034980011541DBF1CEA135594EA0C0F95EA0C0F42
:1034A80000F0A7F8A4EB050481EA030E52EA0335FD
:1034B8004FEA013100F088804FEA03334FF080551E
:1034C80045EA131343EA12634FEA022245EA11154B
:1034D80045EA10654FEA00260EF000419D4208BFFC
:1034E800964244F1FD0404F5407402D25B084FEAA9
:1034F8003202B61A65EB03055B084FEA32024FF455
:1035080080104FF4002CB6EB020E75EB030E22BFB1
:10351800B61A754640EA0C005B084FEA3202B6EB71
:10352800020E75EB030E22BFB61A754640EA5C0020
:103538005B084FEA3202B6EB020E75EB030E22BFB0
:10354800B61A754640EA9C005B084FEA3202B6EBB1
:10355800020E75EB030E22BFB61A754640EADC0070
:1035680055EA060E18D04FEA051545EA16754FEAD2
:1035780006164FEAC30343EA52734FEAC2025FEAF0
:103588001C1CC0D111F4801F0BD141EA00014FF07F
:1035980000004FF0004CB6E711F4801F04BF014350
:1035A8000020B4F1FD0C88BFBCF5E06F3FF6AFAE6C
:1035B800B5EB030C04BFB6EB020C5FEA500C50F1FC
:1035C800000041EB045170BD0EF0004E4EEA11317F
:1035D80014EB5C04C2BFD4EB0C0541EA045170BD86
:1035E80041F480114FF0000E013C90E645EA060ECA
:1035F8008DE60CEA135594EA0C0F08BF95EA0C0FF8
:103608003FF43BAF94EA0C0F0AD150EA01347FF43F
:1036180034AF95EA0C0F7FF425AF104619462CE716
:1036280095EA0C0F06D152EA03353FF4FDAE104679
:10363800194622E750EA410618BF52EA43067FF4CA
:10364800C5AE50EA41047FF40DAF52EA43057FF45A
:10365800EBAE12E74FF0FF3C06E000BF4FF0010C65
:1036680002E000BF4FF0010C4DF804CD4FEA410CC9
:103678007FEA6C5C4FEA430C18BF7FEA6C5C1BD096
:1036880001B050EA410C0CBF52EA430C91EA030F17
:1036980002BF90EA020F0020704710F1000F91EA74
:1036A800030F58BF994208BF90422CBFD8176FEA42
:1036B800E37040F0010070474FEA410C7FEA6C5C10
:1036C80002D150EA013C07D14FEA430C7FEA6C5C17
:1036D800D6D152EA033CD3D05DF8040B704700BF43
:1036E8008446104662468C461946634600E000BF91
:1036F80001B5FFF7B7FF002848BF10F1000F01BD63
:103708004DF808EDFFF7F4FF0CBF012000205DF82D
:1037180008FB00BF4DF808EDFFF7EAFF34BF0120B2
:1037280000205DF808FB00BF4DF808EDFFF7E0FF4B
:1037380094BF012000205DF808FB00BF4DF808ED9C
:10374800FFF7CEFF94BF012000205DF808FB00BF03
:103758004DF808EDFFF7C4FF34BF012000205DF8E5
:1037680008FB00BF4FEA410212F5001215D211D52D
:103778006FF47873B3EB625212D94FEAC12343F066
:10378800004343EA505311F0004F23FA02F018BFE8
:10379800404270474FF00000704750EA013005D1B1
:1037A80011F0004008BF6FF0004070474FF0000074
:1037B800704700BF4BB942B9002908BF002802D0A2
:1037C8004FF0FF31084600F03BB882B0EC462DE9D7
:1037D800005000F01DF8DDF804E002B00CBC7047A2
:1037E8002DE9F843089C1546984606460F4600F012
:1037F80029F805FB01F9A5FB002300FB089C63449D
:10380800B21A67EB0303C4E90023BDE8F88300BFDD
:103818002DE9F843089E1746804689461D4600F064
:103828006FF900FB05F3A0FB074507FB01373D4493
:10383800B8EB040469EB0505C6E90045BDE8F88363
:10384800704700BF00292DE9F00FA8BF0026C0F27D
:10385800AB80002BC0F2A380894690469C46144654
:1038680005460F46002B48D18A425CD9B2FA82F34A
:1038780053B1C3F1200201FA03F720FA02F208FA61
:1038880003F400FA03F51743210CB7FBF1F201FB2F
:103898001277A0B200FB02F34FEA154C4CEA074737
:1038A800BB4209D93F1902F1FF3C04D2BB4284BF95
:1038B800023A3F1900D86246FF1AB7FBF1F301FB41
:1038C800137100FB03F0ADB245EA0141884208D903
:1038D800091903F1FF3703D2884288BF023B00D899
:1038E8003B4643EA024300221846114616B14042BD
:1038F80061EB4101BDE8F00F70478B4284BF0022A5
:103908001346F1D8BCFA8CF1002940F09580CC45DB
:1039180028BF80458CBF002201229CBF01230A4694
:10392800E2D91346E0E712B90123B3FBF2F4B4FA83
:1039380084F3002B3ED13F1B200C1FFA84FC01228C
:10394800B7FBF0F100FB11770CFB01F34FEA1548C8
:1039580048EA0747BB420AD93F1901F1FF3880F00E
:10396800C780BB4284BF02393F1940F2C180FF1AA9
:10397800B7FBF0F300FB13700CFB03FCADB245EA98
:103988000040844508D9001903F1FF3703D2844564
:1039980088BF023B00D83B4643EA0143A4E7F6430D
:1039A800524263EB430357E7404261EB41014FF05A
:1039B800FF364EE79C40C3F1200927FA09F125FAA2
:1039C80009F99F40200CB1FBF0F200FB12111FFA1D
:1039D80084FC0CFB02F849EA07094FEA194747EA51
:1039E8000141884505FA03F509D9091902F1FF33A0
:1039F80080F08480884584BF023A09197ED9C8EBD3
:103A08000101B1FBF0F300FB13170CFB03F81FFADD
:103A180089F949EA0747B84509D93F1903F1FF3140
:103A280004D2B84584BF023B3F1900D80B46C8EB07
:103A3800070743EA024283E7C1F1200328FA03F2A9
:103A48000CFA01FC29FA03F420FA03F309FA01F944
:103A580042EA0C0C4FEA1C4AB4FBFAF70AFB17447B
:103A68001FFA8CFB0BFB07F043EA09094FEA1943DD
:103A780043EA0444A04208FA01F209D914EB0C0401
:103A880007F1FF3338D2A04284BF023F644433D9E0
:103A9800201AB0FBFAF30AFB13000BFB03FB1FFA17
:103AA80089F949EA0040834509D910EB0C0003F174
:103AB800FF341FD2834584BF023B60441AD943EACE
:103AC8000747A7FB0223CBEB000098420DD305FA6A
:103AD80001F114BF0023012391422CBF002203F0FF
:103AE80001023B46002A3FF4FFAE7B1E0022FBE6A4
:103AF80041463CE72346E2E71F46C9E71A467EE708
:103B08002DE9F003144605460E46002B42D18A42A1
:103B180055D9B2FA82F34BB1C3F12006994020FA85
:103B280006F602FA03F400FA03F50E43220CB6FB7C
:103B3800F2F002FB1066A7B207FB00F34FEA154C40
:103B48004CEA0646B34209D9361900F1FF3104D2CE
:103B5800B34284BF0238361900D80846F61AB6FBB5
:103B6800F2F302FB136207FB03F7ADB245EA024228
:103B7800974209D9121903F1FF3180F0ED8097427D
:103B880088BF023B40F2E88043EA00400021BDE8DC
:103B9800F00370478B4284BF00210846F7D8B3FA78
:103BA80083F4002C4AD18B4228BF82428CBF00216B
:103BB80001219CBF01202146E9D90846E7E712B94F
:103BC8000124B4FBF2F4B4FA84F7002F40F08480A7
:103BD8000B1B260CA7B20121B3FBF6F006FB103332
:103BE80007FB00F24FEA154C4CEA03439A420AD904
:103BF8001B1900F1FF3C80F0B1809A4284BF023863
:103C08001B1940F2AB809B1AB3FBF6F206FB12338A
:103C180007FB02F7ADB245EA0345AF4209D92C19B3
:103C280002F1FF3380F09C80A74288BF023A40F23D
:103C38009780BDE8F00342EA00407047C4F12005D0
:103C480022FA05F7A34021FA05F620FA05F5A14066
:103C58003B434FEA1348B6FBF8FC08FB1C661FFA07
:103C680083F909FB0CF729430D0C45EA0646B742D0
:103C780002FA04F204D9F6180CF1FF3578D3AC46F1
:103C8800F61BB6FBF8F708FB176609FB07F989B2BC
:103C980041EA0645A94504D9ED1807F1FF3161D37A
:103CA8000F4647EA0C47A7FB0223C9EB05059D42CF
:103CB8000DD300FA04F114BF0025012591422CBF51
:103CC800002105F00101384600293FF460AF781E55
:103CD8000021BDE8F0037047BC40C7F1200321FA7A
:103CE80003FC20FA03F3B940260CBCFBF6F806FBEC
:103CF80018CC1FFA84F909FB08F219430B0C43EAA4
:103D08000C4C624500FA07F50AD91CEB040C08F1C3
:103D1800FF3334D2624584BFA8F10208A4442ED9E7
:103D2800C2EB0C0CBCFBF6F206FB12C309FB02F05B
:103D380089B241EA0343984209D91B1902F1FF31BC
:103D480004D2984284BF023A1B1900D80A461B1AAB
:103D580042EA08414F463FE70B4615E7604652E7FF
:103D68001A4666E7A94584BF023FED1899D897E738
:103D7800B74284BFACF1020CF61881D87FE79846A9
:103D8800CEE700BF002103E00B4B5B5843500431E2
:103D98000A480B4B42189A42F6D30A4A02E000231B
:103DA80042F8043B084B9A42F9D3FEF7E9FD01F0CB
:103DB800BDFFFEF74BFE70470CA600080000002070
:103DC8009409002098090020C0100020F0B51A4B73
:103DD80089B005460E4603AA03F11007186859680A
:103DE800144603C40833BB422246F7D11B78684601
:103DF800237000F023F8182E94BF06F1FF31182124
:103E080000238B4213DA08A800EB630212F8202C77
:103E180008AC00EB121002F00F0210F8140C224448
:103E280012F8142CE854E81842700233E9E700232A
:103E38006B5409B0F0BD00BF84A20008044B1B6896
:103E48000360044B1B684360034B1B688360704727
:103E5800F0F7FF1FECF7FF1FE8F7FF1F2DE9F0470A
:103E6800066845684FF6E07C002443FA04F7FF072C
:103E780021D51FFA84F8B8F1070F04D84FEA88074C
:103E8800BFB2B14601E06746A9464FF00F0A0AFAE9
:103E980007FA29EA0A0907F1020A02FA0AFA01FAF4
:103EA80007F74AEA070747EA0907B8F1070F98BF73
:103EB8003E4688BF3D4601340CF1040C102C1FFA15
:103EC8008CFCD2D106604560BDE8F0870904016129
:103ED8007047036843F0010303607047036823F0E9
:103EE800010303607047036843F4807303607047FD
:103EF800036843F4007303607047490041F480414C
:103F080081607047436823F03F039BB219434160C7
:103F1800704701617047C36903F470431943C16175
:103F280070470162704742EA4102D2B202617047AB
:103F38000069C0B270470000024B1A6842F08072F4
:103F48001A60704700100240062822D8DFE800F007
:103F580004090E13181A1C000F4B1868C0F34060B0
:103F680070470D4B1868C0F3C06070470A4B18685B
:103F7800C0F340707047084B1868C0F34040704762
:103F8800054B02E0054B00E0054B1868C0F3400004
:103F980070470020704700BF001002402010024008
:103FA8002410024010B504462046FFF7CDFF002834
:103FB800FAD010BD06281FD8DFE800F004060B1061
:103FC80015171900FFF7B8BF0C4B1A6842F080624A
:103FD80011E00A4B1A6842F080520CE0074B1A684D
:103FE80042F4803207E0054B02E0054B00E0054B48
:103FF8001A6842F001021A60704700BF00100240C0
:104008002010024024100240034B1A6822F00302D9
:1040180010431860704700BF04100240034B1A6831
:1040280022F4701242EA804018607047041002407F
:10403800034B1A6822F4803242EA00401860704745
:1040480004100240034B1A6822F4003242EA40404E
:104058001860704704100240034B1A6822F440426B
:1040680042EA80301860704704100240034B1A6817
:1040780022F4605242EAC0201860704704100240DF
:10408800034B1A6822F4E06242EA00201860704785
:1040980004100240034B1A6822F0F00242EA0010B2
:1040A800186070470410024008B50420FFF782FF2B
:1040B8000420FFF777FF0020FFF7A6FF0320FFF794
:1040C80079FF0320FFF76EFF0120FFF79DFF002017
:1040D800FFF7E0FF0320FFF7BFFF0420FFF7D0FF43
:1040E8000020FFF7C3FF022000F078FE0720FFF74B
:1040F80095FF0120FFF79CFF0020FFF7A3FFFFF7C4
:104108001BFF0020FFF74EFF0220FFF77DFF044B47
:10411800044A05491360054A1160054A136008BD41
:1041280000A24A04E400002000512502E800002013
:10413800EC000020034B98420CBF034B034B18685C
:10414800704700BF00380140EC000020E800002064
:104158004309012100F01F0001FA00F003F1804338
:1041680003F504331A6810431860704743090121A6
:1041780000F01F0001FA00F003F1804303F5043357
:104188001A6802431A601A6822EA00001860704729
:1041980038B50C460546FFF7CDFF00EB5400B0FBE1
:1041A800F4F4AC6038BDC36808290CBF23F480530D
:1041B80043F48053C3607047036923F440531943A1
:1041C80001617047C36823F4C0631943C160704735
:1041D800C36823F00C031943C1607047436923F493
:1041E8004073194341617047C36843F40053C36087
:1041F8007047C1F30801416070474068C0F3080088
:10420800704700002DE9F0410546006817469846BA
:104218000E468047079A069B4261BDF8202003613D
:1042280002830E4A0023C0F880200D4AC0F8EC50E3
:10423800C2670C4A80E8C000C0F80C80C0F8F030B3
:10424800C0F8F4308267C0F8D830C0F8DC30C0F865
:10425800E030C0F8E430BDE8F08100BF5944000800
:10426800074500088F45000808B5D0F8EC305B6AB0
:10427800984708BD37B5069CD0F8EC500094AC6858
:10428800A04703B030BD37B5036800258576C576ED
:104298000446DB7929462A460095FFF7EBFFD4F858
:1042A800EC3020465B6829469847236A03B1984753
:1042B80003B030BD10B5D0F8EC40E469A04710BD9C
:1042C80010B5D0F8EC40246AA04710BD08B5D0F866
:1042D800EC301B69984708BD08B5D0F8EC309B69ED
:1042E800984708BD08B5D0F8EC305B69984708BD19
:1042F80038B50268B0F84030D5790446AB424FF083
:104308000001C26B11D92B46FFF7D4FF022384F8B2
:1043180030302368E26BD9790A44E263DB79B4F878
:104328004020D31AA4F8403038BDFFF7C3FF94F8F3
:104338004830002B0CBF0323022384F830300023BD
:1043480084F84830A4F84030E36338BD2DE9F341E0
:1043580004460D4600F15808002658F8067037B98B
:10436800A36804F13C0804F14007D3B91BE008EB4B
:104378000603587929781A7900EA01039A4203D08A
:104388000836202EE9D1EBE704F1440300932046D8
:10439800294604F13C0204F14003B8470128EFD84C
:1043A80016E0E66C46B92046294642463B4602B02E
:1043B800BDE8F04100F036BC2B7803F07F03402BBA
:1043C800F1D12046294642463B46B0470128EAD863
:1043D80002B0BDE8F08110B5002101220446FFF7C4
:1043E80075FF002384F8303010BD38B50268B0F886
:1043F8004030458FD279ED1A9542A8BF1546C26B59
:10440800ADB21A4400212B460446FFF759FFA842D3
:1044180005D02046FFF7DFFF4FF0FF3038BDB4F876
:1044280040300344A4F8403038BD70B5002500EB97
:10443800C504A66D2EB10135042DF8D14FF0FF301B
:1044480070BD84F85C1084F85D20A365304670BDAB
:1044580038B500250446012245642946FFF742FF86
:10446800628F93B21BB194F93410A94231DA6369AF
:10447800A4F84020E363204604F13401FFF766FF07
:1044880010B3618FB9B1B4F8403022688B42D27949
:1044980009D24BB193FBF2F102FB1133D3F10103C3
:1044A80038BF002300E0002384F848302046BDE8E8
:1044B8003840FFF71DBF0B4620460A46FFF7FAFEB5
:1044C800042384F8303038BD2046BDE83840FFF773
:1044D80082BF228B9A42F7D36269A4F84050E26304
:1044E80022680021D27920469A4234BF0523062348
:1044F80084F830300A46BDE83840FFF7F3BE90F83C
:10450800303010B5062B044611D0072B25D0052BCB
:1045180034D1FFF76AFF002834DBB4F84030628FEB
:10452800D21A2368DB799A422CDC062310E0FFF7C5
:104538005CFF002826DB204604F13401FFF706FF64
:1045480048B100210B4620460A46FFF7B3FE042374
:1045580084F8303010BD204610E000210B460A4692
:10456800FFF7AEFE002384F83030636C1BB12046A1
:1045780004F1340198470023636410BDBDE810407E
:10458800FFF729BF10BD90F8303010B5032B044653
:1045980007D0042B0ED0022B23D1BDE81040FFF723
:1045A800A7BE0723002180F830300A46BDE8104036
:1045B800FFF798BE436C13B100F13401984794F8A3
:1045C800343053B994F83530052B06D1D4F8EC3093
:1045D800E18E5B682046C9B29847002384F83030E2
:1045E80010BDBDE81040FFF7F6BEF8B54A8804468E
:1045F8000E467AB10368587C0023834208D261686A
:104608000D2505FB03114979914205D00133F4E7E3
:104618000020F8BD4FF0FF330133DBB2E37643B936
:10462800D4F8EC302046DB689847D4F8D83093B9F2
:1046380022E00D225A4361680D3A0A440023117999
:104648008B42EDD2D2F809101801415809B1002067
:1046580008700133F3E70023A3652366A366236785
:10466800254604F11007D5F8D83013B120467188D3
:1046780098470435BD42F6D10120F8BD1988126863
:10468800012984BF01211980C37E2BB141680D2007
:1046980000FB031313F8083C13700120704730B572
:1046A800C47E0D256C4340680D3C20448D880479F8
:1046B800A5420CD201241C808988D0F80930090150
:1046C800CB58126803B11B781370012030BD00204D
:1046D80030BD19880120022984BF02211980116880
:1046E80000230B7012685370704719880120022943
:1046F80084BF02211980116800230B70126853705F
:10470800704738B514461A882568022A84BF0222E1
:104718001A808988C9B2FFF7DFFD003018BF012071
:104728002870236800225A70012038BD08B589888E
:104738000122C9B2FFF7CAFD012008BD08B5898862
:104748000022C9B2FFF7C2FD012008BD10B50A78E2
:1047580072B94C887F2C0BD8D0F8EC30847693F85B
:1047680030201AB149885B68C9B29847012010BD4A
:10477800002010BD70B51E46C37E0A460D214B436E
:1047880041680D3B0B441C7991888C4216D9D3F8AB
:10479800095009016B1854881B79A3420ED969582E
:1047A80009B10C7000E04CB9D0F8E84014B1918818
:1047B8005288A04700233380012070BD002070BDBF
:1047C8002DE9F04F0546488889B05FFA80F8000A5D
:1047D800022814469B4616D00ED8012840F0CB81FB
:1047E8002B6813602B68BBF800201B789A4238BFEF
:1047F8001346ABF80030BFE1032800F058810F28BA
:1048080000F0E380B7E16B69BBF8004013600193E7
:104818000D2303FB08F86E68019816F8085006EB9C
:104828000803AC4238BF254619462A460293FEF7CC
:10483800B3F9019B16F80820641B00202B44A4B28E
:10484800ADF81E2003900298039902798A4240F23B
:10485800B58002980399D0F8092009010A4496689E
:104868000591A6B137781846BC4238BF274631466D
:104878003A46FEF791F9BDF81E2031780346E41B4D
:104888003D440A443B44A4B2ADB2ADF81E20002119
:10489800049102980599D0F8092004980A441179DE
:1048A800814240F2868004984FF0150808FB00F812
:1048B800D2F80C90184619F8087009EB0806BC42A3
:1048C80038BF274631463A46FEF766F9BDF81E203E
:1048D80019F80880D6F80D1090440346E41B3D44AF
:1048E8001FFA88F83B44A4B2ADB2ADF81E80A1B15E
:1048F800D6F811701846BC42B8BF2746BFB23A4630
:10490800FEF74AF9D6F811200346E41B3D449044CB
:104918003B44A4B2ADB2ADF81E8000273279BA424A
:1049280042D94FF00F0A0AFB07FAD6F809C0184611
:104938001CF80A900CEB0A084C4538BFA1464146C2
:104948004A46CDF800C0FEF727F9DDF800C0BDF8EB
:104958001E201CF80AA0D8F8071092440346C9EB99
:1049680004044D441FFA8AFA4B44A4B2ADB2ADF820
:104978001EA0B1B1D8F80B9018464C45B8BFA14657
:104988001FFA89F94A46FEF707F9D8F80B200346BB
:10499800C9EB04044D4492444B44A4B2ADB2ADF803
:1049A8001EA00137BFB2B9E704994A1C92B204921B
:1049B8006FE703994A1C92B2039244E7BDF81E3090
:1049C800019A5380ABF80050D3E0A868002800F0A3
:1049D800D380B8F1000F40F0CE806F691E88176051
:1049E800AD6838462C782946A64238BF3446224658
:1049F800FEF7D2F82B78361BB6B201934FEA48136C
:104A08002A7902935FFA88F39A4245D9D5F8053096
:104A18009A460393029B9A449AF80230052B3FD199
:104A280007EB040C142E34BFB1464FF0140960464E
:104A380051464A46FEF7B0F85149844610220AF119
:104A48000400CDF800C001F0CBFCDDF800C090B93F
:104A5800C9EB06039BB2082B28BF0823DAF8141009
:104A68001A460CEB09000093FEF796F8009B03EB3F
:104A7800090080B200E000200299039A535C019972
:104A88000B449BB2019300B95EB9361A0444B6B21E
:104A9800A4B208F10108B1E7019B20467B8000E041
:104AA8000020ABF80000003018BF012064E06E69F8
:104AB800B8F1000F0CD10923B3700423F3703370DD
:104AC800BBF80030042B28BF0423ABF800304DE0BE
:104AD800D5F8F03098451DD1D5F8F40002F062F809
:104AE80001304300DBB23370BBF80020934228BF8B
:104AF8001346ABF800300023BBF800205208013AF7
:104B0800934233DAD5F8F420D15C06EB43025180A6
:104B18000133F1E7E86808F1FF3868B32B69984575
:104B280029DA8A8840F209439A4224D150F82800A9
:104B380002F038F801304300DBB23370BBF80020D4
:104B48004FEA8807934228BF1346ABF8003000238A
:104B5800BBF800205208013A934207DAEA68D259B2
:104B6800D15C06EB430251800133F1E703237370F4
:104B78002660012000E0002009B0BDE8F08F00BFEA
:104B8800C8A20008002300EB8302D2F8D8203AB16B
:104B98008A4208D00133042BF5D14FF0FF3070471B
:104BA800363340F8231000207047000038B54C78A1
:104BB800092C05D8044D55F824401CB1A04738BD30
:104BC800002038BD204638BDD8A2000838B54C783A
:104BD8000B2C05D8044D55F824401CB1A04738BD0E
:104BE800002038BD204638BD98A2000810B54C7882
:104BF800012C03D009D3032C03D004E04C8834B132
:104C080001E04C882CB1002010BD034C02E0034C9D
:104C180000E0034CA04710BD0B47000845470008BB
:104C28003547000810B50C7814F0600F12D104F065
:104C38001F04012C0AD005D3022C0BD1BDE810406B
:104C4800FFF7D4BFBDE81040FFF7B0BFBDE8104084
:104C5800FFF7BCBF002010BD08B540F29730FFF742
:104C680077FA064A0649002313600B6041F80C3CAA
:104C78004FF41C431360034808BD00BF405C00406C
:104C8800505C0040F00E002010B50132520800239D
:104C98009CB2A24205D031F8134040F823400133BA
:104CA800F6E710BDF0B502F0010652080D460446BD
:104CB800134633B135F8047B013B24F8027B9BB2E1
:104CC800F7E71EB111F8223000F81230F0BDFEE708
:104CD8007047000010B5002218491948531883423C
:104CE80004D2184BD35853500432F5E7164A93426E
:104CF80003D200221A600433F8E7144B144C1A68E4
:104D080042F400721A60134B9C4203D254F8043BDD
:104D18009847F8E7104C114B9C4203D254F8043BD7
:104D28009847F8E7FDF792FE0D4C0E4B9C4203D2D4
:104D380054F8043B9847F8E710BD00BF0000002076
:104D4800940900200CA60008C010002014ED00E013
:104D58000CA600080CA600080CA600080CA6000863
:104D68000CA600080CA60008024B20F07F40186033
:104D7800704700BF14E000E0044B00F004001A681C
:104D880022F0040202431A60704700BF10E000E0FE
:104D9800024B1A6842F002021A60704710E000E005
:104DA800024B1A6842F001021A60704710E000E0F6
:104DB800014A024B1A60FEE70400FA050CED00E018
:104DC8004309012200F01F0002FA00F09B0003F1E2
:104DD800604303F56143186070470000034B1A688D
:104DE80022F0070210431860704700BF00200240FD
:104DF800024B41F080011960704700BF4C5C0040D5
:104E08003E2A07D9013AC2F34412501C400142F02D
:104E1800200203E001325208500080B2054B920292
:104E28001B6892B29BB203EBC101034B49005A5075
:104E3800704700BF505C00400C6000402DE9F34112
:104E48000E463F490546086849686C4603C426F083
:104E58007F0006F07F06B40004F1804404F5B844EE
:104E6800D4F800C048F680710CEA01013143216092
:104E780021680DF1080C0CEB420232F8082C21F4E1
:104E8800EC4121F07001114389B2089F216000F0C4
:104E9800FF0CF20098B996B12A490868A98B80B22C
:104EA80002445000284A1150284631461A46FFF756
:104EB800A7FF77B30C2303FB0656F76729E02149C0
:104EC800A88B096889B21144490001F1804101F5B4
:104ED800C04108601FB10C2101FB06518F67D4F84F
:104EE800008048F6CF7108EA01012160D4F80080FB
:104EF80048F6BF7108EA010181F0200141F4004140
:104F080041F0800118442160A883BCF1000F13D13F
:104F1800C2E722684CF68F731340236022684BF671
:104F28008F73134083F4405343F4004343F08003EA
:104F38002360AB8B1844A88302B0BDE8F08100BFA2
:104F48007CA20008505C0040086000400E4B1968C5
:104F58000E4A21F4E04121F040010A4392B21A605E
:104F680019680A4A21F4804121F070010A4392B27B
:104F780043F8042B064A9342E9D10368DB792033CE
:104F88005B008383704700BF045C00408080FFFFA4
:104F9800205C004010B571B9274848F6BF73046813
:104FA8002340002A0CBF20241024634043F400430C
:104FB80043F0800303600B061DD501F07F018900D3
:104FC80001F1804101F5B841086848F6BF73002A2D
:104FD80000EA03030CBF2022102282EA030343F4F1
:104FE800004343F080030B6024D10A6848F6CF736E
:104FF80013400B6010BD890042B901F1804000F5F3
:10500800B84004684CF68F732340036001F1804177
:1050180001F5B84108684BF68F730340002A0CBFAE
:105028004FF440524FF480525A4042F4004242F04A
:1050380080020A6010BD00BF005C00400A060DD562
:1050480001F07F01890001F1804101F5B8410B6849
:1050580003F03003102B0CD000207047890001F1B9
:10506800804101F5B8410B6803F44053B3F5805F04
:10507800F1E7012070470000080619D40D4B5A5477
:10508800890001F1804101F5B84132B10A684BF657
:105098008F73134083F4005305E00A684BF68F734F
:1050A800134083F4405343F4004343F080030B6000
:1050B800704700BFE80E002001F07F01F8B58D00B1
:1050C80005F1804505F5B8451C462B6803F030030B
:1050D800302B26D0144FCE003B6811469BB2334488
:1050E8005B0003F1804303F5C04318882246400063
:1050F80000F1804000F5C040FFF7C6FD3B68204640
:105108009BB21E44094B76009C512A6848F6BF732F
:10511800134083F0300343F4004343F080032B60D3
:10512800F8BD0020F8BD00BF505C0040046000409E
:10513800F8B58D0005F1804505F5B8451C462B6886
:105148000E4603F44053B3F5405F3AD01F4FCB00EF
:1051580038681F4980B218444000095AC1F3090150
:10516800A14208DA38681A4980B2184440000C583D
:10517800C4F30904A4B2154910460968224689B245
:105188000B445900134B595A490001F1804101F56C
:10519800C041FFF787FD2A6840F60F73134043F0BC
:1051A80080032B600C4B9B5D6BB92A684BF68F73A1
:1051B800134083F4405343F4004343F080032B60CF
:1051C80001E00020F8BD2046F8BD00BF505C00405B
:1051D8000C60004008600040E80E0020F8B5384B2D
:1051E80004461E68B5B2690508D54FF6FF321A6045
:1051F80040238383BDE8F840FFF745B8320438D52B
:1052080006F00F0615F010034FEA86070ED007F1D7
:10521800804303F5B8431B681B0513D508233146A3
:1052280000F13402FFF784FF02230CE007F180410C
:1052380001F5B841086840F60F72024042F4004296
:105248000A6000E00123032202FB06331E3354F8F0
:1052580023301BB12046314698470AE007F18047C2
:1052680007F5B8473A6840F60F73134043F08003D8
:105278003B602F0506D5124B4FF2FF721A60636A26
:1052880003B19847EE0406D50D4B4EF6FF721A602F
:10529800A36A03B19847AD0506D5094B4FF6FF52EF
:1052A8001A60E36A03B19847E26A064B1AB11A68B2
:1052B80042F4007202E01A6822F400721A60F8BD23
:1052C800445C0040405C004008B5062001F00AFC40
:1052D800012004F021FE00BF40F22053C2F2000377
:1052E8000A460146186800F001B800BF10B502FB75
:1052F80001F100F079FD044670B150F8042C22F059
:105308000302043A242A1CD8132A98BF034605D856
:1053180000221A605A609A60204610BD00231B2A9A
:105328000360436098BF00F10803F1D9242A836021
:10533800C36005BF0361436100F1100300F1180366
:10534800E6E7002101F0E6F8204610BD40F22053C0
:10535800C2F20003186870478B892DE9F0419AB2B0
:105368000D46110780463CD46A6843F40063002A5E
:10537800AB8159DDAC6A002C4BD09BB203F480564C
:105388000022B6B2D8F80070C8F80020002E4FD01E
:105398002A6D5E0705D569682B6B521A0BB1EB6B4A
:1053A800D21A4046E9690023A047441C4BD0AB8978
:1053B8002A6923F400639BB200212A60DA04AB81D6
:1053C80069604DD4296BC8F8007011B305F140032A
:1053D800994202D0404600F0C5F900202863BDE894
:1053E800F0812E69AEB191072C680CBF6B69002360
:1053F8002E60A41BAB600AE0324623466F6A404623
:10540800E969B8470028C0EB0404064404DD002C11
:10541800F2DC0020BDE8F081AB894FF0FF3043F0AB
:105428004003AB81BDE8F081EA6B002AA2DCF0E71B
:10543800324601234046E969A047431C02461ED074
:10544800AB89AC6AA5E7D8F800305BB9AA892969A5
:1054580022F4006292B26B60D304AA812960B1D5AC
:105468002865AFE71D2B01D0162B15D1A9892B690B
:1054780021F400610022A9812B606A60A2E7D8F8B4
:105488000030002BDCD01D2B18BF162BC4D1C8F858
:1054980000703046BDE8F081AB8943F04003AB8132
:1054A800BDE8F08110B5044682B008B1836B53B1F2
:1054B800B1F90C0008B902B010BD204602B0BDE831
:1054C8001040FFF749BF019100F01CF80199EFE780
:1054D80038B140F22053C2F2000301461868FFF7C2
:1054E800E1BF4AF23C43C0F6000345F2AD411868FB
:1054F800C0F6000100F0B0BB49F27D41C0F60001E2
:1055080000F086BB2DE9F04F846B83B00746002C72
:1055180070D1456845F20153C0F60003032007F532
:105528003B710422FB63C7F8E402C7F8E812C7F826
:10553800E04205F15C00AA812C606C60AC606C668E
:10554800EC812C616C61AC612146082200F0E2FF1D
:1055580046F6293BBE6846F64D3A46F6853946F684
:10556800A5380123C0F6000BC0F6000AC0F60009F2
:10557800C0F600080922ED61C5F820B0C5F824A0DE
:10558800C5F82890C5F82C802146F381B281346093
:105598007460B460746634617461B461082206F1A1
:1055A8005C00019300F0B6FFFD6812200222C6F8E5
:1055B80020B0C6F824A0C6F82890C6F82C80F6615A
:1055C8002146A881EA812C606C60AC606C662C6115
:1055D8006C61AC6105F15C00082200F09BFF019B47
:1055E800C5F820B0C5F824A0C5F82890C5F82C80C7
:1055F800ED61BB6303B0BDE8F08F00BF704700BF2B
:10560800704700BF0EB430B582B005AC54F8042B17
:1056180040F22055C2F2000501462346286801944D
:1056280001F0F0FA02B0BDE8304003B0704700BFA7
:1056380040F22053C2F2000370B51C6806460D46BE
:1056480024B1A36B13B92046FFF75CFF204631460F
:105658002A46BDE8704000F0ABBF00BF30B5054634
:1056680087B008461446019101F09CFA01AA01236B
:1056780005900290039204930DB1AB6B8BB1A38993
:1056880028469A045FBF626E43F4005322F4005226
:10569800626658BFA381214603AA00F02FF907B01C
:1056A80030BD2846FFF72EFFE9E700BF40F2205340
:1056B800C2F200030A4601461868FFF7CFBF00BFD1
:1056C800F8B540F22454C2F200040F46054600F033
:1056D8006BFFA3685E6826F00306F71B07F6EF77F3
:1056E8003F0B013F3F03B7F5805F07DB28460021EA
:1056F80001F0B8F9A3683344984204D0284600F072
:1057080055FF0020F8BD2846794201F0ABF9013079
:1057180010D041F21003C2F200031A68A168F61B08
:1057280046F001062846D71B4E601F6000F03EFF7A
:105738000120F8BD2846002101F094F9A368C21A97
:105748000F2ADBDD40F63011C2F200010C6841F28D
:10575800100142F00102001BC2F200015A60086009
:10576800CCE700BF2DE9F8430E468146002960D0FA
:1057780000F01AFF56F8041CA6F1080421F00103F2
:10578800E218576840F22455C2F2000527F00300DA
:10579800AF68974262D011F0010C506018BF002129
:1057A80011D156F8081C05F10808641AA6680B44BC
:1057B80046451DBFD4F80C806146C6F80C8001210F
:1057C80018BFC8F8086016187668F60708D40344A6
:1057D800906811B9484EB0425FD0D268C2609060FC
:1057E80043F001026260E350F1B9B3F5007F22D3C0
:1057F8005A0A042A5AD898093830410005EB81051D
:10580800AA6840F22451AA42C2F200015AD0516853
:1058180021F003018B4202D292689542F7D1D368F6
:10582800E360A2609C60D4604846BDE8F84300F09D
:10583800BDBEBDE8F883DB089A1001209040696876
:1058480005EBC3039A6801436960A260E3604846B8
:105858009C60D460BDE8F84300F0A8BECF071844A8
:1058680007D456F8081C641AE368A2680844D36091
:105878009A6040F62C12C2F20002136840F001024E
:1058880098426260AC60CFD341F20C03C2F20003CD
:1058980019684846FFF714FFC6E743F001026C6138
:1058A8002C61E060A0606260E350BDE7142A9CBFF1
:1058B80002F15B004100A1D9542A0BD8180B6E30B5
:1058C80041009BE78010012585404868134628431E
:1058D8004860A5E7B2F5AA7F03D8D80B7730410016
:1058E8008CE740F254518A429DBF980C7C304100AD
:1058F800FC2188BF7E2081E72C0500202DE9F04F90
:10590800936883B0164681460C463BB38B891907CA
:1059180028D5226932B303F0020292B23568002A10
:105928002ED04FF0000A4FF47C4BD046C7F6FF7BD1
:10593800D84534BF43465B4652464846B8F1000F47
:105948004FD0E169676AB847002856DDB3688244DA
:105958001B1AC0EB0808B360002BE9D1002003B084
:10596800BDE8F08F4846214602F084FC002840F04C
:105978004781A389356803F0020292B2002AD0D188
:1059880013F0010A42D1D046B8F1000F23D09A058E
:10599800A76876D5B845C0F0A48013F4906F40F09E
:1059A800B2802068BB4651465A4600F04DFDA268B9
:1059B8002168D21B01EB0B03A26023604246B36847
:1059C80092449B1AC2EB0808B360002BC6D0A38987
:1059D800B8F1000FDBD1D5F800A0D5F80480083560
:1059E800D2E7D5F800A0D5F804800835A0E74846E6
:1059F8002146FFF757FD002859D0A38943F04003FB
:105A08004FF0FF30A38103B0BDE8F08F92460192BA
:105A180093469046B8F1000F2BD0019F002F64D019
:105A280020682169C24534BF5346434688421F4611
:105A3800D4F808C0626903D99444634500F3AE8082
:105A4800934236DB1346676A4846E1695A46B847C7
:105A5800071ED2DDBAEB070A3AD0B368BB44DB1B9A
:105A6800C7EB0808B360002B3FF478AFB8F1000F1C
:105A7800D3D10027D5F800B0D5F8048001970835B0
:105A8800C8E720682369984202D86369984572D2AA
:105A9800B84538BF47463A46514600F0D5FCA3689A
:105AA8002268DB1B3A44A3602260002B9FD03A4651
:105AB80085E71A465946009300F0C6FC009BA1688A
:105AC8002268C91ABAEB070A1344A1602360C4D13B
